:020000040000fa
:020000040042b8
:10020000f8ff4520299e4400d5704500db7045006d
:10021000e7704500ed704500f370450000000000f8
:10022000000000000000000000000000b14c45008c
:10023000e17045000000000001cf4400010a4500c4
:10024000c74e4200c74e4200c74e4200c74e420052
:10025000c74e4200c74e4200c74e4200219544009f
:10026000c74e420000000000c74e4200c74e420089
:10027000d5474500f9da4300c74e4200a5cc4300fc
:10028000c74e4200c74e4200c74e4200c74e420012
:10029000c74e4200f1bd4300c74e4200c74e420068
:1002a0003d424500c74e4200c74e4200c74e420085
:1002b000c74e4200c74e4200c74e4200c74e4200e2
:1002c000c74e4200c74e4200a76f4500c74e4200ce
:1002d000c74e420011aa4300c74e4200c74e42001b
:1002e000c74e4200c74e4200c74e4200d5494300a8
:1002f00099944400c74e4200c74e4200c74e420088
:10030000c74e4200c74e4200cd1945000d1a4500a8
:100310004d1a4500c74e42000000000000000000da
:10032000c74e4200c74e4200a11d4400c74e4200c6
:10033000c74e4200c74e420000000000c74e4200b8
:10034000c74e4200c74e4200c74e4200c74e420051
:10035000c74e4200c74e4200c74e4200c74e420041
:08036000c74e4200c74e4200e7
:020000040000fa
:020000040042b8
:10036800f8b500bff8bc08bc9e467047b1184500f8
:10037800f8b500bff8bc08bc9e4670478d1845000c
:020000040000fa
:020000040042b8
:0803880066d80000010000002e
:020000040000fa
:020000040042b8
:10039000524547203d2030782530386c580d0a00f2
:1003a00052656164206661696c6564005245475b13
:1003b0003078253032585d203d2030782530386c3b
:1003c000580d0a4279746533202833313a32342982
:1003d000203d203078253032580d0a42797465323c
:1003e000202832333a313629203d203078253032ea
:1003f000580d0a4279746531202831353a38202960
:10040000203d203078253032580d0a42797465300d
:10041000202837203a302029203d203078253032de
:10042000580000004f4b4b4b4b000000556c74695b
:1004300073000000646576005072696e74206c6908
:100440007374206f6620646576656c6f7065722dbd
:10045000737065636966696320636f6d6d616e6457
:100460007300000068656c70000000005072696ed7
:1004700074206c697374206f6620616c6c206176e7
:1004800061696c61626c6520636f6d6d616e647330
:10049000205b4669726d776172653a20315d0000bc
:1004a000636c7300436c65617220746865207465c9
:1004b000726d696e616c20636f6e736f6c65206f17
:1004c00075747075740000006175746f636f6d7082
:1004d0006c65746500000000546f67676c6520618f
:1004e00075746f636f6d706c6574696f6e3a2061bf
:1004f00075746f636f6d706c657465205b6f6e7c77
:100500006f66665d0000000054696d6500000000c4
:100510007274635f73657400536574205254432092
:1005200074696d653a207274635f736574203c680a
:100530003e203c6d3e203c733e203c44443e203ceb
:100540004d4d3e203c59593e000000007274635fdf
:1005500067657400476574205254432074696d6563
:100560003a207274635f676574203c686172647cd2
:10057000736f66747c776f726b7c65706f63687c79
:10058000616c6c3e0000000065706f63685f7365ae
:1005900074000000536574205254432074696d65e3
:1005a000207573696e6720556e69782065706f637a
:1005b000683a207274635f73657465706f63682056
:1005c0003c65706f63683e0053797374656d00001d
:1005d0006f735f7374617400446973706c61792028
:1005e0004672656552544f53207461736b20737467
:1005f000617469737469637320616e6420737461dc
:10060000636b20757361676500000000646d65733e
:10061000670000005072696e742073797374656da1
:10062000206c6f67206275666665723a20646d653e
:100630007367205b4e206c696e65735d000000007f
:100640006261756400000000546f67676c65205537
:10065000415254303a203235306b3e3530306b3eab
:100660003932316b3e314d3e3131356b2d3e2e2ec0
:100670002e0000004652414d000000006672616d80
:100680005f77726974655f726561640052756e2090
:100690004652414d20686172647761726520696ecf
:1006a0007465677269747920746573742028577251
:1006b0006974652f5265616429000000626f6f7470
:1006c000696e666f000000005265616420626f6fa2
:1006d0007420696e666f2028636f756e74202b20fe
:1006e000636175736520686973746f727929206618
:1006f000726f6d204652414d0000000043414e0094
:1007000063616e5f73656e640000000053656e6424
:10071000207261772043414e206672616d653a20f8
:1007200063616e5f73656e64203c69643e205b6547
:1007300078745d205b62302062312e2e2e5d0000c9
:10074000435350006373705f70696e670000000070
:1007500053656e64204353502070696e673a20637e
:1007600073705f70696e67203c646573745f616469
:1007700064723e205b74696d656f75745f6d735d47
:10078000000000006373705f73656e64000000001a
:1007900053656e6420435350207061636b65743af7
:1007a000206373705f73656e64203c616464723ea5
:1007b000203c706f72743e203c646174612e2e2e5a
:1007c0003e0000006373705f696e666f000000009a
:1007d000446973706c61792063757272656e742000
:1007e00043535020696e746572666163652073744b
:1007f0006174757320616e642073746174697374bd
:1008000069637300506172616d0000007061726114
:100810006d5f73686f77000053686f7720616c6c51
:10082000206669656c647320696e20612070617256
:10083000616d65746572207461626c653a207061e7
:1008400072616d5f73686f77203c7461626c655f85
:10085000696420302d343e00706172616d5f736594
:1008600074000000557064617465206120706172cd
:10087000616d65746572206669656c643a207061ab
:1008800072616d5f736574203c7461626c655f6951
:10089000643e203c616464723e203c747970653e25
:1008a000203c76616c75653e000000004c454400bc
:1008b0006c65645f736574005475726e206f6e2092
:1008c00061207370656369666963204c45442069e3
:1008d0006e64696361746f72000000006c65645f30
:1008e00072657365740000005475726e206f6666e1
:1008f0002061207370656369666963204c454420fc
:10090000696e64696361746f72000000534f4c003c
:10091000736c6e5f68625f696e697400496e6974ba
:1009200069616c697a65204d41583232323030202d
:10093000536f6c656e6f69642044726976657200ee
:10094000736c6e5f63746c00436865636b204d412c
:1009500058323232303020536f6c656e6f696420cc
:100960004661756c74730000485452006865617488
:1009700065725f7365740000536574206865617407
:1009800065722064757479206379636c653a2068b8
:1009900065617465725f736574203c6368616e6e37
:1009a000656c3e203c647574793e0000504f57459d
:1009b00052000000706f7765725f616c6c5f6f6ee4
:1009c00000000000456e61626c6520616c6c2070f7
:1009d0006f776572207261696c732073696d756cd5
:1009e00074616e656f75736c79000000706f776568
:1009f000725f616c6c5f6f666600000044697361d2
:100a0000626c6520616c6c20706f7765722072611a
:100a1000696c732073696d756c74616e656f757345
:100a20006c790000706f7765725f616c6c5f6765f1
:100a30007400000047657420737461747573206fcf
:100a40006620616c6c20706f776572207261696cd2
:100a500073000000706f7765725f7465635f6f6e1f
:100a600000000000456e61626c6520706f776572f2
:100a700020746f2074686520544543206d6f647541
:100a80006c650000706f7765725f7465635f6f6699
:100a90006600000044697361626c6520706f776561
:100aa0007220746f2074686520544543206d6f6414
:100ab000756c6500706f7765725f7465635f6765fd
:100ac0007400000047657420544543206d6f6475c1
:100ad0006c6520706f776572207374617475730034
:100ae000706f7765725f736c6e5f68645f6f6e00c6
:100af000456e61626c6520706f77657220746f203f
:100b000048443420696e7465726661636500000054
:100b1000706f7765725f736c6e5f68645f6f666637
:100b20000000000044697361626c6520706f776536
:100b30007220746f2048443420696e746572666157
:100b400063650000706f7765725f736c6e5f6864d9
:100b50005f676574000000004765742048443420d6
:100b6000696e7465726661636520706f7765722067
:100b70007374617475730000706f7765725f6c7069
:100b80005f6865617465725f6f6e0000456e6162db
:100b90006c6520706f77657220746f2074686520b3
:100ba0004c50207261696c00706f7765725f6c7079
:100bb0005f6865617465725f6f6666004469736142
:100bc000626c6520706f77657220746f2074686541
:100bd000204c50207261696c00000000706f7765d6
:100be000725f6c705f6865617465725f67657400e1
:100bf000476574204c50207261696c20706f776576
:100c0000722073746174757300000000424d4536a4
:100c100038380000626d653638385f696e69740077
:100c2000496e697420424d453638382073656e73bd
:100c30006f720000626d653638385f726561645f9f
:100c400074656d7000000000526561642074656d0c
:100c5000702066726f6d20424d45363838207365be
:100c60006e736f7200000000626d653638385f7217
:100c70006561645f70726573737572650000000072
:100c80005265616420707265737375726520667257
:100c90006f6d20424d453638382073656e736f7224
:100ca00000000000626d653638385f726561645f10
:100cb00068756d696469747900000000526561644b
:100cc0002068756d69646974792066726f6d202083
:100cd000424d453638382073656e736f72000000e0
:100ce000626d653638385f726561645f616c6c0097
:100cf000526561642070726573737572652f7465d7
:100d00006d702f68756d69646974792066726f6d96
:100d100020424d453638382073656e736f7200007f
:100d20005041433139333400706163313933345fba
:100d300072656164000000005265616420766f6c2a
:100d40007461676520616e642063757272656e748c
:100d50002066726f6d20616c6c20504143313933d5
:100d600034206368616e6e656c73000054455354a3
:100d7000000000006563686f000000004563686f55
:100d800020696e7075742074657874206261636b7d
:100d900020746f20636f6e736f6c653a20656368b3
:100da0006f203c746578743e000000005445430099
:100db0007465635f696e697400000000496e697450
:100dc00069616c697a652054454320636f6e747263
:100dd0006f6c6c657220636f6e66696775726174a3
:100de000696f6e73000000007465635f766f6c005e
:100df0005365742074617267657420766f6c7461da
:100e0000676520666f7220544543206d6f64756c72
:100e1000650000007465635f656e0000456e616289
:100e20006c65205445432068617264776172652067
:100e30006f757470757400007465635f7377656ea9
:100e400000000000546f67676c6520736f667477ed
:100e500061726520656e61626c6520666f722054f8
:100e6000454320636f6e74726f6c00007465635f3e
:100e7000726561645f7265670000000052656164bd
:100e8000207370656369666963207265676973744e
:100e900065722066726f6d2054454320636f6e74d7
:100ea000726f6c6c657200004c415345520000003b
:100eb0006c617365725f696e745f7365745f6461a2
:100ec00063000000536574204441432076616c75d3
:100ed0006520666f7220696e7465726e616c206c3d
:100ee0006173657220696e74656e73697479000050
:100ef0006c617365725f696e745f73775f6f6e00ac
:100f00005475726e204f4e20737065636966696315
:100f100020696e7465726e616c206c6173657220fd
:100f20006368616e6e656c006c617365725f696e9b
:100f3000745f73775f6f6666000000005475726eb1
:100f4000204f464620737065636966696320696e49
:100f50007465726e616c206c617365722063686188
:100f60006e6e656c000000006c617365725f696e87
:100f7000745f73775f6f66665f616c6c0000000082
:100f80005f5f5f006c617365725f696e745f63754c
:100f90007272656e74000000526561642063757240
:100fa00072656e74206d6f6e69746f722076616cfd
:100fb000756520666f7220696e7465726e616c2053
:100fc0006c6173657200000050484f544f00000080
:100fd00070686f746f5f73775f6f6e004e5443007d
:100fe0006e74635f72656164000000005265616445
:100ff0002074656d70657261747572652066726fbc
:101000006d207370656369666963204e54433a20ae
:101010006e74635f72656164203c696e6465783ede
:10102000000000006e74635f726561645f616c6ce8
:1010300000000000526561642074656d7065726126
:1010400074757265732066726f6d20616c6c204ed2
:1010500054432073656e736f727300006e74635f28
:10106000636865636b000000506572666f726d2087
:101070004e54432073656e736f722066756e637491
:10108000696f6e616c697479207465737400000017
:10109000525443007274635f726561640000000023
:1010a000526561642063757272656e742074696d37
:1010b0006520616e6420646174652066726f6d20c6
:1010c00052544320686172647761726500000000c9
:1010d0007274635f7365745f64617465000000001f
:1010e0005365742052544320646174653a207274cd
:1010f000635f7365745f64617465203c44443e20a3
:101100003c4d4d3e203c59593e203c57443e00004a
:101110007274635f7365745f74696d6500000000cd
:10112000536574205254432074696d653a2072747b
:10113000635f7365745f74696d65203c683e203c35
:101140006d3e203c733e00007274635f70696e6791
:101150000000000050696e6720525443206861729d
:10116000647761726520766961204932430000002e
:101170007274635f746573740000000052756e20b2
:10118000636f6d70726568656e7369766520525421
:10119000432068617264776172652074657374209e
:1011a0007375697465000000464c4f5700000000dd
:1011b000666c6f775f726561645f616c6c000000e4
:1011c0005265616420646174612066726f6d206194
:1011d0006c6c20666c6f772073656e736f72730032
:1011e00045585000646c735f73657475700000003f
:1011f000436f6e66696775726520657870657269a0
:101200006d656e742070726f66696c6520706172b6
:10121000616d657465727300646c735f7374617281
:1012200074000000537461727420746865207363e5
:10123000686564756c6564206578706572696d6554
:101240006e742073657175656e63650050554d5001
:101250000000000070756d705f656e61626c650006
:10126000456e61626c652070756d70206861726496
:10127000776172650000000070756d705f6469735e
:1012800061626c650000000044697361626c6520f6
:1012900070756d702068617264776172650000001e
:1012a00070756d705f696e6974000000496e6974d5
:1012b0002070756d702068617264776172650000de
:1012c00070756d705f7365745f766f6c740000008d
:1012d000536574206f7065726174696e6720766ff4
:1012e0006c7461676520666f722074686520707524
:1012f0006d70000070756d705f7365745f66726508
:1013000071000000536574206f7065726174696ebe
:1013100067206672657175656e637920666f7220ed
:101320007468652070756d700000000070756d70d8
:101330005f737461747573005265616420737461c6
:1013400074757320666f72207468652070756d7097
:101350000000000054454d500000000074656d70a1
:101360005f70726f66696c655f636667000000009e
:10137000446973706c61792073746f726564207452
:10138000656d70657261747572652070726f6669e3
:101390006c65732066726f6d206461746162617345
:1013a0006500000074656d705f70726f66696c65d2
:1013b0005f6366675f6d61696e5f6e7463000000f6
:1013c00074656d705f70726f66696c655f63666788
:1013d0005f7365635f6e74630000000074656d7019
:1013e0005f70726f66696c655f6366675f74656383
:1013f0000000000074656d705f70726f66696c65e7
:101400005f6366675f6865617465720074656d70bf
:101410005f70726f66696c655f6366675f73657442
:10142000706f696e7400000074656d705f70726f2c
:1014300066696c655f6366675f6d61696e5f736542
:10144000635f64656c74610074656d705f70726f6a
:1014500066696c655f6366675f7374657000000042
:1014600074656d705f70726f66696c655f636667e7
:101470005f7361766500000074656d705f70726ff8
:1014800066696c655f6366675f63616e63656c0068
:1014900074656d705f70726f66696c655f646973a7
:1014a0000000000074656d705f70726f66696c6536
:1014b0005f76616c0000000056616c696461746560
:1014c0002074656d70657261747572652070726fdd
:1014d00066696c65206461746120696e7465677209
:1014e0006974790074656d705f6175746f5f656ea6
:1014f00061000000456e61626c65206175746f6dfe
:10150000617469632074656d70657261747572656c
:1015100020636f6e74726f6c206d6f6465000000e5
:1015200074656d705f6175746f5f73746172740060
:10153000537461727420746865206175746f6d6195
:101540007469632074656d7065726174757265206d
:10155000636f6e74726f6c2070726f63657373006b
:1015600074656d705f6175746f5f7069645f7365da
:10157000740000005365742050494420636f6e73fb
:1015800074616e747320666f722074656d7065721d
:10159000617475726520636f6e74726f6c00000009
:1015a00074656d705f6175746f5f7069645f6765a6
:1015b000740000004765742063757272656e742054
:1015c00050494420636f6e7374616e747300000041
:1015d00074656d705f6d616e75000000537769749e
:1015e000636820746f206d616e75616c2074656d29
:1015f000706572617475726520636f6e74726f6c62
:10160000206d6f646500000063000000546f676721
:101610006c652074656d70657261747572652064a7
:10162000617461206c6f6767696e6720746f2063f7
:101630006f6e736f6c650000505352414d00000097
:10164000707372616d5f73775f6d6375000000008a
:1016500052656164206d616e756661637475726553
:101660007220616e64206465766963652049442058
:101670006f6620505352414d00000000707372613c
:101680006d5f73775f6d707500000000707372613d
:101690006d5f696400000000707372616d5f777246
:1016a00069746500707372616d5f726561640000da
:1016b0004c534d36000000006c736d36645f696eec
:1016c00069740000496e697469616c697a65204cbf
:1016d000534d3644534f5820494d552073656e7312
:1016e0006f7200006c736d36645f636f6e665f616e
:1016f0006363656c00000000436f6e666967757216
:101700006520416363656c65726f6d6574657220f9
:1017100073657474696e677320284f44522c20538c
:1017200063616c65290000006c736d36645f636fe4
:101730006e665f6779726f00436f6e666967757278
:1017400065204779726f73636f7065207365747479
:10175000696e677320284f44522c205363616c6577
:10176000290000006c736d36645f636f6e665f699d
:101770006e740000436f6e666967757265206861fc
:1017800072647761726520696e74657272757074c7
:101790002070696e7320666f7220494d55000000fd
:1017a0006c736d36645f636f6e665f666600000023
:1017b000436f6e66696775726520467265652d4672
:1017c000616c6c20646574656374696f6e20706110
:1017d00072616d6574657273000000006c736d3624
:1017e000645f636f6e665f7775000000436f6e66bf
:1017f00069677572652057616b652d557020657638
:10180000656e7420706172616d657465727300003d
:101810006c736d36645f6469735f696e7400000099
:1018200044697361626c6520616c6c20494d552080
:10183000686172647761726520696e746572727531
:10184000707473006c736d36645f636865636b00fe
:10185000436865636b20494d5520636f6e6e656309
:1018600074696f6e202857686f416d4920726567f3
:1018700069737465722900006c736d36645f7265fc
:1018800061645f616363656c0000000052656164c0
:101890002063757272656e7420416363656c657256
:1018a0006f6d657465722064617461006c736d3670
:1018b000645f726561645f6779726f00526561642d
:1018c0002063757272656e74204779726f73636fef
:1018d00070652064617461006c736d36645f72655d
:1018e00061645f74656d70005265616420494d5597
:1018f00020696e7465726e616c2074656d706572be
:1019000061747572650000006c736d36645f72659a
:1019100061645f616c6c00005265616420616c6c95
:1019200020494d552073656e736f72206461746138
:101930002028416363656c202b204779726f202b30
:101940002054656d702900006100000054657374b7
:1019500020636f6d6d616e642041000062000000c5
:101960005465737420636f6d6d616e642042000076
:10197000640000005465737420636f6d6d616e6464
:101980002043000072657365740000005065726644
:101990006f726d20612073797374656d20736f664b
:1019a0007477617265207265736574001b5b324adf
:1019b0001b5b480055736167653a207274635f73ff
:1019c0006574203c686f75723e203c6d696e75745d
:1019d000653e203c7365636f6e643e203c646179b4
:1019e0003e203c6d6f6e74683e203c796561723eae
:1019f00000000000496e76616c696420686f757242
:101a000020286d75737420626520302d3233292ea5
:101a100020506c6561736520656e74657220616726
:101a200061696e2e00000000496e76616c69642069
:101a30006d696e75746520286d75737420626520fc
:101a4000302d3539292e20506c6561736520656e07
:101a500074657220616761696e2e0000496e76615f
:101a60006c6964207365636f6e6420286d75737490
:101a700020626520302d3539292e20506c65617328
:101a80006520656e74657220616761696e2e000065
:101a9000496e76616c69642064617920286d757384
:101aa0007420626520312d3331292e20506c656100
:101ab000736520656e74657220616761696e2e00c2
:101ac000496e76616c6964206d6f6e746820286d54
:101ad00075737420626520312d3132292e20506caf
:101ae0006561736520656e74657220616761696efa
:101af0002e000000496e76616c6964207965617220
:101b000020286d75737420626520322064696769ce
:101b100074732c20652e672e2c20323520666f7250
:101b20002032303235292e20506c65617365206576
:101b30006e74657220616761696e2e002d2d3e20e6
:101b40005254432073657420746f20253032643af8
:101b5000253032643a253032642c20253032642f0f
:101b6000253032642f32302530326400000000000e
:101b700055736167653a207274635f676574203cd2
:101b8000686172647c736f66747c776f726b7c655e
:101b9000706f63687c616c6c3e0000006861726409
:101ba000000000002d2d3e204861726420525443f5
:101bb0003a20253032643a253032643a2530326496
:101bc0002c20253032642f253032642f25303464a8
:101bd00000000000736f6674000000002d2d3e2091
:101be000536f6674205254433a2054696d653a200d
:101bf000253032643a253032643a253032642c2064
:101c0000446174653a20253032642f253032642fc8
:101c10003230253032640000776f726b00000000b4
:101c20002d2d3e20576f726b696e67205570746959
:101c30006d653a2054696d653a20253032643a2545
:101c40003032643a253032642c20446179733a2072
:101c50002564000065706f63680000002d2d3e2034
:101c600045706f63683a20256c750000616c6c00ec
:101c7000556e6b6e6f776e206d6f64652e20557399
:101c8000653a207274635f676574203c68617264b2
:101c90007c736f66747c776f726b7c65706f636842
:101ca0007c616c6c3e00000055736167653a207280
:101cb00074635f73657465706f6368203c65706ff3
:101cc00063683e00496e76616c69642065706f637d
:101cd000682e204d757374206265203e3d20256c72
:101ce000750000004e756d626572206f662074612c
:101cf000736b732072756e6e696e673a20256c7512
:101d0000000000004e6f207461736b7320666f7566
:101d10006e64206f72206572726f72206f636375dc
:101d2000727265642e000000546f74616c205461ff
:101d3000736b733a20256c75000000005461736b5f
:101d4000204e616d6520202020202020202020535f
:101d50007461746520202020205072696f20205308
:101d60007461636b204c6566740000002d2d2d2d71
:101d70002d2d2d2d2d2d2d2d2d2d2d2d2d2d2d2d93
:101d80002d2d2d2d2d2d2d2d2d2d2d2d2d2d2d2d83
:101d90002d2d2d2d0000000052756e6e696e6700ae
:101da0005265616479000000426c6f636b6564008a
:101db00053757370656e640044656c65746564008a
:101dc000556e6b6e6f776e00252d31387320252d83
:101dd00031307320252d346c75202531306c750021
:101de000446d657367202d204c6f67676572204dc9
:101df0006573736167653a002d2d3e204f6c6465f5
:101e00007374203e3e0000002d2d3e204c61746511
:101e10007374203c3c0000004c6174657374202591
:101e20006c75204c6f67733a000000006175746f29
:101e3000636f6d706c6574653a204f4e0000000052
:101e40006175746f636f6d706c6574653a204f4691
:101e5000460000006f6e00006f6666005573616794
:101e6000653a206175746f636f6d706c6574652081
:101e70005b6f6e7c6f66665d000000005b424155e3
:101e8000445d205541525430202d3e20256c752054
:101e9000627073005b424155445d204641494c45a8
:101ea0004420666f7220256c7520627073000000fc
:101eb00055736167653a2063616e5f73656e642078
:101ec0003c69643e205b6578745d205b6230206213
:101ed00031202e2e2e2062375d000000202063610d
:101ee0006e5f73656e642030783130302030784119
:101ef0004120307842422020202020202028737466
:101f0000616e646172642900202063616e5f736595
:101f10006e64203078313233343520657874203067
:101f200078414120307842422028657874656e649b
:101f3000656429006578740048696e743a204944e4
:101f4000203e2030783746462c2061646420276587
:101f500078742720666f7220657874656e64656496
:101f6000206672616d650000202063616e5f73659d
:101f70006e64203078313233343520657874203007
:101f80007841410045585400535444002d2d3e20c3
:101f90005458204f4b205b25735d3a2049443d3017
:101fa00078256c5820444c433d2575002d2d3e204e
:101fb0005458204641494c45440000005573616720
:101fc000653a206373705f70696e67203c64657367
:101fd000745f616464723e205b74696d656f7574d3
:101fe0005f6d735d000000002d2d3e2050696e670f
:101ff000696e6720435350206e6f646520257520fd
:102000002874696d656f757420256c756d73292e44
:102010002e2e00002d2d3e205265706c79206672a8
:102020006f6d2025753a2074696d653d2564206dbe
:10203000730000002d2d3e204e6f207265706c796c
:102040002066726f6d202575202874696d656f7527
:102050007429000055736167653a206373705f737c
:10206000656e64203c616464723e203c706f7274e3
:102070003e203c646174613e000000004578616d63
:10208000706c653a206373705f73656e64203220f4
:1020900031302048656c6c6f000000002d2d3e2013
:1020a000436f6e6e656374696f6e206661696c65ff
:1020b000640000002d2d3e20427566666572206129
:1020c0006c6c6f63206661696c6564002d2d3e2029
:1020d00053656e64206661696c6564002d2d3e2039
:1020e00053656e7420257520627974657320746f52
:1020f0002025753a257500003d3d3d204353502075
:10210000496e666f203d3d3d0000000020204d7966
:1021100020416464726573733a20257500000000e5
:1021200020204672656520636c695f627566733a4c
:10213000202575002020496e7465726661636573a1
:102140003a0000002020526f757465207461626c43
:10215000653a00003d3d3d3d3d3d3d3d3d3d3d3d04
:102160003d3d3d3d000000005b25755d0000000029
:102170002020252d313373252d3673203d202575e4
:10218000000000002020252d313373252d367320cb
:102190003d20256c750000002020252d313373254e
:1021a0002d3673203d202564000000002020252dc1
:1021b000313373252d3673203d20256c64000000db
:1021c0002020252d313373252d3673203d20252edb
:1021d00034660000747275650000000066616c73ff
:1021e000650000002020252d313373252d36732006
:1021f0003d202573000000002020252d313373255c
:102200002d3673203d202225732200002020252d0d
:10221000313373252d3673203d2028747970652065
:1022200025752040203078253034582900000000e2
:1022300055736167653a20706172616d5f73686f95
:1022400077203c7461626c655f69643e0000000049
:102250002020303d426f6172642020313d5368651b
:102260006c6c2d74756e6e656c0000004572726f3b
:10227000723a207461626c655f6964206d75737475
:1022800020626520302d31003d3d3d205461626c5f
:10229000652025753a202573203d3d3d0000000056
:1022a00020202020526f77733a202575207c204d06
:1022b000656d3a202575206279746573207c204312
:1022c00052433a2030782530345800002d2d2d000f
:1022d0003d3d3d3d3d3d3d3d3d3d3d3d3d3d3d3d2e
:1022e0003d3d3d0055736167653a20706172616dd7
:1022f0005f736574203c7461626c655f69643e2045
:102300003c616464723e203c747970653e203c768a
:10231000616c75653e0000002020747970653a207c
:10232000753820753136207533322069382069318f
:1023300036206933322066333220626f6f6c20732f
:102340007472000020204578616d706c653a2070d1
:102350006172616d5f73657420302032372075388b
:102360002031310075380000753136007533320088
:102370006938000069313600693332006633320053
:10238000626f6f6c0000000073747200556e6b6eac
:102390006f776e207479706520272573272e20555e
:1023a00073653a20753820753136207533322069cf
:1023b0003820693136206933322066333220626f2b
:1023c0006f6c2073747200002d2d3e204f4b3a200d
:1023d0005425755b3078253034585d203d202573b9
:1023e00020282573290000002d2d3e204641494c10
:1023f0003a206572723d2564202861646472206f02
:102400007574206f662072616e67653f2900000059
:102410004c45445f4f4e00004c45445f4f464600dc
:10242000557361676520203a206865617465725f45
:10243000736574203c6368616e6e656c20312d326b
:102440003e203c6475747920302d3130303e0000e0
:102450004578616d706c653a206865617465725f7e
:102460007365742031203830000000004572726faf
:10247000723a204368616e6e656c206d75737420ce
:1024800062652061206e756d6265722028312d3283
:10249000290000004572726f723a204475747920e9
:1024a0006d7573742062652061206e756d62657252
:1024b0002028302d31303029000000004572726f25
:1024c000723a204368616e6e656c206f7574206f80
:1024d000662072616e67652028312d322900000068
:1024e0004572726f723a2044757479206f7574204a
:1024f0006f662072616e67652028302d313030257f
:10250000290000002d2d3e204f4b3a204865617474
:1025100065725b256c755d2044757479203d2025be
:052520006c752525008b
:020000040000fa
:020000040042b8
:102528003cc843201c0000000000000020004020a0
:10253800250800000400000000ff00ff00ff00ff66
:1025480000ff00ff00ff00ff002d00007fbd4320bb
:102558000100000000000000893a4320010000004b
:102568000000000015864320010000000000000064
:1025780084cd43206000000004000000000414a281
:102588000800011600030100070b0003020003ff07
:10259800010002090003030007090003040006ff05
:1025a8002000030500030f000304000306000704ce
:1025b8000003070007070003e4c9432010000000d8
:1025c8000000000068c9432010000000000000005f
:1025d800f4c94320080000000000000058c8432048
:1025e8001c0000000000000044c743202800000031
:1025f8000000000059904320010000000000000086
:10260800a8c943200c00000000000000fcc94320ba
:1026180020000000000000008cc6432030000000ad
:1026280000000000ecc64320580000000000000035
:10263800bcc7432020000000000000004cca432013
:102648000800000000000000bcc643203000000065
:10265800000000005a904320020000000000000023
:10266800d3cb43200100000000000000ccc543206c
:102678004000000000000000d4cb4320010000000f
:102688000000000050c143205c0000000000000072
:1026980048be4320a8000000000000006cc743208b
:1026a80028000000000000009cb74320d001000073
:1026b80000000000601843202812000000000000fd
:1026c8006cb9432014010000000000008c7e4320f8
:1026d8008907000000000000d5cb4320010000005e
:1026e8000000000054ca4320080000000000000059
:1026f8005cd0432018000000040000000002724271
:102708000ad7a33d0002803f0006c842cdcccc3d8d
:1027180074d0432018000000010000000000484267
:102728000ad7a33d9a99993f0000c8c2000000004b
:10273800cdcccc3d8cd04320180000000400000014
:10274800000272420ad7a33d9a99993f0006c842ef
:10275800cdcccc3da4d043201800000004000000dc
:1027680000024842cdcccc3d0002803f0006c84262
:10277800cdcccc3dbcd0432030000000010000008f
:1027880000004842cdcccc3d0000803f0000c8c2cc
:1027980000000000cdcccc3d0000c842cdcccc3de3
:1027a8000000803f0000c8c200000000cdcccc3d36
:1027b800d6cb4320010000000000000044ce432097
:1027c8005c0000000400000000040103800c6400a9
:1027d80001800ca00f3c0001010001a00fa00f32e6
:1027e8000003a00fb80b780001020001b80bb80b6a
:1027f8000034040001000000a0ce43205c0000006b
:10280800040000000006a00f0002f00aac0d3c0016
:1028180001010001ac0dac0d320003ac0df00a282b
:102828000001020001f00af00a003404000100006f
:102838003caf43206002000000000000dcc74320da
:1028480020000000000000005cca432008000000cf
:102858000000000024d3432004000000040000000e
:10286800000260000100000028d34320040000009b
:102878000400000000027000010000006008402011
:10288800008000000200000064ca43200400000029
:10289800000000009ab7432002000000000000007a
:1028a80068ca4320040000000000000046be432020
:1028b80002000000000000006cca4320180000005d
:1028c800000000005cd143200e000000040000005e
:1028d800170001e803d007e8036400010a00016457
:1028e8000001000074c843201c0000000000000024
:1028f80084ca43200400000000000000d7cb432016
:10290800020000000000000088ca43200400000004
:102918000000000054c9432012000000000000001d
:102928005cac4320e0020000000000008cca432099
:1029380004000000000000002cd343200400000025
:1029480001000000640000008c56432000080000cd
:1029580000000000acc143205c0000000000000043
:1029680080ba43200001000000000000d9cb4320ba
:1029780001000000000000005c90432000040000fb
:102988000000000008c243205c00000000000000b6
:1029980090ca4320040000000000000080bb4320d0
:1029a800000100000000000094ca43200c00000051
:1029b80000000000dacb4320010000000000000006
:1029c800a0ca43200c0000000000000030d34320c0
:1029d8000400000001000000efbeadde90bf432000
:1029e8008000000000000000dbcb43200100000055
:1029f8000000000004d14320140000000100000082
:102a08002869430030694300406943004c6943002a
:102a180058694300dccb432002000000000000009e
:102a280064c243205c0000000000000088cf4320ff
:102a38002000000001000000707542007875420017
:102a48008c7542009c754200ac754200bc75420012
:102a5800cc754200d875420064cf432024000000a2
:102a680001000000e4754200f0754200fc75420068
:102a78000c7642001c7642002876420034764200ea
:102a88003c76420048764200b4c943200c0000005e
:102a980000000000acca43200c0000000000000049
:102aa8002cd143201000000001000000448844009d
:102ab8005088440058884400608844004ec1432030
:102ac80002000000000000008c4a4320000c0000b7
:102ad800000000008c5e4320000800000000000099
:102ae800b8ca43200400000000000000bcca43200c
:102af8000400000000000000decb432001000000bd
:102b080000000000dfcb43200100000000000000af
:102b1800c0ca43200c0000000000000090c84320f9
:102b28001c0000000000000034d343201c000000fb
:102b380001000000c4734300c8734300cc73430012
:102b4800d0734300d4734300d8734300dc7343004d
:102b58009cb143200002000000000000188c4320b4
:102b68004104000000000000f0cc43209200000067
:102b780004000000434d2d455850000a430007014a
:102b88000100010c372c382c3132000a31322f3534
:102b9800204c4f4f502c20302f302043414e004eb8
:102ba800e803000480bd4320c600000000000000c8
:102bb8008c6643200008000000000000ccca4320b7
:102bc8000400000000000000882a432001100000d3
:102bd80000000000d0ca43200400000000000000ec
:102be800e0cb43200100000000000000d4ca4320cd
:102bf8000800000000000000e1cb432001000000b5
:102c080000000000188643200006000000000000b5
:102c1800c0c243205c00000000000000dcca432062
:102c280004000000000000008cc443205000000095
:102c3800000000000cc64320400000000000000017
:102c4800e0ca432008000000000000009cb54320b3
:102c5800fe0100000000000080bc4320ff000000cf
:102c680000000000ecc043206200000000000000eb
:102c78008c3a4320001000000000000094c7432055
:102c88002800000000000000e8ca432008000000f7
:102c980000000000e2cb432002000000000000001a
:102ca8003ccf43202800000001000000d4d243207c
:102cb8007600000000000000000000000000000096
:102cc80000000000000000000000000000000000fc
:102cd80000000000bcd243200800000004000000ef
:102ce80001000700c4d243200800000004000000cf
:102cf80002000700ccd243200800000004000000b6
:102d0800020007001cca4320080000000000000061
:102d1800d4d243200800000004000000010007008e
:102d2800dcd2432008000000040000000200070075
:102d38003cd14320100000000100000038d243209d
:102d4800c4d243200000000000000000e4d2432069
:102d58000800000001000000ccd2432020d243200c
:102d68006cd143200c0000000100000003000000ab
:102d7800070000000100000078d143200c0000008b
:102d880004000000010003160007000084d143205e
:102d98000c0000000400000003000301000700000d
:102da80090d143200c000000010000000400000046
:102db8000c000000010000009cd143200c00000022
:102dc800040000000400070100030000a8d143200c
:102dd8001800000001000000010000000f000000c2
:102de80001000000010000001200000001000000c6
:102df800c0d143200c0000000400000004000304bc
:102e080000070000ccd143200c00000004000000a3
:102e18000400030200070000d8d143200c00000082
:102e2800040000000400030600070000e4d143206a
:102e38000c0000000400000001000305000700006a
:102e4800f0d143200c000000010000000300000046
:102e58001200000001000000fcd143200c0000001b
:102e6800040000000100031e0007000008d24320f0
:102e78000c00000001000000030000001400000026
:102e88000100000014d243200c00000004000000e0
:102e98000400030d0007000020d243200c000000ae
:102ea8000100000004000000130000000100000001
:102eb8002cd243200c000000040000000300031182
:102ec8000007000038d243200c0000000100000079
:102ed800030000001c0000000100000044d2432051
:102ee8000c000000040000000300030900070000b4
:102ef80050d243200c00000004000000050003012c
:102f0800000700005cd243200c0000000400000011
:102f1800010003080007000068d243200c000000ed
:102f280004000000040003090007000074d24320d5
:102f38000c000000040000000400030a0007000061
:102f480080d243200c00000004000000030003139b
:102f5800000700008cd243200c0000000100000094
:102f6800020000000d0000000100000098d243207c
:102f78000c00000004000000050003050007000025
:102f8800a4d243200c000000040000000500070143
:102f98000003000078c94320100000000000000072
:102fa80008d043201c0000000100000000000000c1
:102fb80000000000000000006cd143200300000066
:102fc8000000000000000000ecd0432018000000c2
:102fd80001000000000000000000000000000000e8
:102fe80078d1432084d1432000000000acc843209e
:102ff8001c00000000000000c0c9432018000000a9
:1030080000000000f0ca4320040000000000000097
:10301800ecd243200800000001000000d4d2432075
:103028006b0000004cd1432010000000010000009c
:103038001cca43201f0000000a0000000000000016
:1030480024d043201c00000001000000bcd2432013
:10305800000000000000000090d1432003000000a1
:10306800000000000000000018d1432014000000f8
:1030780001000000bcd243209cd14320a8d14320aa
:10308800b4d1432000000000f4d24320080000001f
:1030980001000000dcd2432078000000b0d24320b9
:1030a8000c00000001000000d4d2432056000000ac
:1030b8000000000024ca43200800000000000000af
:1030c800fcd2432010000000010000008cd24320f5
:1030d800a4d2432080d2432098d24320a8cf4320b3
:1030e8004000000001000000ccd24320f0d1432072
:1030f80000000000fcd14320000000000000000098
:103108000000000000000000ccd2432008d2432079
:103118000000000014d2432000000000000000005e
:1031280000000000000000000cd34320080000004d
:1031380001000000a8cf4320c8cf43201bd3432061
:103148000100000001000000ff000000e4cb432064
:1031580001000000000000001cc343205c000000c8
:1031680000000000f4ca4320040000000000000032
:103178005c94432000080000000000008c6e43208f
:103188000010000000000000f0cb43200001000008
:1031980001000000001a0e400000000000000000be
:1031a8000000000000000000000000000000000017
:1031b8000000000000000000000000000000000007
:1031c80000000000000000000000000000000000f7
:1031d80000000000000000000000000000000000e7
:1031e80000000000000000000000000000000000d7
:1031f80000000000000000005c9443205c9843201d
:1032080000040000000400000000000000000000ae
:103218000000000000080e40000000000000000050
:103228000000000000000000000000000000000096
:103238000000000000000000000000000000000086
:103248000000000000000000000000000000000076
:103258000000000000000000000000000000000066
:103268000000000000000000000000000000000056
:1032780000000000000000008c6e43208c76432084
:103288000008000000080000000000000000000026
:1032980000000000d0cb4320030000000000000025
:1032a800f8ca4320040000000000000088c9432039
:1032b800200000000000000066c943200200000052
:1032c80000000000f0be4320a00000000000000045
:1032d800fcc743202000000000000000e5cb43208d
:1032e8000200000000000000fcca432004000000a7
:1032f800000000008a3a432002000000000000009d
:10330800e7cb4320010000000000000016864320a0
:103318000200000000000000e8cb4320020000008b
:103328000000000050d34320040000000200aaaab5
:10333800eacb4320010000000000000000cb43203e
:103348000400000000000000608840200090010098
:10335800000000002cca4320080000000000000004
:1033680004cb432014000000000000004cc643209a
:10337800400000000000000018cb432004000000bb
:103388000000000088c04320640000000000000026
:10339800c8c8432028000000000000001ccb4320c0
:1033a8000800000000000000f0c8432028000000ca
:1033b8000000000024cb43200400000000000000af
:1033c80018c94320140000000000000028cb432047
:1033d8002c0000000000000078c343205c000000bf
:1033e800000000009cb34320000200000000000021
:1033f800d4c343205c000000000000005c9c432014
:1034080000040000000000002cc943202800000030
:103418000000000054cb432014000000000000000e
:10342800dcc44320a00000000000000068cb43205b
:103438000c000000000000005ca043200004000015
:103448000000000030c443205c00000000000000c1
:1034580074cb43200c0000000000000010c0432083
:103468007800000000000000fcce4320400000006f
:10347800010000002071450000000000000000006d
:1034880029154500000000000000000000000000b1
:103498000000000000000000000000000000000024
:1034a8000000000000000000000000000000000014
:1034b8000000000080cb4320040000000000000052
:1034c80054d343201c000000010000000400000049
:1034d80010270000e803000001000000fa000000c7
:1034e800020000000100000084cb4320100000000f
:1034f80000000000ebcb43200100000000000000aa
:1035080094cb43200400000000000000eccb4320d3
:10351800010000000000000098cb432004000000d8
:103528000000000014d34320070000000100000041
:1035380001010000000000009ccb432004000000b3
:10354800000000001cc8432020000000000000000c
:10355800a0cb4320080000000000000070d34320e7
:103568000400000001000000c16845006018422006
:10357800000001000000000034ca432008000000d9
:1035880000000000a8cb43200c0000000000000051
:103598005ca44320000800000000000040d0432045
:1035a8001c000000010000000000000001000000f5
:1035b80000000000000000005ca4432000000000a0
:1035c8005ca843201cd34320060000000100000033
:1035d80001010000000000003cca43200800000070
:1035e80000000000b4cb43200800000000000000e9
:1035f800edcb43200100000000000000bccb4320bd
:10360800080000000000000074d3432004000000fc
:103618000100000001000000c4cb432004000000aa
:10362800000000007cc5432050000000000000009e
:10363800c8cb43200800000000000000e8cf43206a
:10364800200000000100000001000000030000004d
:103658000000000000000000000000000000000062
:103668000000000044ca432044ca43200800000068
:1036780000000000e4cd43206000000001000000cd
:10368800010000000300000000000000000000002e
:103698000000000000000000000000001de34400de
:1036a8000000000000000000000000000571450057
:1036b800cd1f4500000000000000000000000000d1
:1036c80000000000000000000000000000000000f2
:1036d80000000000000000000000000000000000e2
:1036e800d8c943200c0000000000000000000000c2
:1036f80000000000666666666666666666666666fa
:020000040000fa
:020000040042b8
:103708005244502025703a204e6f207370616365d3
:1037180020666f722052445020686561646572208b
:1037280028636d70290000005244502025703a200b
:1037380053656e6420434d5020532025753a2073fd
:10374800796e2025752c2061636b2025752c2065ea
:1037580061636b2025752c207273742025752c20cd
:103768007365715f6e72202535752c2061636b5f00
:103778006e72202535752c207061636b65745f6ce3
:10378800656e202575202825752900005244502093
:1037980025703a20494e54455246414345204552ea
:1037a800524f523a206e6f7420706f737369626c57
:1037b8006520746f2073656e6400000052445020c9
:1037c80025703a2043616e6e6f742064657175656b
:1037d80075652066726f6d2072785f7175657565a5
:1037e80020696e2071756575652064656c697665fc
:1037f800720000005244502025703a2041646465ec
:1038080064204541434b206e72202575000000005e
:103818005244502025703a20436f6e6e2052582033
:103828006275666665722066756c6c00524450203d
:1038380025703a2052582051756575652064656c6d
:1038480069766572206d61746368696e6720456c7e
:10385800656d656e742c20736571202575000000f8
:103868005244502025703a2044656c697665722070
:1038780073657120257500005244502025703a2048
:1038880043616e6e6f742064657175657565206639
:10389800726f6d2072785f717565756520696e202d
:1038a800717565756520657869737473000000002b
:1038b8005244502025703a2052582051756575653c
:1038c80020657869737473206d61746368696e67c5
:1038d80020456c656d656e742c20736571202575a7
:1038e800000000005244502025703a205765206897
:1038f8006176652061206d617463680052445020d0
:1039080025703a2043616e6e6f7420646571756529
:1039180075652066726f6d2074785f717565756561
:1039280020696e20666c757368204541434b000022
:103938005244502025703a204541434b20636f6d17
:103948007061726520656c656d656e742c20746994
:103958006d6520256c752c20736571202575000018
:103968005244502025703a20545820456c656d65a6
:103978006e74202575206672656564005244502077
:1039880025703a204e756c6c20706f696e74657284
:103998002070617373656420746f20726470206690
:1039a8006c75736820616c6c0000000052445020f4
:1039b80025703a20466c75736820545820456c650c
:1039c8006d656e742c2074696d6520256c752c20ce
:1039d80073657120257500005244502025703a20e7
:1039e800466c75736820525820456c656d656e7419
:1039f8002c2074696d6520256c752c2073657120e9
:103a0800257500005244502025703a20466f756e87
:103a1800642061206c6f737420636f6e6e656374cd
:103a2800696f6e20286e6f773a20256c752c20748c
:103a3800733a20256c752c20746f3a20256c7529f3
:103a48002c20636c6f73696e67000000524450202d
:103a580025703a2043616e6e6f74206465717565d8
:103a680075652066726f6d2074785f717565756510
:103a780020696e20636865636b2074696d656f7576
:103a8800740000005244502025703a2054582045b4
:103a98006c656d656e7420467265652c2074696d61
:103aa8006520256c752c207365712025752c207573
:103ab8006e612025750000005244502025703a2080
:103ac800545820456c656d656e742074696d656425
:103ad800206f75742c2072657472616e736d6974d1
:103ae80074696e67207365712025750052445020f3
:103af80025703a2052657472616e736d69737369cb
:103b08006f6e206661696c65640000005244502045
:103b180025703a2057616b65205478207461736b67
:103b28002028636865636b2074696d656f757473ad
:103b3800290000005244502025703a2052656365e0
:103b48006976656420696e20532025753a2073795b
:103b58006e2025752c2061636b2025752c206561ee
:103b6800636b2025752c207273742025752c2073a7
:103b780065715f6e72202535752c2061636b5f6ef1
:103b880072202535752c207061636b65745f6c65d8
:103b98006e202575202825752900000052445020e4
:103ba80025703a20525354207265636569766564be
:103bb80020696e20434c4f534544202d2069676e81
:103bc8006f726564000000005244502025703a204e
:103bd80052535420726563656976656420696e2066
:103be800434c4f53455f574149542c2061636b3a0e
:103bf800202564202d20636c6f73696e67000000b8
:103c08005244502025703a20526563656976656490
:103c18002052535420696e2073657175656e636513
:103c28002c206e6f206d6f7265206461746120694d
:103c38006e636f6d696e672c207265706c79207782
:103c480069746820525354005244502025703a2019
:103c5800525354206f7574206f66207365717565b3
:103c68006e63652c206b65657020636f6e6e65638f
:103c780074696f6e206f70656e00000052445020aa
:103c880025703a204e6f742053594e207265636533
:103c98006976656420696e20434c4f534544207310
:103ca800746174652e2044697363617264696e6718
:103cb800207061636b6574005244502025703a206f
:103cc80053594e2d5265636569766564000000009e
:103cd8005244502025703a2077696e646f772073bc
:103ce800697a6520256c752c20636f6e6e20746967
:103cf8006d656f757420256c752c207061636b651c
:103d0800742074696d656f757420256c752c20643a
:103d1800656c617965642061636b733a20256c7505
:103d28002c2061636b2074696d656f757420256c38
:103d3800752c2061636b206561636820256c752094
:103d48007061636b657400005244502025703a20fe
:103d58004e503a20436f6e6e656374696f6e204fe4
:103d680050454e005244502025703a2057616b65eb
:103d7800205478207461736b202861636b290000dc
:103d88005244502025703a2048616c662d6f70654a
:103d98006e20636f6e6e656374696f6e20666f75f3
:103da8006e642c2073656e642052535420616e64d7
:103db8002077616b65205478207461736b00000074
:103dc8005244502025703a20496e76616c6964200f
:103dd8007265706c7920746f2053594e207265712a
:103de80075657374000000005244502025703a2015
:103df800496e76616c69642053594e206f72206e4b
:103e08006f2041434b2c20726573657474696e672b
:103e1800210000005244502025703a2049676e6ff7
:103e280072696e67206475706c696361746520538c
:103e3800594e207061636b65742100005244502014
:103e480025703a20496e76616c69642073657175d6
:103e5800656e6365206e756d62657221202575201b
:103e68006e6f74206265747765656e2025752061b4
:103e78006e6420256c7500005244502025703a204d
:103e8800496e76616c69642041434b206e756d62a2
:103e9800657221202575206e6f74206265747765c0
:103ea800656e20256c7520616e6420257500000004
:103eb8005244502025703a2053594e2d52435644af
:103ec8003a2057726f6e672041434b206e756d62c2
:103ed800657200005244502025703a204e433a2023
:103ee800436f6e6e656374696f6e204f50454e0068
:103ef8005244502025703a204552524f5220736f39
:103f0800636b65742063616e6e6f742061636365b3
:103f18007074206d6f726520636f6e6e656374696f
:103f28006f6e73005244502025703a204475706caf
:103f380069636174652073657175656e6365206e6c
:103f4800756d6265720000005244502025703a2059
:103f5800496e76616c69642053594e206f72206ee9
:103f68006f2041434b20696e20434c4f53452d57da
:103f7800414954005244502025703a204552524f2e
:103f8800522064656661756c742073746174652170
:103f9800000000005244502025703a2041637469a3
:103fa800766520636f6e6e6563742c20636f6e6e2a
:103fb80020737461746520257500000052445020f8
:103fc80025703a20436f6e6e656374696f6e206169
:103fd8006c7265616479206f70656e005244502080
:103fe80025703a2041433a2053656e64696e672014
:103ff80053594e005244502025703a2041433a20ec
:1040080057616974696e6720666f722053594e2f25
:1040180041434b207265706c792e2e2e00000000f3
:104028005244502025703a2041433a20436f6e6e27
:10403800656374696f6e204f50454e00524450209e
:1040480025703a2048616c662d6f70656e20636f2d
:104058006e6e656374696f6e2064657465637465fc
:10406800642c205253542073656e742c206e6f7725
:10407800207265747279696e67000000524450209e
:1040880025703a20436f6e6e656374696f6e207396
:1040980074617965642068616c662d6f70656e2c3b
:1040a800206576656e2061667465722052535420cf
:1040b800616e642072657472792100005244502048
:1040c80025703a2041433a20436f6e6e65637469e8
:1040d8006f6e204661696c65640000005244502090
:1040e80025703a204552524f522063616e6e6f74ac
:1040f8002073656e642c20636f6e6e656374696fe0
:104108006e206e6f74206f70656e202825642900fc
:104118005244502025703a2057616974696e6720af
:10412800666f722077696e646f772075706461744a
:1041380065206265666f72652073656e64696e6777
:1041480020736571202575005244502025703a204f
:1041580054696d656f757420647572696e67207334
:10416800656e64005244502025703a204552524fe3
:10417800522063616e6e6f742073656e642c2063c9
:104188006f6e6e656374696f6e206e6f74206f70ea
:10419800656e2028256429202d3e2072657365747c
:1041a800000000005244502025703a204e6f2073c2
:1041b8007061636520666f722052445020686561a3
:1041c800646572202873656e64290000524450208b
:1041d80025703a204661696c656420746f20616cb3
:1041e8006c6f63617465207061636b6574206275c0
:1041f80066666572000000005244502025703a201f
:104208004e6f206d6f726520737061636520696ef3
:10421800205244502072657472616e736d69742007
:1042280071756575650000005244502025703a206c
:1042380053656e64696e672020696e20532025756a
:104248003a2073796e2025752c2061636b202575c3
:104258002c206561636b2025752c207273742025d2
:10426800752c207365715f6e72202535752c206161
:10427800636b5f6e72202535752c207061636b65ea
:10428800745f6c656e20257520282575290000004f
:104298005244502025703a204372656174696e67f4
:1042a8002052445020717565756573005244502042
:1042b80025703a204661696c656420746f20696ec8
:1042c800697469616c697a652073656d6170686f7e
:1042d800726500005244502025703a204661696c8e
:1042e800656420746f20637265617465205458207a
:1042f800717565756520666f7220636f6e6e00005c
:104308005244502025703a204661696c65642074d7
:104318006f206372656174652052582071756575e8
:104328006520666f7220636f6e6e00002c207365c7
:104338006e74205253540000000000005244502074
:1043480025703a206373705f7264705f636c6f737b
:10435800652830782578292573202d3e20434c4f39
:1043680053455f57414954002075736572737061f6
:10437800636500002070726f746f636f6c000000db
:104388002074696d656f75740000000052445020f8
:1043980025703a206373705f7264705f636c6f732b
:1043a800652830782578292c2077616974696e67cb
:1043b80020666f723a257325732573005244502086
:1043c80025703a206373705f7264705f636c6f73fb
:1043d80065283078257829202d3e20434c4f5345b9
:1043e80044000000095244503a20533a25642028da
:1043f800636c6f7365642062792030782578292c86
:10440800207263762025752c20736e642025752c08
:0b4418002077696e20256c750d0a00ee
:020000040000fa
:020000040042b8
:10442400446f20796f752077616e7420746f2063f8
:104434006f6e74696e75653f2028592f4e290d0ad9
:10444400000000000d0a537461727420676574746f
:10445400696e672070726f66696c652e2e2e0d0a68
:1044640000000000207c202d3e2070726f66696c75
:104474006520696e6465783a200000000d0a207c8e
:10448400204e6f7465733a20303d4e5443312031d1
:104494003d4e544332202e2e2e20373d4e54433869
:1044a400000000000d0a207c202d3e206d61696e05
:1044b400206e74633a2000000d0a207c202d3e20db
:1044c400736563206e74633a200000000d0a207c3b
:1044d400204e6f7465733a2065673a307830312026
:1044e4006d65616e207465633120697320656e614a
:1044f400000000000d0a207c202d3e2074656320fe
:104504006d61736b3a2000000d0a207c204e6f749d
:1045140065733a2065673a30783130206d65616e95
:10452400206865617465723520697320656e610069
:104534000d0a207c202d3e20686561746572206d13
:1045440061736b3a200000000d0a207c202d3e2070
:10455400736574706f696e742028302e30312a436d
:10456400293a20000d0a207c202d3e206d61696ec1
:104574002d7365632064656c74612028302e30319e
:104584002a43293a200000000d0a207c202d3e20d9
:104594007374657020636f756e743a2000000000b8
:1045a4000d0a207c20496e76616c69642073746501
:1045b4007020636f756e743a200000000d0a207c31
:1045c400204e6f7465733a20466f726d61743a20a1
:1045d400737461727428302e30312a432920737425
:1045e4006f7028302e30312a43292064757261742b
:1045f400696f6e287329206d6f64655b303d534f7e
:10460400414b20313d4845415420323d434f4f4cae
:104614005d0000000d0a207c202d3e20737465701f
:104624005b305d3a20000000256420256420256469
:10463400202564000d0a207c20496e76616c696433
:1046440020666f726d617421205573653a2073740e
:1046540061727420736574206475726174696f6e1d
:10466400206d6f64650000000d0a207c202d3e2023
:10467400737465705b000000256400005d3a2000df
:104684000d0a207c202d3e20737465705b25645dcb
:104694003a2000000d0a20536176653f2028592fe7
:1046a4004e293a20000000003d3e205573616765a5
:1046b4003a2074656d705f70726f66696c655f63d4
:1046c4006667203c70726f66696c655f696e6465cd
:1046d400783a302d373e0000526561647920736565
:1046e4007474696e6720666f722070726f66696c8d
:1046f400655b25645d0000003d3e20436f6e746978
:104704006e7565207769746820636d643a207465fa
:104714006d705f70726f66696c655f6366675f6d0d
:1047240061696e5f6e7463003d3e2043616e636534
:104734006c207769746820636d643a2074656d70c9
:104744005f70726f66696c655f6366675f63616ef5
:1047540063656c003d3e2055736167653a2074655e
:104764006d705f70726f66696c655f6366675f6dbd
:1047740061696e5f6e7463203c6e74635f696e641e
:1047840065783a302d373e003d3e20436f6e7469a4
:104794006e7565207769746820636d643a2074656a
:1047a4006d705f70726f66696c655f6366675f7377
:1047b40065635f6e746300003d3e205573616765f9
:1047c4003a2074656d705f70726f66696c655f63c3
:1047d40066675f7365635f6e7463203c6e74635fca
:1047e400696e6465783a302d373e00003d3e2043c3
:1047f4006f6e74696e7565207769746820636d6483
:104804003a2074656d705f70726f66696c655f6382
:1048140066675f74656300003d3e2055736167659c
:104824003a2074656d705f70726f66696c655f6362
:1048340066675f746563203c544543313a302855bc
:104844004e555345292f3128555345293e203c3e8a
:10485400203c3e203c544543343e00003d3e204332
:104864006f6e74696e7565207769746820636d6412
:104874003a2074656d705f70726f66696c655f6312
:1048840066675f6865617465720000003d3e20558f
:10489400736167653a2074656d705f70726f6669e5
:1048a4006c655f6366675f686561746572203c4828
:1048b4004541544552313a3028554e555345292fd8
:1048c4003128555345293e203c3e203c3e203c3e69
:1048d400203c3e203c3e203c3e203c484541544543
:1048e40052383e003d3e20436f6e74696e756520fc
:1048f4007769746820636d643a2074656d705f70c5
:10490400726f66696c655f6366675f736574706f09
:10491400696e74203c736574706f696e7428756e6b
:1049240069743a206d696c6c692d6465677265659c
:104934002043656c73697573293e00003d3e205524
:10494400736167653a2074656d705f70726f666934
:104954006c655f6366675f736574706f696e7420fe
:104964003c736574706f696e74733e003d3e204302
:104974006f6e74696e7565207769746820636d6401
:104984003a2074656d705f70726f66696c655f6301
:1049940066675f6d61696e5f7365635f64656c74a0
:1049a40061203c64656c746128756e69743a206d8d
:1049b400696c6c692d6465677265652043656c7309
:1049c400697573293e0000003d3e2055736167659b
:1049d4003a2074656d705f70726f66696c655f63b1
:1049e40066675f6d61696e5f7365635f64656c7450
:1049f40061203c6d61696e5f7365635f64656c74af
:104a0400613e00003d3e20436f6e74696e75652003
:104a14007769746820636d643a2074656d705f70a3
:104a2400726f66696c655f6366675f737465702037
:104a34003c737465705f696e6465783e203c737482
:104a44006172745f74656d703e203c73746f705f47
:104a540074656d703e203c6475726174696f6e3e5e
:104a6400000000003d3e2055736167653a2074657f
:104a74006d705f70726f66696c655f6366675f73a4
:104a8400746570203c737465705f696e6465783a10
:104a9400302d31303e203c73746172745f74656de7
:104aa400703e203c73746f705f74656d703e203c83
:104ab4006475726174696f6e28756e69743a2073d7
:104ac40065636f6e6473293e000000003d3e204123
:104ad400646420616e6f74686572207374657020fd
:104ae4007769746820636d643a2074656d705f70d3
:104af400726f66696c655f6366675f737465702067
:104b04003c737465705f696e6465783e203c7374b1
:104b14006172745f74656d703e203c73746f705f76
:104b240074656d703e203c6475726174696f6e28a3
:104b3400756e69743a207365636f6e6473293e0001
:104b44003d3e20536176652070726f66696c652006
:104b54007769746820636d643a2074656d705f7062
:104b6400726f66696c655f6366675f736176650023
:104b74003d3e2050726f66696c655b5b25645d2009
:104b840073617665207375636365737366756c0012
:104b94003d3e2054656d7065726174757265207058
:104ba400726f66696c6520636f6e666967757261a2
:104bb40074696f6e2063616e63656c6c656400007c
:104bc4003d3e2055736167653a2074656d705f7072
:104bd400726f66696c655f646973706c6179203c9f
:104be400696e6465783e00003d3e205573616765db
:104bf4003a2074656d705f6175746f5f656e6120d6
:104c04003c696e6465783e00496e76616c69642027
:104c1400696e6465780000005175657565206e6f76
:104c24007420696e697400004175746f206d6f643f
:104c34006520656e61626c65640000005175657580
:104c4400652066756c6c00003d3e20557361676598
:104c54003a2074656d705f6175746f5f737461720f
:104c640074203c696e6465783e0000005374617280
:104c740074204f4b000000003d3e20557361676572
:104c84003a2074656d705f6175746f5f73746f70d3
:104c9400203c696e6465783e0000000053746f70b8
:104ca400204f4b003d3e2055736167653a20746583
:104cb4006d705f7069645f736574203c73746174b4
:104cc400653e203c6b503e203c6b493e203c6b448f
:104cd4003e0000005b4552524f525d20496e7661a2
:104ce4006c69642073746174650000005b4e4f54fa
:104cf40045535d207374617465203d2031203a2052
:104d040053544154455f505245484541545f4845ca
:104d1400415400005b4e4f5445535d2073746174dd
:104d240065203d2032203a2053544154455f50526f
:104d340045484541545f434f4f4c00005b4e4f5430
:104d440045535d207374617465203d2033203a20ff
:104d540053544154455f48454154494e470000006f
:104d64005b4e4f5445535d207374617465203d2040
:104d740034203a2053544154455f534f414b5f48cc
:104d8400454154005b4e4f5445535d207374617428
:104d940065203d2035203a2053544154455f534ffc
:104da400414b5f434f4f4c005b4e4f5445535d2086
:104db4007374617465203d2036203a205354415465
:104dc400455f434f4f4c494e470000005b455252ec
:104dd4004f525d204d697373696e67206b500000fc
:104de4005b4552524f525d204d697373696e672063
:104df4006b4900005b4552524f525d204d697373fd
:104e0400696e67206b4400005b4552524f525d202f
:104e1400504944206d757374206265203e3d2030f6
:104e2400000000005b4f4b5d2053746174652025c6
:104e34006420504944207365743a204b703d252efc
:104e44003366204b693d252e3366204b643d252e69
:104e5400336600003d3e2055736167653a207465f2
:104e64006d705f7069645f676574203c737461740e
:104e7400653e00005b4552524f525d204e6f2050fc
:104e8400494420636f6e66696720666f7220746898
:104e94006973207374617465000000005374617455
:104ea40065202564205049443a204b703d252e331b
:104eb40066204b693d252e3366204b643d252e33f9
:024ec400660086
:020000040000fa
:020000040042b8
:024ec600fee705
:020000040000fa
:020000040042b8
:104ec8002c04420034044200380442000000000070
:104ed80000000000c99642002c044200640442000d
:104ee8006c044200000000000000000089ad420090
:104ef8002c044200a0044200a40442000000000068
:104f080000000000593a45002c044200c804420041
:104f1800d80442000100000000000000e96a4400d3
:104f28000805420010054200180542000100000073
:104f380000000000b13d4300080542004c05420056
:104f4800540542000100000000000000a5d6420000
:104f5800080542008805420094054200010000004f
:104f6800000000000d314400c8054200d005420091
:104f7800d80542000000000000000000bd114300f9
:104f8800c80542000c064200140642000100000059
:104f980000000000b9964400c805420040064200df
:104fa8004806420000000000000000008d6b44002d
:104fb800740642007c0642008c0642000000000095
:104fc800000000007142440074064200bc06420022
:104fd800c806420000000000000000008985430068
:104fe800fc064200000742000c07420001000000d6
:104ff80000000000d5564300400742004407420025
:10500800500742000100000000000000bd234400da
:105018004007420084074200900742000100000058
:10502800000000008d97430040074200c40742007b
:10503800d00742000000000000000000b18a4400d0
:10504800040842000c084200180842000100000051
:105058000000000039b1430004084200580842002b
:1050680064084200010000000000000065a2420040
:10507800ac084200b0084200b80842000100000035
:105088000000000025294500ac084200dc08420069
:10509800e808420001000000000000005d2945000a
:1050a8000c094200100942001c09420000000000df
:1050b800000000009d2345000c0942004009420001
:1050c80048094200010000000000000031a543002b
:1050d800680942006c09420078094200010000009a
:1050e80000000000b9b44300ac094200b409420012
:1050f800c40942000000000000000000893a450091
:10510800ac094200ec094200fc0942000000000022
:105118000000000091524500ac094200240a4200f8
:10512800340a420000000000000000000955440055
:10513800ac094200540a4200640a42000000000020
:1051480000000000b9514500ac094200840a420041
:10515800940a42000000000000000000dd514500f4
:10516800ac094200b40a4200c40a42000000000030
:105178000000000095294500ac094200e00a420001
:10518800f00a420000000000000000000152450043
:10519800ac094200100b4200240b42000000000042
:1051a8000000000025524500ac094200440b4200b3
:1051b800580b42000000000000000000cd29450007
:1051c800ac094200780b42008c0b42000000000042
:1051d8000000000049524500ac094200a80b4200fb
:1051e800bc0b420000000000000000006d524500aa
:1051f800ac094200dc0b4200f00b4200000000004a
:1052080000000000052a45000c0c4200140c420066
:10521800200c420000000000000000000def4400d8
:105228000c0c4200340c4200480c42000000000004
:1052380000000000c5d344000c0c4200680c42007a
:10524800800c4200000000000000000029d4440047
:105258000c0c4200a40c4200bc0c420000000000f0
:10526800000000008dd444000c0c4200e00c420009
:10527800f00c42000000000000000000014d440056
:10528800200d4200280d4200380d420000000000a9
:1052980000000000310e44006c0d4200740d420005
:1052a8007c0d420001000000000000000d7b44005e
:1052b800ac0d4200b00d4200bc0d420001000000e0
:1052c8000000000089094400ac0d4200e80d4200ce
:1052d800f00d420001000000000000001df4430032
:1052e800ac0d4200140e42001c0e420001000000ea
:1052f8000000000019824400ac0d4200380e420044
:10530800440e42000100000000000000ad8244008d
:10531800ac0d42006c0e42007c0e42000100000001
:1053280000000000b1e74300a80e4200b00e4200a2
:10533800c40e42000100000000000000656f440038
:10534800a80e4200f00e4200000f420001000000cb
:1053580000000000a57b4400a80e4200280f420070
:105368003c0f420001000000000000003d7c4400aa
:10537800a80e4200680f4200800f420001000000a2
:105388000000000061654500a80e4200840f42003d
:10539800980f4200010000000000000099534400eb
:1053a800c80f4200d00f4200800f420001000000e9
:1053b80000000000d1a54400dc0f4200e00f4200cd
:1053c800ec0f42000100000000000000590c4400ee
:1053d800dc0f42002410420034104200010000009b
:1053e80000000000dd314400dc0f42005c10420088
:1053f8006810420001000000000000008de4430036
:105408009010420094104200a010420001000000d9
:105418000000000051a5440090104200d010420046
:10542800e010420001000000000000007579430010
:1054380090104200101142002011420001000000ab
:1054480000000000c1cd4300901042004811420006
:10545800541142000100000000000000e92245004c
:1054680090104200701142007c11420001000000bf
:1054780000000000454c4400a8114200b011420051
:10548800c01142000100000000000000dd024400dd
:10549800e0114200e4114200f01142000100000056
:1054a8000000000049864200e01142001812420044
:1054b800241242000100000000000000f1d944005d
:1054c8004c124200541242006012420001000000d7
:1054d8000000000041e644004c12420078124200ed
:1054e80088124200010000000000000099e6440014
:1054f8004c124200a0124200ac124200010000000f
:1055080000000000b9ee44004c124200c0124200f4
:10551800d012420001000000000000008d15440078
:105528004c124200f4124200041342000100000031
:1055380000000000095a44004c1242002c1342009b
:105548003813420001000000000000003d804300c5
:10555800541342005c134200701342000100000023
:10556800000000004197440054134200a413420075
:1055780070134200010000000000000051da4400ee
:1055880054134200c013420070134200010000008f
:1055980000000000b1da440054134200dc1342005a
:1055a800701342000100000000000000f51a4400da
:1055b80054134200f413420070134200010000002b
:1055c80000000000b15e4300541342000c14420076
:1055d800701342000100000000000000ddb9440023
:1055e80054134200281442007013420001000000c6
:1055f80000000000fdb1440054134200481442006a
:10560800701342000100000000000000e1b54300f3
:10561800541342006014420070134200010000005d
:10562800000000004d1b450054134200781442004e
:105638007013420001000000000000009551450071
:1056480054134200901442007013420001000000fd
:1056580000000000c512450054134200a414420083
:10566800b814420001000000000000008f624500ed
:1056780054134200e4144200f414420001000000f4
:1056880000000000616444005413420020154200e9
:1056980030154200010000000000000009654400c8
:1056a80054134200601542007415420001000000c6
:1056b800000000006536430054134200a015420064
:1056c800b41542000100000000000000ddce4300d8
:1056d80054134200d0154200dc15420001000000be
:1056e80000000000b165440054134200081642004f
:1056f8000c164200010000000000000025234500b0
:1057080038164200401642005016420001000000c0
:105718000000000079654500381642007c164200fa
:10572800501642000100000000000000916545008d
:10573800381642008c164200501642000100000044
:1057480000000000515444003816420098164200e8
:10575800501642000100000000000000e913430059
:1057680038164200a41642005016420001000000fc
:105778000000000001b84200b0164200b81642000e
:10578800c416420001000000000000000913450093
:10579800b0164200e4164200f8164200010000006c
:1057a8000000000019f34300b01642002817420019
:1057b80038174200010000000000000099e543008e
:1057c800b01642006417420074174200010000003e
:1057d80000000000e9c54300b0164200a0174200cf
:1057e800b0174200010000000000000009b74300a4
:1057f800b0164200dc174200ec174200010000001e
:1058080000000000a5e64300b01642001018420050
:10581800201842000100000000000000c1424500bd
:10582800b01642004418420050184200010000001f
:105838000000000061234500b016420078184200bd
:105848008c184200010000000000000075b24400fe
:10585800b0164200ac184200bc184200010000001b
:1058680000000000edb24400b0164200d818420013
:10587800e8184200010000000000000085df440035
:10588800b016420008194200181942000100000031
:1058980000000000450d44000000000048194200c7
:1058a8004c1942000100000000000000319644003d
:1058b800000000005c19420060194200010000006d
:1058c80000000000e53944000000000070194200a3
:1058d800741942000100000000000000fdd24400dd
:1058e80000000000841942008c19420000000000ea
:0858f80000000000736e450082
:020000040000fa
:020000040042b8
:10590000f0b591b008aff860b9600023fb77b868d4
:105910002ff0ccfdb861bb69b3f803309bb21846d9
:1059200030f012fc03461a46bb69a3f80320bb699a
:10593000b3f801309bb2184630f006fc03461a4615
:10594000bb69a3f801200223fb75724b5b79002b26
:105950003ad0fa68fb681b7f9c46bb691b78c3f38f
:10596000c003dbb21946bb691b78c3f38003dbb20b
:105970001846bb691b78c3f34003dbb21c46bb6906
:105980001b78c3f30003dbb21d46bb69b3f80130db
:105990009bb21e46bb69b3f803309bb27b60bb6809
:1059a0005b893b60bb685b89053b07933b6806935b
:1059b0007b680593049603950294019000916346d9
:1059c000554905201df0fef9bb691b7803f0010362
:1059d000dbb2002b6dd0bb691b7803f00403dbb294
:1059e000002b07d0bb69b3f803309ab2fb680132d1
:1059f00092b21a84fb681b7f002b11d1454b5b7957
:105a0000002b05d0fb681a46444905201df0daf941
:105a1000fb681b69002b14bf01230023fb77bae34b
:105a2000fb681b7f042b0fd13a4b5b79002b00f0f6
:105a30007c83fa68bb691b78c3f38003dbb2384907
:105a400005201df0bff970e3bb69b3f801309bb2cc
:105a50001a46fb689b8c01339a421ed12d4b5b7911
:105a6000002b05d0fb681a462e4905201df0aaf927
:105a7000fb6804221a77fc6831f087fa03466361f9
:105a8000f868fb68db8b1a46fb689b8c0093134617
:105a90000a22002109f044ff52e31e4b5b79002be0
:105aa00000f06883fb681a461f4905201df08af93b
:105ab00060e3fb681b7f042b00f22c8301a252f8e9
:105ac00023f000bfd95a4200415c42004f5d4200c2
:105ad0004f5d420029604200bb691b7803f0080358
:105ae000dbb2002b24d10b4b5b79002b05d0fb687c
:105af0001a460e4905201df065f9f868fb68db8b36
:105b00001a46fb689b8c009313460822002109f07b
:105b100007ff15e314d343203c3b4200a43b420063
:105b2000d03b4200083c4200503c4200843c4200d2
:105b30009e4b5b79002b05d0fb681a469c490520db
:105b40001df040f930f0e0fe0246fb6892b25a8444
:105b5000fb685a8cfb68013292b2da83fa68fb6800
:105b6000528c1a84fb68ba69b2f8012092b29a8406
:105b7000fb68ba69b2f8012092b2da84fb68ba69ac
:105b8000b2f8012092b21a85bb681b69fc681846fe
:105b900030f066fe0346e362bb685b69fc6818464a
:105ba00030f05efe03462363bb689b69fc681846c1
:105bb00030f056fe03466363bb68db69fc68184639
:105bc00030f04efe0346a363bb681b6afc681846b0
:105bd00030f046fe0346e363bb685b6afc68184628
:105be00030f03efe03462364704b5b79002b17d0e8
:105bf000fd68fb68de6afb681b6bfa68526bf9682c
:105c0000896bf868c06bfc68246c04940390029163
:105c10000192009333462a46664905201df0d2f8ca
:105c2000fb6802221a77f868fb685b8c1a46fb68ef
:105c3000db8c009313460322002109f071feaae2d7
:105c4000bb691b7803f00803dbb2002b50d0bb69a3
:105c50001b7803f00403dbb2002b49d0fb68ba6960
