:020000040000fa
:020000040042b8
:10020000f0ff452061ab4400318245003782450054
:1002100043824500498245004f82450000000000ae
:10022000000000000000000000000000415d4500eb
:100230003d82450000000000e1de4400b1194500a8
:100240009f5042009f5042009f5042009f504200ea
:100250009f5042009f5042009f5042005da24400c8
:100260009f504200000000009f5042009f504200fb
:100270004158450045e243009f504200bdd1430034
:100280009f5042009f5042009f5042009f504200aa
:100290009f50420009c343009f5042009f504200bc
:1002a000d55245009f5042009f5042009f5042004f
:1002b0009f5042009f5042009f5042009f5042007a
:1002c0009f5042009f504200e98045009f504200ed
:1002d0009f5042002daf43009f5042009f5042006c
:1002e0009f5042009f5042009f504200454c4300a7
:1002f000d5a144009f5042009f5042009f504200b1
:100300009f5042009f504200052a4500452a450063
:10031000852a45009f5042000000000000000000b8
:100320009f5042009f504200fd2644009f504200d3
:100330009f5042009f504200000000009f5042002a
:100340009f5042009f5042009f5042009f504200e9
:100350009f5042009f5042009f5042009f504200d9
:080360009f5042009f50420033
:020000040000fa
:020000040042b8
:10036800f8b500bff8bc08bc9e467047e9284500b0
:10037800f8b500bff8bc08bc9e467047c5284500c4
:020000040000fa
:020000040042b8
:08038800deda000001000000b4
:020000040000fa
:020000040042b8
:10039000524547203d2030782530386c580d0a00f2
:1003a00052656164206661696c6564005245475b13
:1003b0003078253032585d203d2030782530386c3b
:1003c000580d0a4279746533202833313a32342982
:1003d000203d203078253032580d0a42797465323c
:1003e000202832333a313629203d203078253032ea
:1003f000580d0a4279746531202831353a38202960
:10040000203d203078253032580d0a42797465300d
:10041000202837203a302029203d203078253032de
:10042000580000004f4b4b4b4b000000556c74695b
:1004300073000000646576005072696e74206c6908
:100440007374206f6620646576656c6f7065722dbd
:10045000737065636966696320636f6d6d616e6457
:100460007300000068656c70000000005072696ed7
:1004700074206c697374206f6620616c6c206176e7
:1004800061696c61626c6520636f6d6d616e647330
:10049000205b4669726d776172653a20315d0000bc
:1004a000636c7300436c65617220746865207465c9
:1004b000726d696e616c20636f6e736f6c65206f17
:1004c00075747075740000006175746f636f6d7082
:1004d0006c65746500000000546f67676c6520618f
:1004e00075746f636f6d706c6574696f6e3a2061bf
:1004f00075746f636f6d706c657465205b6f6e7c77
:100500006f66665d0000000054696d6500000000c4
:100510007274635f73657400536574205254432092
:1005200074696d653a207274635f736574203c680a
:100530003e203c6d3e203c733e203c44443e203ceb
:100540004d4d3e203c59593e000000007274635fdf
:1005500067657400476574205254432074696d6563
:100560003a207274635f676574203c686172647cd2
:10057000736f66747c776f726b7c65706f63687c79
:10058000616c6c3e0000000065706f63685f7365ae
:1005900074000000536574205254432074696d65e3
:1005a000207573696e6720556e69782065706f637a
:1005b000683a207274635f73657465706f63682056
:1005c0003c65706f63683e0053797374656d00001d
:1005d0006f735f7374617400446973706c61792028
:1005e0004672656552544f53207461736b20737467
:1005f000617469737469637320616e6420737461dc
:10060000636b20757361676500000000646d65733e
:10061000670000005072696e742073797374656da1
:10062000206c6f67206275666665723a20646d653e
:100630007367205b4e206c696e65735d000000007f
:100640006261756400000000546f67676c65205537
:10065000415254303a203235306b3e3530306b3eab
:100660003932316b3e314d3e3131356b2d3e2e2ec0
:100670002e0000004652414d000000006672616d80
:100680005f77726974655f726561640052756e2090
:100690004652414d20686172647761726520696ecf
:1006a0007465677269747920746573742028577251
:1006b0006974652f5265616429000000626f6f7470
:1006c000696e666f000000005265616420626f6fa2
:1006d0007420696e666f2028636f756e74202b20fe
:1006e000636175736520686973746f727929206618
:1006f000726f6d204652414d0000000043414e0094
:1007000063616e5f73656e640000000053656e6424
:10071000207261772043414e206672616d653a20f8
:1007200063616e5f73656e64203c69643e205b6547
:1007300078745d205b62302062312e2e2e5d0000c9
:10074000435350006373705f70696e670000000070
:1007500053656e64204353502070696e673a20637e
:1007600073705f70696e67203c646573745f616469
:1007700064723e205b74696d656f75745f6d735d47
:10078000000000006373705f73656e64000000001a
:1007900053656e6420435350207061636b65743af7
:1007a000206373705f73656e64203c616464723ea5
:1007b000203c706f72743e203c646174612e2e2e5a
:1007c0003e0000006373705f696e666f000000009a
:1007d000446973706c61792063757272656e742000
:1007e00043535020696e746572666163652073744b
:1007f0006174757320616e642073746174697374bd
:1008000069637300506172616d0000007061726114
:100810006d5f73686f77000053686f7720616c6c51
:10082000206669656c647320696e20612070617256
:10083000616d65746572207461626c653a207061e7
:1008400072616d5f73686f77203c7461626c655f85
:10085000696420302d343e00706172616d5f736594
:1008600074000000557064617465206120706172cd
:10087000616d65746572206669656c643a207061ab
:1008800072616d5f736574203c7461626c655f6951
:10089000643e203c616464723e203c747970653e25
:1008a000203c76616c75653e000000004c454400bc
:1008b0006c65645f736574005475726e206f6e2092
:1008c00061207370656369666963204c45442069e3
:1008d0006e64696361746f72000000006c65645f30
:1008e00072657365740000005475726e206f6666e1
:1008f0002061207370656369666963204c454420fc
:10090000696e64696361746f72000000534f4c003c
:10091000736c6e5f68625f696e697400496e6974ba
:1009200069616c697a65204d41583232323030202d
:10093000536f6c656e6f69642044726976657200ee
:10094000736c6e5f63746c00436865636b204d412c
:1009500058323232303020536f6c656e6f696420cc
:100960004661756c74730000485452006865617488
:1009700065725f7365740000536574206865617407
:1009800065722064757479206379636c653a2068b8
:1009900065617465725f736574203c6368616e6e37
:1009a000656c3e203c647574793e0000504f57459d
:1009b00052000000706f7765725f616c6c5f6f6ee4
:1009c00000000000456e61626c6520616c6c2070f7
:1009d0006f776572207261696c732073696d756cd5
:1009e00074616e656f75736c79000000706f776568
:1009f000725f616c6c5f6f666600000044697361d2
:100a0000626c6520616c6c20706f7765722072611a
:100a1000696c732073696d756c74616e656f757345
:100a20006c790000706f7765725f616c6c5f6765f1
:100a30007400000047657420737461747573206fcf
:100a40006620616c6c20706f776572207261696cd2
:100a500073000000706f7765725f7465635f6f6e1f
:100a600000000000456e61626c6520706f776572f2
:100a700020746f2074686520544543206d6f647541
:100a80006c650000706f7765725f7465635f6f6699
:100a90006600000044697361626c6520706f776561
:100aa0007220746f2074686520544543206d6f6414
:100ab000756c6500706f7765725f7465635f6765fd
:100ac0007400000047657420544543206d6f6475c1
:100ad0006c6520706f776572207374617475730034
:100ae000706f7765725f736c6e5f68645f6f6e00c6
:100af000456e61626c6520706f77657220746f203f
:100b000048443420696e7465726661636500000054
:100b1000706f7765725f736c6e5f68645f6f666637
:100b20000000000044697361626c6520706f776536
:100b30007220746f2048443420696e746572666157
:100b400063650000706f7765725f736c6e5f6864d9
:100b50005f676574000000004765742048443420d6
:100b6000696e7465726661636520706f7765722067
:100b70007374617475730000706f7765725f6c7069
:100b80005f6865617465725f6f6e0000456e6162db
:100b90006c6520706f77657220746f2074686520b3
:100ba0004c50207261696c00706f7765725f6c7079
:100bb0005f6865617465725f6f6666004469736142
:100bc000626c6520706f77657220746f2074686541
:100bd000204c50207261696c00000000706f7765d6
:100be000725f6c705f6865617465725f67657400e1
:100bf000476574204c50207261696c20706f776576
:100c0000722073746174757300000000424d4536a4
:100c100038380000626d653638385f696e69740077
:100c2000496e697420424d453638382073656e73bd
:100c30006f720000626d653638385f726561645f9f
:100c400074656d7000000000526561642074656d0c
:100c5000702066726f6d20424d45363838207365be
:100c60006e736f7200000000626d653638385f7217
:100c70006561645f70726573737572650000000072
:100c80005265616420707265737375726520667257
:100c90006f6d20424d453638382073656e736f7224
:100ca00000000000626d653638385f726561645f10
:100cb00068756d696469747900000000526561644b
:100cc0002068756d69646974792066726f6d202083
:100cd000424d453638382073656e736f72000000e0
:100ce000626d653638385f726561645f616c6c0097
:100cf000526561642070726573737572652f7465d7
:100d00006d702f68756d69646974792066726f6d96
:100d100020424d453638382073656e736f7200007f
:100d20005041433139333400706163313933345fba
:100d300072656164000000005265616420766f6c2a
:100d40007461676520616e642063757272656e748c
:100d50002066726f6d20616c6c20504143313933d5
:100d600034206368616e6e656c73000054455354a3
:100d7000000000006563686f000000004563686f55
:100d800020696e7075742074657874206261636b7d
:100d900020746f20636f6e736f6c653a20656368b3
:100da0006f203c746578743e000000005445430099
:100db0007465635f696e697400000000496e697450
:100dc00069616c697a652054454320636f6e747263
:100dd0006f6c6c657220636f6e66696775726174a3
:100de000696f6e73000000007465635f766f6c005e
:100df0005365742074617267657420766f6c7461da
:100e0000676520666f7220544543206d6f64756c72
:100e1000650000007465635f656e0000456e616289
:100e20006c65205445432068617264776172652067
:100e30006f757470757400007465635f7377656ea9
:100e400000000000546f67676c6520736f667477ed
:100e500061726520656e61626c6520666f722054f8
:100e6000454320636f6e74726f6c00007465635f3e
:100e7000726561645f7265670000000052656164bd
:100e8000207370656369666963207265676973744e
:100e900065722066726f6d2054454320636f6e74d7
:100ea000726f6c6c657200004c415345520000003b
:100eb0006c617365725f696e745f7365745f6461a2
:100ec00063000000536574204441432076616c75d3
:100ed0006520666f7220696e7465726e616c206c3d
:100ee0006173657220696e74656e73697479000050
:100ef0006c617365725f696e745f73775f6f6e00ac
:100f00005475726e204f4e20737065636966696315
:100f100020696e7465726e616c206c6173657220fd
:100f20006368616e6e656c006c617365725f696e9b
:100f3000745f73775f6f6666000000005475726eb1
:100f4000204f464620737065636966696320696e49
:100f50007465726e616c206c617365722063686188
:100f60006e6e656c000000006c617365725f696e87
:100f7000745f73775f6f66665f616c6c0000000082
:100f80005f5f5f006c617365725f696e745f63754c
:100f90007272656e74000000526561642063757240
:100fa00072656e74206d6f6e69746f722076616cfd
:100fb000756520666f7220696e7465726e616c2053
:100fc0006c617365720000006c617365725f6578b7
:100fd000745f7365745f646163000000536574201f
:100fe0004441432076616c756520666f7220657898
:100ff0007465726e616c206c6173657220696e74c9
:10100000656e7369747900006c617365725f6578f1
:10101000745f73775f6f6e005475726e204f4e2051
:1010200073706563696669632065787465726e6163
:101030006c206c61736572206368616e6e656c0014
:101040006c617365725f6578745f73775f6f6666f6
:10105000000000005475726e204f46462073706584
:1010600063696669632065787465726e616c206c73
:1010700061736572206368616e6e656c00000000cc
:1010800050484f544f00000070686f746f5f737763
:101090005f6f6e004e5443006e74635f72656164ef
:1010a00000000000526561642074656d70657261b6
:1010b000747572652066726f6d2073706563696602
:1010c0006963204e54433a206e74635f72656164b5
:1010d000203c696e6465783e000000006e74635fba
:1010e000726561645f616c6c000000005265616450
:1010f0002074656d706572617475726573206672b7
:101100006f6d20616c6c204e54432073656e736f5d
:10111000727300006e74635f636865636b00000048
:10112000506572666f726d204e54432073656e7306
:101130006f722066756e6374696f6e616c69747925
:101140002074657374000000525443007274635f2e
:10115000726561640000000052656164206375720d
:1011600072656e742074696d6520616e64206461bf
:1011700074652066726f6d205254432068617264fa
:1011800077617265000000007274635f7365745f5d
:10119000646174650000000053657420525443205c
:1011a000646174653a207274635f7365745f64612f
:1011b0007465203c44443e203c4d4d3e203c5959f2
:1011c0003e203c57443e00007274635f7365745f59
:1011d00074696d650000000053657420525443200b
:1011e00074696d653a207274635f7365745f7469c6
:1011f0006d65203c683e203c6d3e203c733e000007
:101200007274635f70696e670000000050696e67fa
:101210002052544320686172647761726520766958
:1012200061204932430000007274635f7465737417
:101230000000000052756e20636f6d707265686506
:101240006e736976652052544320686172647761d9
:10125000726520746573742073756974650000008d
:10126000464c4f5700000000666c6f775f696e69ef
:1012700074000000526561642064617461206672cc
:101280006f6d20616c6c20666c6f772073656e7378
:101290006f727300666c6f775f726561645f616c1b
:1012a0006c00000045585000646c735f7365747582
:1012b00070000000436f6e6669677572652065781f
:1012c000706572696d656e742070726f66696c65a9
:1012d00020706172616d657465727300646c735f18
:1012e00073746172740000005374617274207468c6
:1012f00065207363686564756c65642065787065e6
:1013000072696d656e742073657175656e636500d5
:1013100050554d500000000070756d705f656e6136
:10132000626c6500456e61626c652070756d702041
:1013300068617264776172650000000070756d709d
:101340005f64697361626c650000000044697361e9
:10135000626c652070756d7020686172647761726f
:101360006500000070756d705f696e697400000043
:10137000496e69742070756d702068617264776160
:101380007265000070756d705f7365745f766f6c69
:1013900074000000536574206f7065726174696e2b
:1013a0006720766f6c7461676520666f7220746861
:1013b000652070756d70000070756d705f73657479
:1013c0005f66726571000000536574206f7065720e
:1013d0006174696e67206672657175656e637920e8
:1013e000666f72207468652070756d700000000073
:1013f00070756d705f7374617475730052656164ac
:101400002073746174757320666f72207468652030
:1014100070756d700000000054454d5000000000d4
:1014200074656d705f70726f66696c655f63666727
:1014300000000000446973706c61792073746f72ee
:1014400065642074656d7065726174757265207075
:10145000726f66696c65732066726f6d206461746b
:10146000616261736500000074656d705f70726f1a
:1014700066696c655f6366675f6d61696e5f6e74f8
:101480006300000074656d705f70726f66696c65f3
:101490005f6366675f7365635f6e7463000000007f
:1014a00074656d705f70726f66696c655f636667a7
:1014b0005f7465630000000074656d705f70726f2b
:1014c00066696c655f6366675f6865617465720015
:1014d00074656d705f70726f66696c655f63666777
:1014e0005f736574706f696e7400000074656d7071
:1014f0005f70726f66696c655f6366675f6d616977
:101500006e5f7365635f64656c74610074656d70b4
:101510005f70726f66696c655f6366675f73746541
:101520007000000074656d705f70726f66696c6545
:101530005f6366675f7361766500000074656d7058
:101540005f70726f66696c655f6366675f63616e2b
:1015500063656c0074656d705f70726f66696c6551
:101560005f6469730000000074656d705f70726f76
:1015700066696c655f76616c0000000056616c699d
:10158000646174652074656d7065726174757265ef
:101590002070726f66696c65206461746120696e89
:1015a000746567726974790074656d705f617574d4
:1015b0006f5f656e61000000456e61626c65206161
:1015c00075746f6d617469632074656d70657261a7
:1015d0007475726520636f6e74726f6c206d6f64ca
:1015e0006500000074656d705f6175746f5f737482
:1015f000617274005374617274207468652061753f
:10160000746f6d617469632074656d706572617467
:1016100075726520636f6e74726f6c2070726f6389
:101620006573730074656d705f6175746f5f706969
:10163000645f736574000000536574205049442052
:10164000636f6e7374616e747320666f722074655d
:101650006d706572617475726520636f6e74726f00
:101660006c00000074656d705f6175746f5f706908
:10167000645f67657400000047657420637572726b
:10168000656e742050494420636f6e7374616e748c
:101690007300000074656d705f6d616e7500000011
:1016a00053776974636820746f206d616e75616c27
:1016b0002074656d706572617475726520636f6efc
:1016c00074726f6c206d6f64650000006300000031
:1016d000546f67676c652074656d706572617475b1
:1016e00072652064617461206c6f6767696e672042
:1016f000746f20636f6e736f6c65000050535241be
:101700004d000000707372616d5f73775f6d63757c
:101710000000000052656164206d616e7566616352
:10172000747572657220616e6420646576696365a4
:10173000204944206f6620505352414d0000000064
:10174000707372616d5f73775f6d7075000000007c
:10175000707372616d5f6964000000007073726184
:101760006d5f777269746500707372616d5f726529
:10177000616400004c534d36000000006c736d3600
:10178000645f696e69740000496e697469616c69af
:101790007a65204c534d3644534f5820494d5520bf
:1017a00073656e736f7200006c736d36645f636f88
:1017b0006e665f616363656c00000000436f6e6678
:1017c000696775726520416363656c65726f6d65ed
:1017d0007465722073657474696e677320284f4452
:1017e000522c205363616c65290000006c736d36c8
:1017f000645f636f6e665f6779726f00436f6e66da
:101800006967757265204779726f73636f706520c1
:1018100073657474696e677320284f44522c20538b
:1018200063616c65290000006c736d36645f636fe3
:101830006e665f696e740000436f6e6669677572ed
:101840006520686172647761726520696e74657283
:10185000727570742070696e7320666f7220494dc6
:10186000550000006c736d36645f636f6e665f6673
:1018700066000000436f6e66696775726520467288
:1018800065652d46616c6c20646574656374696f71
:101890006e20706172616d65746572730000000086
:1018a0006c736d36645f636f6e665f777500000002
:1018b000436f6e6669677572652057616b652d555c
:1018c00070206576656e7420706172616d657465f7
:1018d000727300006c736d36645f6469735f696e68
:1018e0007400000044697361626c6520616c6c2057
:1018f000494d5520686172647761726520696e7424
:1019000065727275707473006c736d36645f6368b2
:1019100065636b00436865636b20494d5520636fb9
:101920006e6e656374696f6e202857686f416d49ec
:101930002072656769737465722900006c736d3677
:10194000645f726561645f616363656c00000000e1
:10195000526561642063757272656e7420416363c1
:10196000656c65726f6d6574657220646174610089
:101970006c736d36645f726561645f6779726f0066
:10198000526561642063757272656e742047797266
:101990006f73636f70652064617461006c736d3682
:1019a000645f726561645f74656d70005265616447
:1019b00020494d5520696e7465726e616c207465a6
:1019c0006d70657261747572650000006c736d36c0
:1019d000645f726561645f616c6c00005265616494
:1019e00020616c6c20494d552073656e736f7220b9
:1019f000646174612028416363656c202b20477902
:101a0000726f202b2054656d70290000610000006a
:101a10005465737420636f6d6d616e6420410000c6
:101a2000620000005465737420636f6d6d616e64b5
:101a300020420000640000005465737420636f6de1
:101a40006d616e6420430000726573657400000070
:101a5000506572666f726d20612073797374656d65
:101a600020736f66747761726520726573657400a8
:101a70001b5b324a1b5b480055736167653a2072f5
:101a800074635f736574203c686f75723e203c6db3
:101a9000696e7574653e203c7365636f6e643e20ad
:101aa0003c6461793e203c6d6f6e74683e203c79e9
:101ab0006561723e00000000496e76616c696420c9
:101ac000686f757220286d75737420626520302de3
:101ad0003233292e20506c6561736520656e746504
:101ae0007220616761696e2e00000000496e7661a8
:101af0006c6964206d696e75746520286d757374ea
:101b000020626520302d3539292e20506c65617397
:101b10006520656e74657220616761696e2e0000d4
:101b2000496e76616c6964207365636f6e6420280a
:101b30006d75737420626520302d3539292e205043
:101b40006c6561736520656e74657220616761699b
:101b50006e2e0000496e76616c69642064617920a4
:101b6000286d75737420626520312d3331292e2044
:101b7000506c6561736520656e7465722061676184
:101b8000696e2e00496e76616c6964206d6f6e74ab
:101b90006820286d75737420626520312d313229db
:101ba0002e20506c6561736520656e7465722061ce
:101bb0006761696e2e000000496e76616c69642071
:101bc0007965617220286d757374206265203220fa
:101bd0006469676974732c20652e672e2c2032355a
:101be00020666f722032303235292e20506c6561ac
:101bf000736520656e74657220616761696e2e0081
:101c00002d2d3e205254432073657420746f20257f
:101c10003032643a253032643a253032642c202543
:101c20003032642f253032642f3230253032640058
:101c30000000000055736167653a207274635f6746
:101c40006574203c686172647c736f66747c776f26
:101c5000726b7c65706f63687c616c6c3e00000029
:101c600068617264000000002d2d3e20486172649e
:101c7000205254433a20253032643a253032643ab7
:101c8000253032642c20253032642f253032642fe9
:101c90002530346400000000736f6674000000009b
:101ca0002d2d3e20536f6674205254433a205469c0
:101cb0006d653a20253032643a253032643a253059
:101cc00032642c20446174653a20253032642f251b
:101cd0003032642f3230253032640000776f726bff
:101ce000000000002d2d3e20576f726b696e67203b
:101cf000557074696d653a2054696d653a202530d8
:101d000032643a253032643a253032642c20446102
:101d100079733a202564000065706f6368000000e5
:101d20002d2d3e2045706f63683a20256c750000ac
:101d3000616c6c00556e6b6e6f776e206d6f6465b5
:101d40002e205573653a207274635f676574203c7a
:101d5000686172647c736f66747c776f726b7c658c
:101d6000706f63687c616c6c3e0000005573616746
:101d7000653a207274635f73657465706f63682081
:101d80003c65706f63683e00496e76616c696420e3
:101d900065706f63682e204d757374206265203ef8
:101da0003d20256c750000004e756d626572206fd8
:101db00066207461736b732072756e6e696e673a1c
:101dc00020256c75000000004e6f207461736b73ea
:101dd00020666f756e64206f72206572726f72205c
:101de0006f636375727265642e000000546f7461d6
:101df0006c205461736b733a20256c7500000000f1
:101e00005461736b204e616d6520202020202020be
:101e10002020205374617465202020202050726996
:101e20006f2020537461636b204c65667400000062
:101e30002d2d2d2d2d2d2d2d2d2d2d2d2d2d2d2dd2
:101e40002d2d2d2d2d2d2d2d2d2d2d2d2d2d2d2dc2
:101e50002d2d2d2d2d2d2d2d0000000052756e6e77
:101e6000696e67005265616479000000426c6f63bf
:101e70006b65640053757370656e640044656c65d2
:101e800074656400556e6b6e6f776e00252d31386a
:101e90007320252d31307320252d346c752025318c
:101ea000306c7500446d657367202d204c6f67673b
:101eb0006572204d6573736167653a002d2d3e2074
:101ec0004f6c64657374203e3e0000002d2d3e2053
:101ed0004c6174657374203c3c0000004c61746577
:101ee000737420256c75204c6f67733a00000000f6
:101ef0006175746f636f6d706c6574653a204f4ed9
:101f0000000000006175746f636f6d706c657465bf
:101f10003a204f46460000006f6e00006f66660074
:101f200055736167653a206175746f636f6d706c8e
:101f3000657465205b6f6e7c6f66665d00000000f7
:101f40005b424155445d205541525430202d3e2086
:101f5000256c7520627073005b424155445d2046dc
:101f600041494c454420666f7220256c7520627093
:101f70007300000055736167653a2063616e5f739b
:101f8000656e64203c69643e205b6578745d205b0f
:101f90006230206231202e2e2e2062375d0000003c
:101fa000202063616e5f73656e642030783130305d
:101fb00020307841412030784242202020202020cb
:101fc00020287374616e646172642900202063614b
:101fd0006e5f73656e64203078313233343520653e
:101fe000787420307841412030784242202865784a
:101ff00074656e64656429006578740048696e7460
:102000003a204944203e2030783746462c206164ef
:102010006420276578742720666f72206578746560
:102020006e646564206672616d65000020206361e6
:102030006e5f73656e6420307831323334352065dd
:10204000787420307841410045585400535444007e
:102050002d2d3e205458204f4b205b25735d3a2098
:1020600049443d3078256c5820444c433d2575004b
:102070002d2d3e205458204641494c454400000037
:1020800055736167653a206373705f70696e67208e
:102090003c646573745f616464723e205b74696d57
:1020a000656f75745f6d735d000000002d2d3e201f
:1020b00050696e67696e6720435350206e6f646588
:1020c000202575202874696d656f757420256c75e1
:1020d0006d73292e2e2e00002d2d3e205265706c22
:1020e000792066726f6d2025753a2074696d653da3
:1020f0002564206d730000002d2d3e204e6f207250
:1021000065706c792066726f6d2025752028746962
:102110006d656f757429000055736167653a2063ba
:1021200073705f73656e64203c616464723e203c32
:10213000706f72743e203c646174613e0000000068
:102140004578616d706c653a206373705f73656e7e
:102150006420322031302048656c6c6f0000000034
:102160002d2d3e20436f6e6e656374696f6e206621
:1021700061696c65640000002d2d3e204275666625
:10218000657220616c6c6f63206661696c656400c8
:102190002d2d3e2053656e64206661696c65640078
:1021a0002d2d3e2053656e7420257520627974654f
:1021b0007320746f2025753a257500003d3d3d2044
:1021c00043535020496e666f203d3d3d00000000a6
:1021d00020204d7920416464726573733a2025751f
:1021e0000000000020204672656520636c695f6214
:1021f0007566733a202575002020496e74657266f5
:10220000616365733a0000002020526f7574652089
:102210007461626c653a00003d3d3d3d3d3d3d3d94
:102220003d3d3d3d3d3d3d3d000000005b25755d74
:10223000000000002020252d313373252d3673201a
:102240003d202575000000002020252d3133732509
:102250002d3673203d20256c750000002020252d93
:10226000313373252d3673203d2025640000000096
:102270002020252d313373252d3673203d20256cec
:10228000640000002020252d313373252d36732066
:102290003d20252e34660000747275650000000034
:1022a00066616c73650000002020252d3133732595
:1022b0002d3673203d202573000000002020252da1
:1022c000313373252d3673203d20222573220000e3
:1022d0002020252d313373252d3673203d20287481
:1022e00079706520257520402030782530345829b4
:1022f0000000000055736167653a20706172616d7e
:102300005f73686f77203c7461626c655f69643edf
:10231000000000002020303d426f617264202031b7
:102320003d5368656c6c2d74756e6e656c20203441
:102330003d54656c656d6574727900004572726f0d
:10234000723a207461626c655f6964206d757374a4
:1023500020626520302c2031206f72203400000074
:102360003d3d3d205461626c652025753a20257302
:10237000203d3d3d0000000020202020526f77735b
:102380003a202575207c204d656d3a202575206208
:1023900079746573207c204352433a20307825308d
:1023a000345800002d2d2d003d3d3d3d3d3d3d3d32
:1023b0003d3d3d3d3d3d3d3d3d3d3d0055736167ee
:1023c000653a20706172616d5f736574203c746161
:1023d000626c655f69643e203c616464723e203ccf
:1023e000747970653e203c76616c75653e00000036
:1023f0002020747970653a20753820753136207543
:10240000333220693820693136206933322066330f
:102410003220626f6f6c2073747200002020457848
:10242000616d706c653a20706172616d5f73657487
:1024300020302032372075382031310075380000c7
:102440007531360075333200693800006931360065
:102450006933320066333200626f6f6c0000000037
:1024600073747200556e6b6e6f776e207479706541
:1024700020272573272e205573653a20753820753f
:10248000313620753332206938206931362069337e
:10249000322066333220626f6f6c207374720000da
:1024a0002d2d3e204f4b3a205425755b307825303a
:1024b00034585d203d202573202825732900000015
:1024c0002d2d3e204641494c3a206572723d2564cf
:1024d000202861646472206f7574206f66207261b9
:1024e0006e67653f290000004c45445f4f4e000079
:1024f0004c45445f4f464600557361676520203a5e
:10250000206865617465725f736574203c636861ff
:102510006e6e656c20312d323e203c6475747920de
:10252000302d3130303e00004578616d706c653a79
:10253000206865617465725f73657420312038307e
:10254000000000004572726f723a204368616e6e3f
:10255000656c206d7573742062652061206e756de9
:102560006265722028312d32290000004572726f99
:10257000723a2044757479206d75737420626520f9
:1025800061206e756d6265722028302d31303029e2
:10259000000000004572726f723a204368616e6eef
:1025a000656c206f7574206f662072616e676520a0
:1025b00028312d32290000004572726f723a204492
:1025c000757479206f7574206f662072616e67650f
:1025d0002028302d31303025290000002d2d3e20bf
:1025e0004f4b3a204865617465725b256c755d20c0
:0d25f00044757479203d20256c752525006b
:020000040000fa
:020000040042b8
:1026000078c943201c00000000000000200040208a
:10261000250800000400000000ff00ff00ff00ff8d
:1026200000ff00ff00ff00ff002d000023bf43203c
:102630000100000000000000893a43200100000072
:10264000000000001586432001000000000000008b
:10265000c0ce43206000000004000000000414a26b
:102660000800011600030100070b0003020003ff2e
:10267000010002090003030007090003040006ff2c
:102680002000030500030f000304000306000704f5
:102690000003070007070003d4ca43200c00000012
:1026a000000000001ccb43201000000000000000d0
:1026b000a4ca432010000000000000002ccb4320df
:1026c000080000000000000094c943201c00000026
:1026d0000000000080c84320280000000000000027
:1026e000599043200100000000000000e0ca432090
:1026f0000c0000000000000034cb4320200000004c
:1027000000000000c8c743203000000000000000a7
:1027100028c843205800000000000000f8c84320eb
:10272000200000000000000084cb432008000000cf
:1027300000000000f8c74320300000000000000047
:102740005a9043200200000000000000c5c743204b
:102750000100000000000000c8c643204000000047
:1027600000000000c6c74320010000000000000078
:102770004cc243205c000000000000006cb9432004
:10278000a401000000000000a8c8432028000000a9
:10279000000000009cb74320d001000000000000b2
:1027a00060184320281200000000000010bb4320e6
:1027b00014010000000000008c7e43208907000007
:1027c00000000000c7c74320010000000000000017
:1027d0008ccb432004000000000000000fcd4320fc
:1027e000040000000000000090cb43200400000023
:1027f00000000000d8d143201800000004000000b1
:10280000000272420ad7a33d0002803f0006c84280
:10281000cdcccc3df0d143201800000001000000d9
:10282000000048420ad7a33d9a99993f0000c8c2c8
:1028300000000000cdcccc3d08d2432018000000a1
:1028400004000000000272420ad7a33d9a99993f02
:102850000006c842cdcccc3d20d243201800000059
:102860000400000000024842cdcccc3d0002803f75
:102870000006c842cdcccc3d38d243203000000009
:102880000100000000004842cdcccc3d0000803f5c
:102890000000c8c200000000cdcccc3d0000c84202
:1028a000cdcccc3d0000803f0000c8c2000000003d
:1028b000cdcccc3d13cd4320010000000000000032
:1028c00080cf43205c0000000400000000040103ee
:1028d000800c640001800ca00f3c0001010001a0ed
:1028e0000fa00f320003a00fb80b78000102000107
:1028f000b80bb80b0034040001000000dccf43200b
:102900005c000000040000000006a00f0002f00ab6
:10291000ac0d3c0001010001ac0dac0d320003ac6c
:102920000df00a280001020001f00af00a00340448
:10293000000100003caf43206002000000000000e6
:1029400018c94320200000000000000094cb432061
:10295000080000000000000004d143200400000033
:10296000040000000002600001000000e8d44320e1
:1029700004000000040000000002700001000000dc
:102980006008402000800000020000009ccb432033
:1029900004000000000000009ab74320020000007d
:1029a00000000000a0cb4320040000000000000055
:1029b000eabf43200200000000000000a4cb432037
:1029c0001800000000000000f0d243200e000000bc
:1029d00004000000170001e803d007e803640001c9
:1029e0000a00016400010000b0c943201c0000007f
:1029f00000000000bccb43200400000000000000e9
:102a000014cd43200200000000000000c0cb432092
:102a1000040000000000000090ca432012000000e3
:102a2000000000005cac4320e00200000000000059
:102a3000c4cb43200400000000000000ecd443207d
:102a40000400000001000000640000008c564320d8
:102a50000008000000000000a8c243205c00000045
:102a60000000000024bc4320000100000000000022
:102a700016cd432001000000000000005c904320c0
:102a8000000400000000000004c343205c000000bc
:102a900000000000c8cb432004000000000000003c
:102aa00024bd43200001000000000000cccb4320e7
:102ab0000c0000000000000017cd432001000000c2
:102ac00000000000d8cb43200c00000000000000f4
:102ad000f0d443200400000001000000efbeadde92
:102ae0008cc04320800000000000000018cd43206f
:102af000010000000000000098d2432014000000f4
:102b000001000000ac6b4300b46b4300c46b430096
:102b1000d06b4300dc6b430019cd43200200000062
:102b20000000000060c343205c00000000000000c3
:102b3000c4d043202000000001000000a87742001c
:102b4000b0774200c4774200d4774200e477420075
:102b5000f47742000478420010784200a0d043206d
:102b600024000000010000001c7842002878420088
:102b70003478420044784200547842006078420041
:102b80006c7842007478420080784200ecca43209e
:102b90000c00000000000000e4cb43200c0000000b
:102ba00000000000c0d2432010000000010000001f
:102bb0001496440020964400289644003096440021
:102bc0004ac2432002000000000000008c4a43205b
:102bd000000c0000000000008c5e43200008000094
:102be00000000000f0cb43200400000000000000c3
:102bf000f4cb432004000000000000001bcd432064
:102c000001000000000000001ccd43200100000076
:102c100000000000f8cb43200c0000000000000082
:102c2000ccc943201c00000000000000f4d4432065
:102c30001c00000001000000487643004c76430071
:102c40005076430054764300587643005c76430048
:102c5000607643009cb143200002000000000000a9
:102c6000188c432041040000000000002cce4320bb
:102c70009200000004000000434d2d455850000a0a
:102c8000430007010100010c372c382c3132000ab7
:102c900031322f35204c4f4f502c20302f302043d5
:102ca000414e004ee803000424bf4320c60000004c
:102cb0000000000088c743203d0000000000000025
:102cc0008c664320000800000000000004cc432074
:102cd0000400000000000000882a432001100000ca
:102ce0000000000008cc43200400000000000000a9
:102cf0001dcd432001000000000000000ccc43204b
:102d000008000000000000001ecd4320010000006c
:102d100000000000188643200006000000000000ac
:102d2000bcc343205c0000000000000014cc432022
:102d3000040000000000000088c54320500000008f
:102d40000000000008c74320400000000000000011
:102d500018cc432008000000000000009cb5432070
:102d6000fe0100000000000024be4320ff00000020
:102d700000000000e8c143206200000000000000e5
:102d80008c3a43200010000000000000d0c843200f
:102d9000280000000000000020cc432008000000b4
:102da000000000001fcd43200200000000000000d2
:102db00078d04320280000000100000098d4432070
:102dc000760000000000000000000000000000008d
:102dd00000000000000000000000000000000000f3
:102de0000000000080d44320080000000400000020
:102df0000100070088d44320080000000400000000
:102e00000200070090d443200800000004000000e6
:102e10000200070054cb432008000000000000001f
:102e200098d44320080000000400000001000700bf
:102e3000a0d44320080000000400000002000700a6
:102e400028cc43200400000000000000d0d2432022
:102e50001000000001000000f0d3432088d443207c
:102e60000000000000000000a8d44320080000007b
:102e70000100000090d44320d8d3432000d3432046
:102e80000c00000001000000010000001f00000015
:102e9000010000000cd343200c00000004000000df
:102ea000030003100007000018d34320180000009f
:102eb0000100000003000000070000000100000006
:102ec00001000000160000000100000030d3432084
:102ed0000c000000040000000300030100070000d4
:102ee0003cd3432018000000010000000100000056
:102ef0000700000001000000040000000c000000ba
:102f00000100000054d343200c0000000400000026
:102f1000040007010003000060d3432018000000f4
:102f200001000000010000000f000000010000008f
:102f300001000000120000000100000078d34320cf
:102f40000c0000000400000004000304000700005f
:102f500084d343200c00000004000000040003029e
:102f60000007000090d343200c0000000400000084
:102f700004000306000700009cd343200c0000005f
:102f8000040000000100030500070000a8d343204f
:102f90000c0000000100000003000000120000000f
:102fa00001000000b4d343200c0000000400000026
:102fb0000100031e00070000c0d343200c000000e6
:102fc00001000000030000001400000001000000e8
:102fd000ccd343200c000000040000000400030dcb
:102fe00000070000d8d343200c00000001000000bf
:102ff000040000001300000001000000e4d343209f
:103000000c00000004000000030003110007000092
:10301000f0d343200c00000001000000030000007a
:103020001c00000001000000fcd343200c00000045
:1030300004000000030003090007000008d4432037
:103040000c0000000400000004000317000700004b
:1030500014d443200c00000004000000050003010c
:103060000007000020d443200c00000004000000f2
:1030700001000308000700002cd443200c000000ce
:1030800004000000040003090007000038d44320b6
:103090000c000000040000000400030a0007000008
:1030a00044d443200c00000004000000030003137c
:1030b0000007000050d443200c0000000100000075
:1030c000020000000d000000010000005cd443205d
:1030d0000c000000040000000500030500070000cc
:1030e00068d443200c000000040000000500070124
:1030f00000030000e4d04320200000000100000095
:1031000054cb43200000000008d44320fcd34320cc
:1031100000000000000000000000000000000000af
:1031200010d5432004000000010000000a0b0c0d24
:1031300068d143201c0000000100000000000000d6
:1031400000000000000000003cd34320010000000c
:10315000000000000000000068d2432018000000ba
:10316000010000000000000000000000000000005e
:1031700000d343200cd343200000000084d143201f
:103180001c00000001000000000000000000000022
:103190000000000018d343200300000000000000de
:1031a0000000000080d24320180000000100000051
:1031b00000000000000000000000000024d34320b5
:1031c00030d3432000000000e8c943201c00000069
:1031d00000000000f8ca43201800000000000000b2
:1031e0002ccc43200400000000000000b0d4432099
:1031f000080000000100000098d443206b0000008c
:10320000e0d24320100000000100000054cb432016
:103210001f0000000a00000000000000a0d14320b1
:103220001c0000000100000080d4432000000000ca
:103230000000000048d3432003000000000000000d
:1032400000000000acd24320140000000100000088
:1032500080d4432054d3432060d343206cd34320f5
:1032600000000000b8d44320080000000100000066
:10327000a0d443207800000074d443200c00000048
:103280000100000098d44320560000000000000018
:103290005ccb43200800000000000000c0d44320a5
:1032a000100000000100000050d4432068d44320e7
:1032b00044d443205cd4432008d143204000000084
:1032c0000100000090d44320a8d343200000000058
:1032d000b4d3432000000000000000000000000004
:1032e0000000000090d44320c0d343200000000021
:1032f000ccd34320000000000000000000000000cc
:1033000000000000d0d443200800000001000000ad
:1033100008d1432028d143202bcd432001000000b9
:1033200001000000ff00000021cd4320010000004b
:103330000000000018c443205c00000000000000f2
:1033400030cc432004000000000000005c944320c7
:1033500000080000000000008c6e432000100000f8
:10336000000000002ccd43200001000001000000ff
:10337000001a0e40000000000000000000000000e5
:10338000000000000000000000000000000000003d
:10339000000000000000000000000000000000002d
:1033a000000000000000000000000000000000001d
:1033b000000000000000000000000000000000000d
:1033c00000000000000000000000000000000000fd
:1033d000000000005c9443205c984320000400003f
:1033e00000040000000000000000000000000000d9
:1033f00000080e4000000000000000000000000077
:1034000000000000000000000000000000000000bc
:1034100000000000000000000000000000000000ac
:10342000000000000000000000000000000000009c
:10343000000000000000000000000000000000008c
:10344000000000000000000000000000000000007c
:10345000000000008c6e43208c76432000080000a2
:103460000008000000000000000000000000000054
:103470000ccd4320030000000000000034cc4320aa
:103480000400000000000000b4ca43202000000037
:1034900000000000a2ca432002000000000000005b
:1034a000ecbf4320a00000000000000038c943200a
:1034b000200000000000000022cd43200200000098
:1034c0000000000038cc4320040000000000000091
:1034d0008a3a4320020000000000000024cd43206f
:1034e00001000000000000001686432002000000da
:1034f0000000000025cd4320020000000000000075
:1035000014d54320040000000200aaaa27cd4320be
:1035100001000000000000003ccc4320040000003b
:1035200000000000608840200090010000000000c2
:1035300064cb4320080000000000000040cc432082
:10354000140000000000000048c7432040000000b5
:103550000000000054cc43200400000000000000e4
:1035600084c14320640000000000000004ca43201e
:10357000280000000000000058cc43200800000094
:10358000000000002cca43202800000000000000ba
:1035900060cc4320040000000000000054ca432017
:1035a000140000000000000064cc43202c00000048
:1035b0000000000074c443205c0000000000000014
:1035c0009cb343200002000000000000d0c4432050
:1035d0005c000000000000005c9c43200004000030
:1035e0000000000068ca432028000000000000001e
:1035f00090cc43201400000000000000d8c54320f8
:10360000a000000000000000a4cc43200c0000003b
:10361000000000005ca04320000400000000000047
:103620002cc543205c00000000000000b0cc43200b
:103630000c000000000000000cc1432078000000d6
:103640000000000038d043204000000001000000ce
:103650007c8245000000000000000000612545005c
:10366000000000000000000000000000000000005a
:10367000000000000000000000000000000000004a
:10368000000000000000000000000000000000003a
:10369000bccc4320040000000000000018d54320eb
:1036a0001c000000010000000400000010270000c2
:1036b000e803000001000000fa0000000200000022
:1036c00001000000c0cc43201000000000000000fa
:1036d00028cd43200100000000000000d0cc432092
:1036e000040000000000000029cd4320010000007c
:1036f00000000000d4cc43200400000000000000c3
:10370000d8d44320070000000100000001010000a0
:1037100000000000d8cc432004000000000000009e
:1037200058c943202000000000000000dccc4320ea
:10373000080000000000000034d543200400000011
:1037400001000000c579450060184220000001001a
:10375000000000006ccb43200800000000000000c7
:10376000e4cc43200c000000000000005ca44320d7
:103770000008000000000000bcd143201c00000035
:103780000100000000000000010000000000000037
:10379000000000005ca44320000000005ca843205f
:1037a000e0d44320060000000100000001010000f9
:1037b0000000000074cb432008000000000000005f
:1037c000f0cc432008000000000000002acd432078
:1037d0000100000000000000f8cc432008000000b9
:1037e0000000000038d54320040000000100000064
:1037f0000100000000cd4320040000000000000094
:1038000078c64320500000000000000004cd432093
:10381000080000000000000048d143202000000004
:103820000100000001000000030000000000000093
:103830000000000000000000000000000000000088
:103840007ccb43207ccb432008000000000000001c
:1038500020cf4320600000000100000001000000b4
:103860000300000000000000000000000000000055
:103870000000000000000000d5f14400000000003e
:103880000000000000000000618245000530450096
:103890000000000000000000000000000000000028
:1038a0000000000000000000000000000000000018
:1038b00000000000000000000000000010cb4320ca
:1038c0000c000000000000000000000000000000ec
:1038d0006666666666666666666666666666666688
:020000040000fa
:020000040042b8
:1038e0005244502025703a204e6f207370616365fa
:1038f00020666f72205244502068656164657220b2
:1039000028636d70290000005244502025703a2031
:1039100053656e6420434d5020532025753a207323
:10392000796e2025752c2061636b2025752c206510
:1039300061636b2025752c207273742025752c20f3
:103940007365715f6e72202535752c2061636b5f26
:103950006e72202535752c207061636b65745f6c09
:10396000656e2025752028257529000052445020b9
:1039700025703a20494e5445524641434520455210
:10398000524f523a206e6f7420706f737369626c7d
:103990006520746f2073656e6400000052445020ef
:1039a00025703a2043616e6e6f7420646571756591
:1039b00075652066726f6d2072785f7175657565cb
:1039c00020696e2071756575652064656c69766522
:1039d000720000005244502025703a204164646512
:1039e00064204541434b206e722025750000000085
:1039f0005244502025703a20436f6e6e205258205a
:103a00006275666665722066756c6c005244502063
:103a100025703a2052582051756575652064656c93
:103a200069766572206d61746368696e6720456ca4
:103a3000656d656e742c207365712025750000001e
:103a40005244502025703a2044656c697665722096
:103a500073657120257500005244502025703a206e
:103a600043616e6e6f74206465717565756520665f
:103a7000726f6d2072785f717565756520696e2053
:103a80007175657565206578697374730000000051
:103a90005244502025703a20525820517565756562
:103aa00020657869737473206d61746368696e67eb
:103ab00020456c656d656e742c20736571202575cd
:103ac000000000005244502025703a2057652068bd
:103ad0006176652061206d617463680052445020f6
:103ae00025703a2043616e6e6f7420646571756550
:103af00075652066726f6d2074785f717565756588
:103b000020696e20666c757368204541434b000048
:103b10005244502025703a204541434b20636f6d3d
:103b20007061726520656c656d656e742c207469ba
:103b30006d6520256c752c2073657120257500003e
:103b40005244502025703a20545820456c656d65cc
:103b50006e7420257520667265656400524450209d
:103b600025703a204e756c6c20706f696e746572aa
:103b70002070617373656420746f207264702066b6
:103b80006c75736820616c6c00000000524450201a
:103b900025703a20466c75736820545820456c6532
:103ba0006d656e742c2074696d6520256c752c20f4
:103bb00073657120257500005244502025703a200d
:103bc000466c75736820525820456c656d656e743f
:103bd0002c2074696d6520256c752c20736571200f
:103be000257500005244502025703a20466f756eae
:103bf000642061206c6f737420636f6e6e656374f4
:103c0000696f6e20286e6f773a20256c752c2074b2
:103c1000733a20256c752c20746f3a20256c752919
:103c20002c20636c6f73696e670000005244502053
:103c300025703a2043616e6e6f74206465717565fe
:103c400075652066726f6d2074785f717565756536
:103c500020696e20636865636b2074696d656f759c
:103c6000740000005244502025703a2054582045da
:103c70006c656d656e7420467265652c2074696d87
:103c80006520256c752c207365712025752c207599
:103c90006e612025750000005244502025703a20a6
:103ca000545820456c656d656e742074696d65644b
:103cb000206f75742c2072657472616e736d6974f7
:103cc00074696e6720736571202575005244502019
:103cd00025703a2052657472616e736d69737369f1
:103ce0006f6e206661696c6564000000524450206c
:103cf00025703a2057616b65205478207461736b8e
:103d00002028636865636b2074696d656f757473d3
:103d1000290000005244502025703a205265636506
:103d20006976656420696e20532025753a20737981
:103d30006e2025752c2061636b2025752c20656114
:103d4000636b2025752c207273742025752c2073cd
:103d500065715f6e72202535752c2061636b5f6e17
:103d600072202535752c207061636b65745f6c65fe
:103d70006e2025752028257529000000524450200a
:103d800025703a20525354207265636569766564e4
:103d900020696e20434c4f534544202d2069676ea7
:103da0006f726564000000005244502025703a2074
:103db00052535420726563656976656420696e208c
:103dc000434c4f53455f574149542c2061636b3a34
:103dd000202564202d20636c6f73696e67000000de
:103de0005244502025703a205265636569766564b7
:103df0002052535420696e2073657175656e63653a
:103e00002c206e6f206d6f72652064617461206973
:103e10006e636f6d696e672c207265706c792077a8
:103e200069746820525354005244502025703a203f
:103e3000525354206f7574206f66207365717565d9
:103e40006e63652c206b65657020636f6e6e6563b5
:103e500074696f6e206f70656e00000052445020d0
:103e600025703a204e6f742053594e207265636559
:103e70006976656420696e20434c4f534544207336
:103e8000746174652e2044697363617264696e673e
:103e9000207061636b6574005244502025703a2095
:103ea00053594e2d526563656976656400000000c4
:103eb0005244502025703a2077696e646f772073e2
:103ec000697a6520256c752c20636f6e6e2074698d
:103ed0006d656f757420256c752c207061636b6542
:103ee000742074696d656f757420256c752c206461
:103ef000656c617965642061636b733a20256c752c
:103f00002c2061636b2074696d656f757420256c5e
:103f1000752c2061636b206561636820256c7520ba
:103f20007061636b657400005244502025703a2024
:103f30004e503a20436f6e6e656374696f6e204f0a
:103f400050454e005244502025703a2057616b6511
:103f5000205478207461736b202861636b29000002
:103f60005244502025703a2048616c662d6f706570
:103f70006e20636f6e6e656374696f6e20666f7519
:103f80006e642c2073656e642052535420616e64fd
:103f90002077616b65205478207461736b0000009a
:103fa0005244502025703a20496e76616c69642035
:103fb0007265706c7920746f2053594e2072657150
:103fc00075657374000000005244502025703a203b
:103fd000496e76616c69642053594e206f72206e71
:103fe0006f2041434b2c20726573657474696e6752
:103ff000210000005244502025703a2049676e6f1e
:1040000072696e67206475706c69636174652053b2
:10401000594e207061636b6574210000524450203a
:1040200025703a20496e76616c69642073657175fc
:10403000656e6365206e756d626572212025752041
:104040006e6f74206265747765656e2025752061da
:104050006e6420256c7500005244502025703a2073
:10406000496e76616c69642041434b206e756d62c8
:10407000657221202575206e6f74206265747765e6
:10408000656e20256c7520616e642025750000002a
:104090005244502025703a2053594e2d52435644d5
:1040a0003a2057726f6e672041434b206e756d62e8
:1040b000657200005244502025703a204e433a2049
:1040c000436f6e6e656374696f6e204f50454e008e
:1040d0005244502025703a204552524f5220736f5f
:1040e000636b65742063616e6e6f742061636365da
:1040f0007074206d6f726520636f6e6e6563746996
:104100006f6e73005244502025703a204475706cd5
:1041100069636174652073657175656e6365206e92
:10412000756d6265720000005244502025703a207f
:10413000496e76616c69642053594e206f72206e0f
:104140006f2041434b20696e20434c4f53452d5700
:10415000414954005244502025703a204552524f54
:10416000522064656661756c742073746174652196
:10417000000000005244502025703a2041637469c9
:10418000766520636f6e6e6563742c20636f6e6e50
:10419000207374617465202575000000524450201e
:1041a00025703a20436f6e6e656374696f6e20618f
:1041b0006c7265616479206f70656e0052445020a6
:1041c00025703a2041433a2053656e64696e67203a
:1041d00053594e005244502025703a2041433a2012
:1041e00057616974696e6720666f722053594e2f4c
:1041f00041434b207265706c792e2e2e000000001a
:104200005244502025703a2041433a20436f6e6e4d
:10421000656374696f6e204f50454e0052445020c4
:1042200025703a2048616c662d6f70656e20636f53
:104230006e6e656374696f6e206465746563746522
:10424000642c205253542073656e742c206e6f774b
:10425000207265747279696e6700000052445020c4
:1042600025703a20436f6e6e656374696f6e2073bc
:1042700074617965642068616c662d6f70656e2c61
:10428000206576656e2061667465722052535420f5
:10429000616e64207265747279210000524450206e
:1042a00025703a2041433a20436f6e6e656374690e
:1042b0006f6e204661696c656400000052445020b6
:1042c00025703a204552524f522063616e6e6f74d2
:1042d0002073656e642c20636f6e6e656374696f06
:1042e0006e206e6f74206f70656e20282564290023
:1042f0005244502025703a2057616974696e6720d6
:10430000666f722077696e646f7720757064617470
:1043100065206265666f72652073656e64696e679d
:1043200020736571202575005244502025703a2075
:1043300054696d656f757420647572696e6720735a
:10434000656e64005244502025703a204552524f09
:10435000522063616e6e6f742073656e642c2063ef
:104360006f6e6e656374696f6e206e6f74206f7010
:10437000656e2028256429202d3e207265736574a2
:10438000000000005244502025703a204e6f2073e8
:104390007061636520666f722052445020686561c9
:1043a000646572202873656e6429000052445020b1
:1043b00025703a204661696c656420746f20616cd9
:1043c0006c6f63617465207061636b6574206275e6
:1043d00066666572000000005244502025703a2045
:1043e0004e6f206d6f726520737061636520696e1a
:1043f000205244502072657472616e736d6974202e
:1044000071756575650000005244502025703a2092
:1044100053656e64696e672020696e205320257590
:104420003a2073796e2025752c2061636b202575e9
:104430002c206561636b2025752c207273742025f8
:10444000752c207365715f6e72202535752c206187
:10445000636b5f6e72202535752c207061636b6510
:10446000745f6c656e202575202825752900000075
:104470005244502025703a204372656174696e671a
:104480002052445020717565756573005244502068
:1044900025703a204661696c656420746f20696eee
:1044a000697469616c697a652073656d6170686fa4
:1044b000726500005244502025703a204661696cb4
:1044c000656420746f2063726561746520545820a0
:1044d000717565756520666f7220636f6e6e000082
:1044e0005244502025703a204661696c65642074fe
:1044f0006f2063726561746520525820717565750f
:104500006520666f7220636f6e6e00002c207365ed
:104510006e7420525354000000000000524450209a
:1045200025703a206373705f7264705f636c6f73a1
:10453000652830782578292573202d3e20434c4f5f
:1045400053455f574149540020757365727370611c
:10455000636500002070726f746f636f6c00000001
:104560002074696d656f757400000000524450201e
:1045700025703a206373705f7264705f636c6f7351
:10458000652830782578292c2077616974696e67f1
:1045900020666f723a2573257325730052445020ac
:1045a00025703a206373705f7264705f636c6f7321
:1045b00065283078257829202d3e20434c4f5345df
:1045c00044000000095244503a20533a2564202800
:1045d000636c6f7365642062792030782578292cac
:1045e000207263762025752c20736e642025752c2f
:0b45f0002077696e20256c750d0a0015
:020000040000fa
:020000040042b8
:1045fc00446f20796f752077616e7420746f20631f
:10460c006f6e74696e75653f2028592f4e290d0aff
:10461c00000000000d0a5374617274206765747495
:10462c00696e672070726f66696c652e2e2e0d0a8e
:10463c0000000000207c202d3e2070726f66696c9b
:10464c006520696e6465783a200000000d0a207cb4
:10465c00204e6f7465733a20303d4e5443312031f7
:10466c003d4e544332202e2e2e20373d4e5443388f
:10467c00000000000d0a207c202d3e206d61696e2b
:10468c00206e74633a2000000d0a207c202d3e2001
:10469c00736563206e74633a200000000d0a207c61
:1046ac00204e6f7465733a2065673a30783031204c
:1046bc006d65616e207465633120697320656e6170
:1046cc00000000000d0a207c202d3e207465632024
:1046dc006d61736b3a2000000d0a207c204e6f74c4
:1046ec0065733a2065673a30783130206d65616ebc
:1046fc00206865617465723520697320656e610090
:10470c000d0a207c202d3e20686561746572206d39
:10471c0061736b3a200000000d0a207c202d3e2096
:10472c00736574706f696e742028302e30312a4393
:10473c00293a20000d0a207c202d3e206d61696ee7
:10474c002d7365632064656c74612028302e3031c4
:10475c002a43293a200000000d0a207c202d3e20ff
:10476c007374657020636f756e743a2000000000de
:10477c000d0a207c20496e76616c69642073746527
:10478c007020636f756e743a200000000d0a207c57
:10479c00204e6f7465733a20466f726d61743a20c7
:1047ac00737461727428302e30312a43292073744b
:1047bc006f7028302e30312a432920647572617451
:1047cc00696f6e287329206d6f64655b303d534fa4
:1047dc00414b20313d4845415420323d434f4f4cd5
:1047ec005d0000000d0a207c202d3e207374657046
:1047fc005b305d3a20000000256420256420256490
:10480c00202564000d0a207c20496e76616c696459
:10481c0020666f726d617421205573653a20737434
:10482c0061727420736574206475726174696f6e43
:10483c00206d6f64650000000d0a207c202d3e2049
:10484c00737465705b000000256400005d3a200005
:10485c000d0a207c202d3e20737465705b25645df1
:10486c003a2000000d0a20536176653f2028592f0d
:10487c004e293a20000000003d3e205573616765cb
:10488c003a2074656d705f70726f66696c655f63fa
:10489c006667203c70726f66696c655f696e6465f3
:1048ac00783a302d373e000052656164792073658b
:1048bc007474696e6720666f722070726f66696cb3
:1048cc00655b25645d0000003d3e20436f6e74699e
:1048dc006e7565207769746820636d643a20746521
:1048ec006d705f70726f66696c655f6366675f6d34
:1048fc0061696e5f6e7463003d3e2043616e63655b
:10490c006c207769746820636d643a2074656d70ef
:10491c005f70726f66696c655f6366675f63616e1b
:10492c0063656c003d3e2055736167653a20746584
:10493c006d705f70726f66696c655f6366675f6de3
:10494c0061696e5f6e7463203c6e74635f696e6444
:10495c0065783a302d373e003d3e20436f6e7469ca
:10496c006e7565207769746820636d643a20746590
:10497c006d705f70726f66696c655f6366675f739d
:10498c0065635f6e746300003d3e2055736167651f
:10499c003a2074656d705f70726f66696c655f63e9
:1049ac0066675f7365635f6e7463203c6e74635ff0
:1049bc00696e6465783a302d373e00003d3e2043e9
:1049cc006f6e74696e7565207769746820636d64a9
:1049dc003a2074656d705f70726f66696c655f63a9
:1049ec0066675f74656300003d3e205573616765c3
:1049fc003a2074656d705f70726f66696c655f6389
:104a0c0066675f746563203c544543313a302855e2
:104a1c004e555345292f3128555345293e203c3eb0
:104a2c00203c3e203c544543343e00003d3e204358
:104a3c006f6e74696e7565207769746820636d6438
:104a4c003a2074656d705f70726f66696c655f6338
:104a5c0066675f6865617465720000003d3e2055b5
:104a6c00736167653a2074656d705f70726f66690b
:104a7c006c655f6366675f686561746572203c484e
:104a8c004541544552313a3028554e555345292ffe
:104a9c003128555345293e203c3e203c3e203c3e8f
:104aac00203c3e203c3e203c3e203c484541544569
:104abc0052383e003d3e20436f6e74696e75652022
:104acc007769746820636d643a2074656d705f70eb
:104adc00726f66696c655f6366675f736574706f30
:104aec00696e74203c736574706f696e7428756e92
:104afc0069743a206d696c6c692d646567726565c3
:104b0c002043656c73697573293e00003d3e20554a
:104b1c00736167653a2074656d705f70726f66695a
:104b2c006c655f6366675f736574706f696e742024
:104b3c003c736574706f696e74733e003d3e204328
:104b4c006f6e74696e7565207769746820636d6427
:104b5c003a2074656d705f70726f66696c655f6327
:104b6c0066675f6d61696e5f7365635f64656c74c6
:104b7c0061203c64656c746128756e69743a206db3
:104b8c00696c6c692d6465677265652043656c732f
:104b9c00697573293e0000003d3e205573616765c1
:104bac003a2074656d705f70726f66696c655f63d7
:104bbc0066675f6d61696e5f7365635f64656c7476
:104bcc0061203c6d61696e5f7365635f64656c74d5
:104bdc00613e00003d3e20436f6e74696e7565202a
:104bec007769746820636d643a2074656d705f70ca
:104bfc00726f66696c655f6366675f73746570205e
:104c0c003c737465705f696e6465783e203c7374a8
:104c1c006172745f74656d703e203c73746f705f6d
:104c2c0074656d703e203c6475726174696f6e3e84
:104c3c00000000003d3e2055736167653a207465a5
:104c4c006d705f70726f66696c655f6366675f73ca
:104c5c00746570203c737465705f696e6465783a36
:104c6c00302d31303e203c73746172745f74656d0d
:104c7c00703e203c73746f705f74656d703e203ca9
:104c8c006475726174696f6e28756e69743a2073fd
:104c9c0065636f6e6473293e000000003d3e204149
:104cac00646420616e6f7468657220737465702023
:104cbc007769746820636d643a2074656d705f70f9
:104ccc00726f66696c655f6366675f73746570208d
:104cdc003c737465705f696e6465783e203c7374d8
:104cec006172745f74656d703e203c73746f705f9d
:104cfc0074656d703e203c6475726174696f6e28ca
:104d0c00756e69743a207365636f6e6473293e0027
:104d1c003d3e20536176652070726f66696c65202c
:104d2c007769746820636d643a2074656d705f7088
:104d3c00726f66696c655f6366675f736176650049
:104d4c003d3e2050726f66696c655b5b25645d202f
:104d5c0073617665207375636365737366756c0038
:104d6c003d3e2054656d706572617475726520707e
:104d7c00726f66696c6520636f6e666967757261c8
:104d8c0074696f6e2063616e63656c6c65640000a2
:104d9c003d3e2055736167653a2074656d705f7098
:104dac00726f66696c655f646973706c6179203cc5
:104dbc00696e6465783e00003d3e20557361676501
:104dcc003a2074656d705f6175746f5f656e6120fc
:104ddc003c696e6465783e00496e76616c6964204e
:104dec00696e6465780000005175657565206e6f9d
:104dfc007420696e697400004175746f206d6f6466
:104e0c006520656e61626c656400000051756575a6
:104e1c00652066756c6c00003d3e205573616765be
:104e2c003a2074656d705f6175746f5f7374617235
:104e3c0074203c696e6465783e00000053746172a6
:104e4c0074204f4b000000003d3e20557361676598
:104e5c003a2074656d705f6175746f5f73746f70f9
:104e6c00203c696e6465783e0000000053746f70de
:104e7c00204f4b003d3e2055736167653a207465a9
:104e8c006d705f7069645f736574203c73746174da
:104e9c00653e203c6b503e203c6b493e203c6b44b5
:104eac003e0000005b4552524f525d20496e7661c8
:104ebc006c69642073746174650000005b4e4f5420
:104ecc0045535d207374617465203d2031203a2078
:104edc0053544154455f505245484541545f4845f1
:104eec00415400005b4e4f5445535d207374617404
:104efc0065203d2032203a2053544154455f505296
:104f0c0045484541545f434f4f4c00005b4e4f5456
:104f1c0045535d207374617465203d2033203a2025
:104f2c0053544154455f48454154494e4700000095
:104f3c005b4e4f5445535d207374617465203d2066
:104f4c0034203a2053544154455f534f414b5f48f2
:104f5c00454154005b4e4f5445535d20737461744e
:104f6c0065203d2035203a2053544154455f534f22
:104f7c00414b5f434f4f4c005b4e4f5445535d20ac
:104f8c007374617465203d2036203a20535441548b
:104f9c00455f434f4f4c494e470000005b45525212
:104fac004f525d204d697373696e67206b50000022
:104fbc005b4552524f525d204d697373696e672089
:104fcc006b4900005b4552524f525d204d69737323
:104fdc00696e67206b4400005b4552524f525d2056
:104fec00504944206d757374206265203e3d20301d
:104ffc00000000005b4f4b5d2053746174652025ed
:10500c006420504944207365743a204b703d252e22
:10501c003366204b693d252e3366204b643d252e8f
:10502c00336600003d3e2055736167653a20746518
:10503c006d705f7069645f676574203c7374617434
:10504c00653e00005b4552524f525d204e6f205022
:10505c00494420636f6e66696720666f72207468be
:10506c00697320737461746500000000537461747b
:10507c0065202564205049443a204b703d252e3341
:10508c0066204b693d252e3366204b643d252e331f
:02509c006600ac
:020000040000fa
:020000040042b8
:02509e00fee72b
:020000040000fa
:020000040042b8
:1050a0002c04420034044200380442000000000096
:1050b000000000002d9942002c04420064044200cc
:1050c0006c044200000000000000000001b042003b
:1050d0002c044200a0044200a4044200000000008e
:1050e00000000000ed4a45002c044200c8044200c4
:1050f000d804420001000000000000003d7644009a
:105100000805420010054200180542000100000099
:105110000000000021404300080542004c05420009
:105120005405420001000000000000001dd94200ab
:105130000805420088054200940542000100000075
:1051400000000000c5384400c8054200d0054200f8
:10515000d8054200000000000000000031144300a8
:10516000c80542000c06420014064200010000007f
:1051700000000000f5a34400c805420040064200bc
:10518000480642000000000000000000e1764400f4
:10519000740642007c0642008c06420000000000bb
:1051a00000000000294a440074064200bc06420088
:1051b000c8064200000000000000000069894300aa
:1051c000fc064200000742000c07420001000000fc
:1051d00000000000dd5a430040074200440742003f
:1051e000500742000100000000000000192d44009b
:1051f000400742008407420090074200010000007f
:10520000000000006d9b430040074200c4074200bd
:10521000d00742000000000000000000e98f4400b9
:10522000040842000c084200180842000100000077
:105230000000000029a4430004084200580842006e
:10524000640842000100000000000000299d4200a7
:10525000ac084200b0084200b8084200010000005b
:105260000000000055394500ac084200dc0842004f
:10527000e808420001000000000000008d394500f0
:105280000c094200100942001c0942000000000005
:1052900000000000953345000c094200400942001f
:1052a0004809420001000000000000004daa430030
:1052b000680942006c0942007809420001000000c0
:1052c00000000000d1b94300ac094200b40942001b
:1052d000c409420000000000000000001d4b450012
:1052e000ac094200ec094200fc0942000000000049
:1052f0000000000021634500ac094200240a42007e
:10530000340a42000000000000000000415e44003a
:10531000ac094200540a4200640a42000000000046
:105320000000000049624500ac094200840a4200c6
:10533000940a420000000000000000006d62450079
:10534000ac094200b40a4200c40a42000000000056
:1053500000000000c5394500ac094200e00a4200e7
:10536000f00a4200000000000000000091624500c9
:10537000ac094200100b4200240b42000000000068
:1053800000000000b5624500ac094200440b420039
:10539000580b42000000000000000000fd394500ed
:1053a000ac094200780b42008c0b42000000000068
:1053b00000000000d9624500ac094200a80b420081
:1053c000bc0b42000000000000000000fd62450030
:1053d000ac094200dc0b4200f00b42000000000070
:1053e00000000000353a45000c0c4200140c42004d
:1053f000200c420000000000000000006dfe440090
:105400000c0c4200340c4200480c4200000000002a
:10541000000000003de344000c0c4200680c420018
:10542000800c42000000000000000000a1e34400e6
:105430000c0c4200a40c4200bc0c42000000000016
:105440000000000005e444000c0c4200e00c4200a7
:10545000f00c420000000000000000003d56440037
:10546000200d4200280d4200380d420000000000cf
:1054700000000000751844006c0d4200740d4200dd
:105480007c0d42000100000000000000458844003f
:10549000ac0d4200b00d4200bc0d42000100000006
:1054a00000000000dd124400ac0d4200e80d420097
:1054b000f00d420001000000000000006dfc430000
:1054c000ac0d4200140e42001c0e42000100000010
:1054d000000000007d904400ac0d4200380e4200f8
:1054e000440e420001000000000000001191440041
:1054f000ac0d42006c0e42007c0e42000100000028
:1055000000000000fdee4300a80e4200b00e420075
:10551000c40e420001000000000000005d7b44005a
:10552000a80e4200f00e4200000f420001000000f1
:1055300000000000dd884400a80e4200280f420051
:105540003c0f42000100000000000000758944008b
:10555000a80e4200680f4200800f420001000000c8
:105560000000000035764500a80e4200840f42007e
:10557000980f42000100000000000000d15c4400d0
:10558000a80e4200c80f4200dc0f420001000000dc
:1055900000000000fd7b4400a80e420008104200fd
:1055a000181042000100000000000000f95e4400f5
:1055b000a80e4200401042005410420001000000ba
:1055c000000000007d7645008010420088104200f7
:1055d000800f4200010000000000000089b3440079
:1055e0009410420098104200a410420001000000f4
:1055f000000000009d16440094104200dc104200a0
:10560000ec10420001000000000000009539440049
:1056100094104200141142002011420001000000c9
:1056200000000000d9eb4300481142004c11420039
:1056300058114200010000000000000009b34400be
:1056400048114200881142009811420001000000f8
:1056500000000000f97b430048114200c8114200dd
:10566000d81142000100000000000000d9d2430020
:1056700048114200001242000c12420001000000da
:1056800000000000e13245004811420028124200ab
:105690003412420001000000000000008155440067
:1056a00060124200681242007412420001000000c1
:1056b000000000000d8a4400601242009412420073
:1056c000741242000100000000000000b5db43003e
:1056d000a4124200a8124200b412420001000000cd
:1056e00000000000ad884200a4124200dc1242001b
:1056f000e8124200010000000000000005e944003b
:10570000101342001813420024134200010000004d
:1057100000000000f9f44400101342003c13420062
:105720004c134200010000000000000051f544004d
:105730001013420064134200701342000100000085
:105740000000000019fe44001013420084134200c0
:10575000941342000100000000000000ad6444000a
:1057600010134200b8134200c813420001000000a9
:10577000000000006165440010134200f013420075
:10578000fc13420001000000000000001d844300e3
:10579000181442002014420034144200010000009a
:1057a000000000007da44400181442006814420068
:1057b00034144200010000000000000065e94400cc
:1057c0001814420084144200341442000100000006
:1057d00000000000c5e9440018144200a014420073
:1057e0003414420001000000000000005124440075
:1057f00018144200b81442003414420001000000a2
:1058000000000000b962430018144200d0144200a6
:1058100034144200010000000000000089c8440068
:1058200018144200ec14420034144200010000003d
:1058300000000000a9c04400181442000c154200ea
:10584000341442000100000000000000f9ba4300d7
:1058500018144200241542003414420001000000d4
:1058600000000000852b4500181442003c15420042
:1058700034144200010000000000000025624500d1
:105880001814420054154200341442000100000074
:1058900000000000fd224500181442006815420077
:1058a0007c15420001000000000000004b73450021
:1058b00018144200a8154200b8154200010000006b
:1058c00000000000b56f440018144200e4154200c7
:1058d000f415420001000000000000005d7044006b
:1058e000181442002416420038164200010000003d
:1058f00000000000d538430018144200641642002e
:10590000781642000100000000000000f5d34300bb
:105910001814420094164200a01642000100000034
:10592000000000000571440018144200cc1642002b
:10593000d016420001000000000000001d334500a9
:10594000fc16420004174200141742000100000038
:10595000000000004d764500fc1642004017420052
:1059600014174200010000000000000065764500a9
:10597000fc164200501742001417420001000000bc
:1059800000000000895d4400fc1642005c174200e4
:105990001417420001000000000000005d164300e3
:1059a000fc16420068174200141742000100000074
:1059b0000000000079ba4200741742007c174200d0
:1059c000881742000100000000000000412345004c
:1059d00074174200a8174200bc17420001000000e3
:1059e0000000000069fb430074174200ec174200fe
:1059f000fc1742000100000000000000e5ec43003d
:105a000074174200281842003818420001000000b4
:105a10000000000001cb43007417420064184200ec
:105a200074184200010000000000000021bc430087
:105a300074174200a0184200b01842000100000094
:105a400000000000f1ed430074174200d41842003a
:105a5000e418420001000000000000005953450016
:105a60007417420008194200141942000100000096
:105a70000000000059334500741742003c194200f1
:105a800050194200010000000000000021c1440044
:105a90007417420070194200801942000100000092
:105aa0000000000099c14400741742009c19420094
:105ab000ac194200010000000000000099ee440013
:105ac00074174200cc194200dc19420001000000aa
:105ad0000000000089174400000000000c1a42007a
:105ae000101a420001000000000000006da34400f5
:105af00000000000201a4200241a420001000000a9
:105b0000000000009d41440000000000341a4200e3
:105b1000381a4200010000000000000075e2440055
:105b200000000000481a4200501a42000000000025
:085b300000000000b77f4500f2
:020000040000fa
:020000040042b8
:105b3800f0b591b008aff860b9600023fb77b8689a
:105b480030f01cfdb861bb69b3f803309bb218464e
:105b580031f054fb03461a46bb69a3f80320bb691e
:105b6800b3f801309bb2184631f048fb03461a4699
:105b7800bb69a3f801200223fb75724b5b79002bec
:105b88003ad0fa68fb681b7f9c46bb691b78c3f355
:105b9800c003dbb21946bb691b78c3f38003dbb2d1
:105ba8001846bb691b78c3f34003dbb21c46bb69cc
:105bb8001b78c3f30003dbb21d46bb69b3f80130a1
:105bc8009bb21e46bb69b3f803309bb27b60bb68cf
:105bd8005b893b60bb685b89053b07933b68069321
:105be8007b6805930496039502940190009163469f
:105bf800554905201df026fdbb691b7803f00103fc
:105c0800dbb2002b6dd0bb691b7803f00403dbb259
:105c1800002b07d0bb69b3f803309ab2fb68013296
:105c280092b21a84fb681b7f002b11d1454b5b791c
:105c3800002b05d0fb681a46444905201df002fddb
:105c4800fb681b69002b14bf01230023fb77bae311
:105c5800fb681b7f042b0fd13a4b5b79002b00f0bc
