:020000040000fa
:020000040042b8
:10020000f8ff4520619e4400fb824200f1734500e7
:10021000fd734500037445000974450000000000ab
:1002200000000000000000000000000061504500d8
:10023000f77345000000000021d44400d90b4500ad
:10024000578d4200578d4200578d4200578d420016
:10025000578d4200578d4200578d4200f196440061
:10026000578d420000000000578d4200578d42001c
:10027000054b4500f1db4300578d4200edd04300b4
:10028000578d4200578d4200578d4200578d4200d6
:10029000578d420079c44300578d4200578d42006c
:1002a00069454500578d4200578d4200578d4200e9
:1002b000578d4200578d4200578d4200578d4200a6
:1002c000578d4200578d4200b7724500578d42004e
:1002d000578d4200edb24300578d4200578d4200ca
:1002e000578d4200578d4200578d4200578d420076
:1002f00069964400578d4200578d4200578d420049
:10030000578d4200578d4200351d4500751d450033
:10031000b51d4500578d42000000000000000000a0
:10032000578d4200578d4200291d4400578d4200d1
:10033000578d4200578d420000000000578d42004b
:10034000578d4200578d4200578d4200578d420015
:10035000578d4200578d4200578d4200578d420005
:08036000578d4200578d420049
:020000040000fa
:020000040042b8
:10036800f8b500bff8bc08bc9e467047991b45000d
:10037800f8b500bff8bc08bc9e467047751b450021
:020000040000fa
:020000040042b8
:080388008ee9000001000000f5
:020000040000fa
:020000040042b8
:10039000556c746973000000646576005072696e74
:1003a00074206c697374206f6620646576656c6f69
:1003b0007065722d737065636966696320636f6d24
:1003c0006d616e647300000068656c700000000071
:1003d0005072696e74206c697374206f6620616c52
:1003e0006c20617661696c61626c6520636f6d6d14
:1003f000616e6473205b4669726d776172653a2045
:10040000315d0000636c7300436c65617220746839
:1004100065207465726d696e616c20636f6e736fb9
:100420006c65206f75747075740000006175746f71
:10043000636f6d706c65746500000000546f6767d2
:100440006c65206175746f636f6d706c6574696f36
:100450006e3a206175746f636f6d706c65746520a2
:100460005b6f6e7c6f66665d0000000054696d65b1
:10047000000000007274635f73657400536574203c
:100480005254432074696d653a207274635f7365da
:1004900074203c683e203c6d3e203c733e203c4432
:1004a000443e203c4d4d3e203c59593e000000004a
:1004b0007274635f6765740047657420525443200b
:1004c00074696d653a207274635f676574203c6877
:1004d0006172647c736f66747c776f726b7c65701d
:1004e0006f63687c616c6c3e0000000065706f6338
:1004f000685f736574000000536574205254432094
:1005000074696d65207573696e6720556e69782012
:1005100065706f63683a207274635f7365746570a9
:100520006f6368203c65706f63683e005379737435
:10053000656d00006f735f7374617400446973705c
:100540006c6179204672656552544f532074617313
:100550006b207374617469737469637320616e6472
:1005600020737461636b2075736167650000000020
:10057000646d6573670000005072696e7420737952
:100580007374656d206c6f67206275666665723a7c
:1005900020646d657367205b4e206c696e65735dca
:1005a000000000006261756400000000546f67671e
:1005b0006c652055415254303a203235306b3e350f
:1005c00030306b3e3932316b3e314d3e3131356b1f
:1005d0002d3e2e2e2e0000004652414d0000000000
:1005e0006672616d5f77726974655f7265616400e0
:1005f00052756e204652414d206861726477617277
:100600006520696e746567726974792074657374a6
:10061000202857726974652f5265616429000000b3
:10062000626f6f74696e666f0000000052656164ee
:1006300020626f6f7420696e666f2028636f756e1d
:1006400074202b20636175736520686973746f7201
:1006500079292066726f6d204652414d00000000de
:1006600043414e0063616e5f73656e64000000007d
:1006700053656e64207261772043414e206672613b
:100680006d653a2063616e5f73656e64203c6964da
:100690003e205b6578745d205b62302062312e2ed7
:1006a0002e5d0000435350006373705f70696e6786
:1006b0000000000053656e64204353502070696e43
:1006c000673a206373705f70696e67203c6465737e
:1006d000745f616464723e205b74696d656f7574ec
:1006e0005f6d735d000000006373705f73656e641f
:1006f0000000000053656e64204353502070616316
:100700006b65743a206373705f73656e64203c613f
:100710006464723e203c706f72743e203c6461746d
:10072000612e2e2e3e0000006373705f696e666f4f
:1007300000000000446973706c6179206375727207
:10074000656e742043535020696e746572666163f0
:10075000652073746174757320616e6420737461b5
:100760007469737469637300506172616d00000095
:10077000706172616d5f73686f77000053686f77a7
:1007800020616c6c206669656c647320696e206101
:1007900020706172616d65746572207461626c6550
:1007a0003a20706172616d5f73686f77203c74618d
:1007b000626c655f696420302d343e007061726147
:1007c0006d5f73657400000055706461746520612d
:1007d00020706172616d65746572206669656c6414
:1007e0003a20706172616d5f736574203c74616260
:1007f0006c655f69643e203c616464723e203c74b9
:100800007970653e203c76616c75653e00000000a5
:100810004c4544006c65645f736574005475726e7a
:10082000206f6e2061207370656369666963204c78
:10083000454420696e64696361746f720000000052
:100840006c65645f72657365740000005475726e48
:10085000206f666620612073706563696669632036
:100860004c454420696e64696361746f72000000d6
:10087000534f4c00736f6c5f73696e676c655f6f8d
:100880006e00000041637469766174652073696e5f
:10089000676c6520736f6c656e6f69643a20736f67
:1008a0006c5f73696e676c655f6f6e203c696e6428
:1008b00065783e00736f6c5f73696e676c655f6f20
:1008c00066660000446561637469766174652073cf
:1008d000696e676c6520736f6c656e6f69643a2032
:1008e000736f6c5f73696e676c655f6f6666203ce3
:1008f000696e6465783e0000736f6c5f73696e6744
:100900006c655f676574000051756572792073745a
:1009100061747573206f662073696e676c652073f0
:100920006f6c656e6f69643a20736f6c5f73696e8c
:10093000676c655f676574203c696e6465783e002e
:10094000736f6c5f6475616c5f666f727761726400
:1009500000000000536574206475616c20736f6c37
:10096000656e6f696420746f20666f727761726460
:1009700020706f736974696f6e3a20736f6c5f6477
:1009800075616c5f666f7277617264203c696e643a
:1009900065783e00736f6c5f6475616c5f7265763d
:1009a0006572736500000000536574206475616ca6
:1009b00020736f6c656e6f696420746f207265764a
:1009c0006572736520706f736974696f6e3a207316
:1009d0006f6c5f6475616c5f7265766572736520bc
:1009e0003c696e6465783e004854520068656174e5
:1009f00065725f7365740000536574206865617487
:100a000065722064757479206379636c653a206837
:100a100065617465725f736574203c6368616e6eb6
:100a2000656c3e203c647574793e0000504f57451c
:100a300052000000706f7765725f736f6d5f6f6e4d
:100a400000000000456e61626c6520654675736547
:100a500020746f20706f776572204f4e2074686528
:100a600020536f4d00000000706f7765725f736fe9
:100a70006d5f6f666600000044697361626c65209b
:100a8000654675736520746f20706f776572204faf
:100a900046462074686520536f4d0000706f77657f
:100aa000725f736f6d5f6765740000004765742047
:100ab00063757272656e7420706f776572207374df
:100ac00061747573206f662074686520536f4d00e4
:100ad000706f7765725f6275636b5f706572695f77
:100ae0006f6e0000456e61626c65207065726970a2
:100af000686572616c206275636b20636f6e7665ea
:100b00007274657200000000706f7765725f6275c5
:100b1000636b5f706572695f6f66660044697361dd
:100b2000626c65207065726970686572616c2062c4
:100b300075636b20636f6e7665727465720000007a
:100b4000706f7765725f6275636b5f706572695f06
:100b500067657400476574207065726970686572b6
:100b6000616c206275636b20636f6e76657274656d
:100b70007220706f776572207374617475730000f2
:100b8000706f7765725f7465635f6f6e0000000061
:100b9000456e61626c6520706f77657220746f209e
:100ba00074686520544543206d6f64756c65000062
:100bb000706f7765725f7465635f6f6666000000d3
:100bc00044697361626c6520706f77657220746f21
:100bd0002074686520544543206d6f64756c650012
:100be000706f7765725f7465635f6765740000009e
:100bf00047657420544543206d6f64756c652070a3
:100c00006f7765722073746174757300706f7765a8
:100c1000725f6864345f6f6e00000000456e616251
:100c20006c6520706f77657220746f2048443420a3
:100c3000696e74657266616365000000706f776548
:100c4000725f6864345f6f666600000044697361b8
:100c5000626c6520706f77657220746f2048443431
:100c600020696e746572666163650000706f7765f8
:100c7000725f6864345f67657400000047657420c4
:100c800048443420696e7465726661636520706fd4
:100c9000776572207374617475730000706f776587
:100ca000725f736f6c656e6f69645f6f6e000000da
:100cb000456e61626c6520706f77657220746f207d
:100cc00074686520736f6c656e6f6964207261690a
:100cd0006c000000706f7765725f736f6c656e6f8c
:100ce00069645f6f6666000044697361626c6520c9
:100cf000706f77657220746f2074686520736f6cf5
:100d0000656e6f6964207261696c0000706f776551
:100d1000725f736f6c656e6f69645f676574000006
:100d200047657420736f6c656e6f696420726169ca
:100d30006c20706f77657220737461747573000036
:100d4000706f7765725f6c705f6f6e00456e616289
:100d50006c6520706f77657220746f2074686520f1
:100d60004c50207261696c00706f7765725f6c70b7
:100d70005f6f66660000000044697361626c652005
:100d8000706f77657220746f20746865204c5020f6
:100d90007261696c00000000706f7765725f6c7043
:100da0005f67657400000000476574204c50207236
:100db00061696c20706f77657220737461747573ec
:100dc00000000000706f7765725f6865617465721e
:100dd0005f6f6e00456e61626c6520706f77657243
:100de00020746f2074686520686561746572207274
:100df00061696c00706f7765725f686561746572b8
:100e00005f6f66660000000044697361626c652074
:100e1000706f77657220746f2074686520686561f3
:100e2000746572207261696c00000000706f7765f4
:100e3000725f6865617465725f67657400000000c9
:100e400047657420686561746572207261696c2001
:100e5000706f7765722073746174757300000000a1
:100e6000706f7765725f616c6c5f6f6e0000000081
:100e7000456e61626c6520616c6c20706f77657285
:100e8000207261696c732073696d756c74616e6535
:100e90006f75736c79000000706f7765725f616cbd
:100ea0006c5f6f666600000044697361626c652068
:100eb000616c6c20706f776572207261696c732051
:100ec00073696d756c74616e656f75736c79000014
:100ed000706f7765725f616c6c5f676574000000ae
:100ee00047657420737461747573206f6620616c3c
:100ef0006c20706f776572207261696c73000000fe
:100f0000424d503339300000626d703339305f69c3
:100f10006e745f7265616400526561642070726511
:100f200073737572652f74656d702066726f6d20b6
:100f3000696e7465726e616c20424d503339302099
:100f400073656e736f720000626d703339305f6568
:100f500078745f72656164005265616420707265c7
:100f600073737572652f74656d702066726f6d2076
:100f700065787465726e616c20424d503339302053
:100f800073656e736f720000544553540000000087
:100f90006563686f000000004563686f20696e70cc
:100fa00075742074657874206261636b20746f209f
:100fb000636f6e736f6c653a206563686f203c7475
:100fc0006578743e00000000657870616e6465723b
:100fd0005f77726974650000577269746520766185
:100fe0006c756520746f204750494f20657870619b
:100ff0006e6465723a20657870616e6465725f77c1
:1010000072697465203c76616c3e000065787061a1
:101010006e6465725f7265616400000052656164b0
:101020002063757272656e742076616c75652066da
:10103000726f6d204750494f20657870616e64650e
:10104000720000006e74635f636865636b0000008c
:10105000506572666f726d204e54432073656e73d7
:101060006f722066756e6374696f6e616c697479f6
:101070002074657374000000544543007465635f19
:10108000696e697400000000496e697469616c6979
:101090007a652054454320636f6e74726f6c6c6583
:1010a0007220636f6e66696775726174696f6e73c3
:1010b000000000007465635f766f6c0053657420f8
:1010c00074617267657420766f6c74616765206601
:1010d0006f7220544543206d6f64756c650000008d
:1010e0007465635f656e0000456e61626c652054d7
:1010f0004543206861726477617265206f75747012
:10110000757400007465635f7377656e000000009e
:10111000546f67676c6520736f66747761726520c2
:10112000656e61626c6520666f7220544543206372
:101130006f6e74726f6c00007465635f72656164da
:101140005f7265670000000052656164207370651e
:101150006369666963207265676973746572206686
:10116000726f6d2054454320636f6e74726f6c6ca8
:10117000657200004c415345520000006c6173657c
:10118000725f696e745f7365745f64616300000011
:10119000536574204441432076616c756520666f09
:1011a0007220696e7465726e616c206c6173657219
:1011b00020696e74656e7369747900006c61736583
:1011c000725f696e745f73775f6f6e005475726ed5
:1011d000204f4e20737065636966696320696e7481
:1011e00065726e616c206c61736572206368616efc
:1011f0006e656c006c617365725f696e745f7377a6
:101200005f6f6666000000005475726e204f4646a0
:1012100020737065636966696320696e7465726eb8
:10122000616c206c61736572206368616e6e656cc1
:10123000000000006c617365725f696e745f7377a4
:101240005f6f66665f616c6c000000005f5f5f004f
:101250006c617365725f696e745f63757272656edf
:1012600074000000526561642063757272656e746b
:10127000206d6f6e69746f722076616c7565206683
:101280006f7220696e7465726e616c206c6173653b
:101290007200000050484f544f00000070686f7497
:1012a0006f5f73775f6f6e004e5443006e74635fc1
:1012b0007265616400000000526561642074656db0
:1012c00070657261747572652066726f6d207370df
:1012d000656369666963204e54433a206e74635fa8
:1012e00072656164203c696e6465783e00000000b0
:1012f0006e74635f726561645f616c6c0000000016
:10130000526561642074656d706572617475726593
:10131000732066726f6d20616c6c204e5443207395
:10132000656e736f72730000525443007274635f92
:10133000726561640000000052656164206375722b
:1013400072656e742074696d6520616e64206461dd
:1013500074652066726f6d20525443206861726418
:1013600077617265000000007274635f7365745f7b
:10137000646174650000000053657420525443207a
:10138000646174653a207274635f7365745f64614d
:101390007465203c44443e203c4d4d3e203c595910
:1013a0003e203c57443e00007274635f7365745f77
:1013b00074696d6500000000536574205254432029
:1013c00074696d653a207274635f7365745f7469e4
:1013d0006d65203c683e203c6d3e203c733e000025
:1013e0007274635f70696e670000000050696e6719
:1013f0002052544320686172647761726520766977
:1014000061204932430000007274635f7465737435
:101410000000000052756e20636f6d707265686524
:101420006e736976652052544320686172647761f7
:1014300072652074657374207375697465000000ab
:10144000464c4f5700000000666c6f775f72656115
:10145000645f616c6c0000005265616420646174bb
:10146000612066726f6d20616c6c20666c6f7720f6
:1014700073656e736f72730045585000646c735fd0
:101480007365747570000000436f6e6669677572ee
:1014900065206578706572696d656e742070726f15
:1014a00066696c6520706172616d65746572730048
:1014b000646c735f737461727400000053746172c2
:1014c0007420746865207363686564756c65642056
:1014d0006578706572696d656e7420736571756588
:1014e0006e63650050554d500000000070756d70c2
:1014f0005f656e61626c6500456e61626c6520704f
:10150000756d70206861726477617265000000001b
:1015100070756d705f64697361626c6500000000d6
:1015200044697361626c652070756d7020686172ca
:10153000647761726500000070756d705f7365742b
:101540005f766f6c74000000536574206f70657275
:101550006174696e6720766f6c7461676520666f71
:1015600072207468652070756d70000070756d7004
:101570005f7365745f667265710000005365742067
:101580006f7065726174696e6720667265717565ea
:101590006e637920666f72207468652070756d7057
:1015a0000000000054454d500000000074656d704f
:1015b0005f70726f66696c655f7365740000000030
:1015c000536574206163746976652074656d706518
:1015d0007261747572652070726f66696c65000067
:1015e00074656d705f70726f66696c655f64697059
:1015f0006c617900446973706c61792073746f72e7
:1016000065642074656d70657261747572652070b3
:10161000726f66696c65732066726f6d20646174a9
:10162000616261736500000074656d705f70726f58
:1016300066696c655f76616c0000000056616c69dc
:10164000646174652074656d70657261747572652e
:101650002070726f66696c65206461746120696ec8
:10166000746567726974790074656d705f61757413
:101670006f5f656e61000000456e61626c652061a0
:1016800075746f6d617469632074656d70657261e6
:101690007475726520636f6e74726f6c206d6f6409
:1016a0006500000074656d705f6175746f5f7374c1
:1016b000617274005374617274207468652061757e
:1016c000746f6d617469632074656d7065726174a7
:1016d00075726520636f6e74726f6c2070726f63c9
:1016e0006573730074656d705f6175746f5f7069a9
:1016f000645f736574000000536574205049442092
:10170000636f6e7374616e747320666f722074659c
:101710006d706572617475726520636f6e74726f3f
:101720006c00000074656d705f6175746f5f706947
:10173000645f6765740000004765742063757272aa
:10174000656e742050494420636f6e7374616e74cb
:101750007300000074656d705f6d616e7500000050
:1017600053776974636820746f206d616e75616c66
:101770002074656d706572617475726520636f6e3b
:1017800074726f6c206d6f64650000006300000070
:10179000546f67676c652074656d706572617475f0
:1017a00072652064617461206c6f6767696e672081
:1017b000746f20636f6e736f6c65000050535241fd
:1017c0004d000000707372616d5f73775f6d6375bc
:1017d0000000000052656164206d616e7566616392
:1017e000747572657220616e6420646576696365e4
:1017f000204944206f6620505352414d00000000a4
:10180000707372616d5f73775f6d707500000000bb
:10181000707372616d5f69640000000070737261c3
:101820006d5f777269746500707372616d5f726568
:10183000616400004c534d36000000006c736d363f
:10184000645f636f6e665f616363656c00000000d8
:10185000436f6e66696775726520416363656c6589
:10186000726f6d657465722073657474696e6773e9
:1018700020284f44522c205363616c6529000000de
:101880006c736d36645f636f6e665f6779726f004d
:10189000436f6e666967757265204779726f73630f
:1018a0006f70652073657474696e677320284f4488
:1018b000522c205363616c65290000006c736d36f7
:1018c000645f636f6e665f696e740000436f6e667f
:1018d00069677572652068617264776172652069f5
:1018e0006e746572727570742070696e7320666fa5
:1018f0007220494d550000006c736d36645f636f54
:101900006e665f6666000000436f6e66696775729b
:101910006520467265652d46616c6c206465746552
:101920006374696f6e20706172616d657465727346
:10193000000000006c736d36645f636f6e665f77e6
:1019400075000000436f6e666967757265205761a8
:101950006b652d5570206576656e742070617261bf
:101960006d657465727300006c736d36645f696ecb
:1019700069740000496e697469616c697a65204c0c
:10198000534d3644534f5820494d552073656e735f
:101990006f7200006c736d36645f6469735f696eab
:1019a0007400000044697361626c6520616c6c2096
:1019b000494d5520686172647761726520696e7463
:1019c00065727275707473006c736d36645f6368f2
:1019d00065636b00436865636b20494d5520636ff9
:1019e0006e6e656374696f6e202857686f416d492c
:1019f0002072656769737465722900006c736d36b7
:101a0000645f726561645f616c6c00005265616463
:101a100020616c6c20494d552073656e736f722088
:101a2000646174612028416363656c202b204779d1
:101a3000726f202b2054656d702900006c736d3619
:101a4000645f726561645f616363656c00000000e0
:101a5000526561642063757272656e7420416363c0
:101a6000656c65726f6d6574657220646174610088
:101a70006c736d36645f726561645f6779726f0065
:101a8000526561642063757272656e742047797265
:101a90006f73636f70652064617461006c736d3681
:101aa000645f726561645f74656d70005265616446
:101ab00020494d5520696e7465726e616c207465a5
:101ac0006d70657261747572650000005057522028
:101ad0004d454153000000006765745f695f707792
:101ae000720000004d65617375726520706f7765d7
:101af00072207261696c2063757272656e743a202f
:101b00006765745f695f707772203c6e756d6265a2
:101b1000723e00006765745f765f74656300000065
:101b20004d6561737572652054454320766f6c7402
:101b30006167653a206765745f765f746563203c12
:101b40006e756d6265723e006765745f6164635fa8
:101b5000726177005265616420726177204144436d
:101b60002076616c75653a206765745f6164635fb8
:101b7000726177203c6e756d6265723e00000000f8
:101b800073775f6f6e0000005475726e204f4e20a9
:101b900073706563696669632041444320696e70b0
:101ba0007574207377697463683a2073775f6f6e1a
:101bb000203c6e756d6265723e00000073775f6f4a
:101bc000666600005475726e204f4646207370653d
:101bd00063696669632041444320696e70757420af
:101be0007377697463683a2073775f6f6666203c29
:101bf0006e756d6265723e0073775f7374617475a4
:101c00007300000051756572792073746174757387
:101c1000206f6620616c6c2041444320696e7075b2
:101c200074207377697463686573000049465000d7
:101c300069665f656e61000069665f6469730000d4
:101c4000610000005465737420636f6d6d616e6494
:101c500020410000620000005465737420636f6dc2
:101c60006d616e642042000064000000546573746e
:101c700020636f6d6d616e64204300007265736553
:101c800074000000506572666f726d206120737978
:101c90007374656d20736f66747761726520726509
:101ca000736574001b5b324a1b5b480055736167a8
:101cb000653a207274635f736574203c686f757257
:101cc0003e203c6d696e7574653e203c7365636fa4
:101cd0006e643e203c6461793e203c6d6f6e74689a
:101ce0003e203c796561723e00000000496e7661dd
:101cf0006c696420686f757220286d75737420623a
:101d00006520302d3233292e20506c65617365209b
:101d1000656e74657220616761696e2e0000000057
:101d2000496e76616c6964206d696e7574652028f2
:101d30006d75737420626520302d3539292e205041
:101d40006c6561736520656e746572206167616999
:101d50006e2e0000496e76616c6964207365636f56
:101d60006e6420286d75737420626520302d3539be
:101d7000292e20506c6561736520656e7465722034
:101d8000616761696e2e0000496e76616c6964203e
:101d900064617920286d75737420626520312d335c
:101da00031292e20506c6561736520656e746572f3
:101db00020616761696e2e00496e76616c696420ee
:101dc0006d6f6e746820286d7573742062652031a4
:101dd0002d3132292e20506c6561736520656e743b
:101de000657220616761696e2e000000496e766140
:101df0006c6964207965617220286d757374206246
:101e0000652032206469676974732c20652e672e03
:101e10002c20323520666f722032303235292e2048
:101e2000506c6561736520656e74657220616761d1
:101e3000696e2e002d2d3e20525443207365742070
:101e4000746f20253032643a253032643a253032be
:101e5000642c20253032642f253032642f32302517
:101e6000303264000000000055736167653a2072eb
:101e700074635f676574203c686172647c736f662d
:101e8000747c776f726b7c65706f63687c616c6c5f
:101e90003e00000068617264000000004661696ce9
:101ea000656420746f2067657420686172642052d5
:101eb00054430d0a00000000736f667400000000b8
:101ec0002d2d3e20536f6674205254433a2054699e
:101ed0006d653a20253032643a253032643a253037
:101ee00032642c20446174653a20253032642f25f9
:101ef0003032642f3230253032640000776f726bdd
:101f0000000000002d2d3e20576f726b696e672018
:101f1000557074696d653a2054696d653a202530b5
:101f200032643a253032643a253032642c204461e0
:101f300079733a202564000065706f6368000000c3
:101f40002d2d3e2045706f63683a20256c7500008a
:101f5000616c6c00556e6b6e6f776e206d6f646593
:101f60002e205573653a207274635f676574203c58
:101f7000686172647c736f66747c776f726b7c656a
:101f8000706f63687c616c6c3e0000005573616724
:101f9000653a207274635f73657465706f6368205f
:101fa0003c65706f63683e00496e76616c696420c1
:101fb00065706f63682e204d757374206265203ed6
:101fc0003d20256c750000004e756d626572206fb6
:101fd00066207461736b732072756e6e696e673afa
:101fe00020256c75000000004e6f207461736b73c8
:101ff00020666f756e64206f72206572726f72203a
:102000006f636375727265642e000000546f7461b3
:102010006c205461736b733a20256c7500000000ce
:102020005461736b204e616d65202020202020209c
:102030002020205374617465202020202050726974
:102040006f2020537461636b204c65667400000040
:102050002d2d2d2d2d2d2d2d2d2d2d2d2d2d2d2db0
:102060002d2d2d2d2d2d2d2d2d2d2d2d2d2d2d2da0
:102070002d2d2d2d2d2d2d2d0000000052756e6e55
:10208000696e67005265616479000000426c6f639d
:102090006b65640053757370656e640044656c65b0
:1020a00074656400556e6b6e6f776e00252d313848
:1020b0007320252d31307320252d346c752025316a
:1020c000306c7500446d657367202d204c6f676719
:1020d0006572204d6573736167653a002d2d3e2052
:1020e0004f6c64657374203e3e0000002d2d3e2031
:1020f0004c6174657374203c3c0000004c61746555
:10210000737420256c75204c6f67733a00000000d3
:102110006175746f636f6d706c6574653a204f4eb6
:10212000000000006175746f636f6d706c6574659d
:102130003a204f46460000006f6e00006f66660052
:1021400055736167653a206175746f636f6d706c6c
:10215000657465205b6f6e7c6f66665d00000000d5
:102160005b424155445d205541525430202d3e2064
:10217000256c7520627073005b424155445d2046ba
:1021800041494c454420666f7220256c7520627071
:102190007300000055736167653a2063616e5f7379
:1021a000656e64203c69643e205b6578745d205bed
:1021b0006230206231202e2e2e2062375d0000001a
:1021c000202063616e5f73656e642030783130303b
:1021d00020307841412030784242202020202020a9
:1021e00020287374616e6461726429002020636129
:1021f0006e5f73656e64203078313233343520651c
:102200007874203078414120307842422028657827
:1022100074656e64656429006578740048696e743d
:102220003a204944203e2030783746462c206164cd
:102230006420276578742720666f7220657874653e
:102240006e646564206672616d65000020206361c4
:102250006e5f73656e6420307831323334352065bb
:10226000787420307841410045585400535444005c
:102270002d2d3e205458204f4b205b25735d3a2076
:1022800049443d3078256c5820444c433d25750029
:102290002d2d3e205458204641494c454400000015
:1022a00055736167653a206373705f70696e67206c
:1022b0003c646573745f616464723e205b74696d35
:1022c000656f75745f6d735d000000002d2d3e20fd
:1022d00050696e67696e6720435350206e6f646566
:1022e000202575202874696d656f757420256c75bf
:1022f0006d73292e2e2e00002d2d3e205265706c00
:10230000792066726f6d2025753a2074696d653d80
:102310002564206d730000002d2d3e204e6f20722d
:1023200065706c792066726f6d2025752028746940
:102330006d656f757429000055736167653a206398
:1023400073705f73656e64203c616464723e203c10
:10235000706f72743e203c646174613e0000000046
:102360004578616d706c653a206373705f73656e5c
:102370006420322031302048656c6c6f0000000012
:102380002d2d3e20436f6e6e656374696f6e2066ff
:1023900061696c65640000002d2d3e204275666603
:1023a000657220616c6c6f63206661696c656400a6
:1023b0002d2d3e2053656e64206661696c65640056
:1023c0002d2d3e2053656e7420257520627974652d
:1023d0007320746f2025753a257500003d3d3d2022
:1023e00043535020496e666f203d3d3d0000000084
:1023f00020204d7920416464726573733a202575fd
:102400000000000020204672656520636c695f62f1
:102410007566733a202575002020496e74657266d2
:10242000616365733a0000002020526f7574652067
:102430007461626c653a00003d3d3d3d3d3d3d3d72
:102440003d3d3d3d3d3d3d3d000000005b25755d52
:10245000000000002020252d313373252d367320f8
:102460003d202575000000002020252d31337325e7
:102470002d3673203d20256c750000002020252d71
:10248000313373252d3673203d2025640000000074
:102490002020252d313373252d3673203d20256cca
:1024a000640000002020252d313373252d36732044
:1024b0003d20252e34660000747275650000000012
:1024c00066616c73650000002020252d3133732573
:1024d0002d3673203d202573000000002020252d7f
:1024e000313373252d3673203d20222573220000c1
:1024f0002020252d313373252d3673203d2028745f
:102500007970652025752040203078253034582991
:102510000000000055736167653a20706172616d5b
:102520005f73686f77203c7461626c655f69643ebd
:10253000000000002020303d426f61726420203195
:102540003d5379734366672020323d4d616e43747d
:10255000726c2020333d4578702020343d54656cea
:10256000656d6574727900004572726f723a2074fd
:1025700061626c655f6964206d75737420626520ab
:10258000302d34003d3d3d205461626c6520257541
:102590003a202573203d3d3d0000000020202020f2
:1025a000526f77733a202575207c204d656d3a2057
:1025b0002575206279746573207c204352433a204c
:1025c00030782530345800002d2d2d003d3d3d3d07
:1025d0003d3d3d3d3d3d3d3d3d3d3d3d3d3d3d0068
:1025e00055736167653a20706172616d5f736574e0
:1025f000203c7461626c655f69643e203c61646488
:10260000723e203c747970653e203c76616c756545
:102610003e0000002020747970653a2075382075de
:1026200031362075333220693820693136206933dc
:10263000322066333220626f6f6c20737472000038
:1026400020204578616d706c653a20706172616d13
:102650005f7365742034203820693136203235307c
:102660000000000075380000753136007533320007
:102670006938000069313600693332006633320050
:10268000626f6f6c0000000073747200556e6b6ea9
:102690006f776e207479706520272573272e20555b
:1026a00073653a20753820753136207533322069cc
:1026b0003820693136206933322066333220626f28
:1026c0006f6c2073747200002d2d3e204f4b3a200a
:1026d0005425755b3078253034585d203d202573b6
:1026e00020282573290000002d2d3e204641494c0d
:1026f0003a206572723d2564202861646472206fff
:102700007574206f662072616e67653f2900000056
:10271000434d445f506f776572534f4d5f4f4e008e
:10272000434d445f506f776572534f4d5f4f464640
:1027300000000000506f77657220534f4d20697381
:10274000204f4e00506f77657220534f4d206973b4
:10275000204f464600000000434d445f506f7765b0
:10276000724275636b506572695f4f4e00000000e6
:10277000434d445f506f7765724275636b5065726d
:10278000695f4f4646000000506f776572204275c2
:10279000636b205065726970686572616c73206943
:1027a00073204f4e00000000506f77657220427515
:1027b000636b205065726970686572616c73206923
:1027c00073204f4646000000434d445f506f7765cd
:1027d000725465635f4f4e00434d445f506f7765a1
:1027e000725465635f4f464600000000506f776586
:1027f0007220546563206973204f4e00506f7765d7
:102800007220546563206973204f46460000000023
:10281000434d445f506f7765724844345f4f4e00bc
:10282000434d445f506f7765724844345f4f46466e
:1028300000000000506f77657220484434206973af
:10284000204f4e00506f77657220484434206973e2
:10285000204f464600000000434d445f506f7765af
:1028600072536f6c656e6f69645f4f4e00000000bd
:10287000434d445f506f776572536f6c656e6f693f
:10288000645f4f4646000000506f77657220536fbb
:102890006c656e6f6964206973204f4e0000000004
:1028a000506f77657220536f6c656e6f6964206935
:1028b00073204f4646000000434d445f506f7765dc
:1028c000724c505f4f4e0000434d445f506f776530
:1028d000724c505f4f464600506f776572204c50e7
:1028e000206973204f4e0000506f776572204c5066
:1028f000206973204f464600434d445f506f776513
:10290000724865617465725f4f4e0000434d445fcd
:10291000506f7765724865617465725f4f46460017
:10292000506f776572204865617465722069732005
:102930004f4e0000506f7765722048656174657274
:10294000206973204f464600434d445f506f7765c2
:1029500072416c6c5f4f4e00434d445f506f776522
:1029600072416c6c5f4f4646000000004c45445f6e
:102970004f4e00004c45445f4f464600557361671b
:102980006520203a206865617465725f7365742004
:102990003c6368616e6e656c20312d383e203c646e
:1029a00075747920302d3130303e00004578616dee
:1029b000706c653a206865617465725f7365742038
:1029c00031203830000000004572726f723a2043a7
:1029d00068616e6e656c206d757374206265206130
:1029e000206e756d6265722028312d382900000037
:1029f0004572726f723a2044757479206d757374e4
:102a00002062652061206e756d6265722028302d10
:102a100031303029000000004572726f723a204355
:102a200068616e6e656c206f7574206f66207261d0
:102a30006e67652028312d38290000004572726fbd
:102a4000723a2044757479206f7574206f66207215
:102a5000616e67652028302d313030252900000057
:102a60002d2d3e204f4b3a204865617465725b25e1
:102a70006c755d2044757479203d20256c75252585
:102a800000000000424d5033393020696e697420d7
:102a90006661696c00000000424d5033393020728d
:102aa000656164206661696c00000000496e7465b0
:102ab000726e616c20424d503339303a0000000094
:102ac00054656d703a20252e3266204320205072c6
:102ad0006573737572653a20252e32662050610049
:102ae00045787465726e616c20424d503339303ace
:102af0000000000055736167653a20736f6c5f7367
:102b0000696e676c655f6f6e203c696e6465783ec8
:102b100000000000496e646578203120746f203118
:102b20003600000053696e676c6520736f6c656ecc
:102b30006f6964206f6e20696e6465783a20257530
:102b40000000000053696e676c6520736f6c656ee2
:102b50006f69643a204661696c00000055736167d3
:102b6000653a20736f6c5f73696e676c655f6f6643
:102b700066203c696e6465783e00000053696e67ac
:102b80006c6520736f6c656e6f6964206f6666207c
:102b9000696e6465783a2025750000005573616799
:102ba000653a20736f6c5f73696e676c655f67650c
:102bb00074203c696e6465783e0000005374617453
:102bc0007573206f662073696e676c6520736f6c18
:102bd000656e6f69642025753a204f4e0000000035
:102be000537461747573206f662073696e676c65ca
:102bf00020736f6c656e6f69642025753a204f46af
:102c00004600000055736167653a207465635f692b
:102c10006e6974203c696e6465783e00496e766129
:102c20006c696420696e646578000000496e6465b3
:102c300078206f7574206f662072616e676520283a
:102c4000312d256429000000696e69742073756355
:102c50006365737300000000696e697420666169c2
:102c60006c0000005445435b256c755d20257300a6
:102c700055736167653a207465635f766f6c203cbd
:102c8000696e6465783e203c6d566f6c3e000000b6
:102c9000496e76616c696420766f6c74616765005b
:102ca0005445435b256c755d206f75747075742099
:102cb000766f6c74616765203d20256c75206d56bc
:102cc0000000000055736167653a207465635f65b5
:102cd0006e203c696e6465783e0000005445435b9d
:102ce000256c755d20656e61626c6520726571751d
:102cf0006573742073656e7400000000557361671e
:102d0000653a207465635f7377656e203c696e6415
:102d100065783e005445435b256c755d2053572014
:102d2000656e61626c652072657175657374207380
:102d3000656e740055736167653a207465635f72f0
:102d4000656164203c696e6465783e203c61646422
:102d5000723e0000496e76616c6964206164647241
:102d6000657373005445435b256c755d2052454780
:102d7000204144443a2030782530326c5820205687
:0c2d8000414c3a2030782530386c580067
:020000040000fa
:020000040042b8
:102d8c0098a943201c00000000000000b4a74320b9
:102d9c0038000000000000001fa1432001000000cb
:102dac000000000078ab4320080000000000000089
:102dbc0020004020250800000400000000ff00ff58
:102dcc0000ff00ff00ff00ff00ff00ff002d0000d0
:102ddc00116e4320010000000000000055724320da
:102dec000100000000000000efac432001000000d7
:102dfc000000000084b143206000000004000000cb
:102e0c00000414a20800011600030100070b0003c4
:102e1c00020003ff0100020900030300070900037d
:102e2c00040006ff2000030500030f000304000349
:102e3c0006000704000307000707000318ab432034
:102e4c001000000000000000c4aa43201000000085
:102e5c000000000028ab4320080000000000000028
:102e6c00b4a943201c00000000000000f4aa432079
:102e7c000c0000000000000030ab432020000000dc
:102e8c0000000000eca74320300000000000000010
:102e9c004ca84320580000000000000018a9432053
:102eac00200000000000000080ab43200800000060
:102ebc00000000001ca843203000000000000000af
:102ecc00f0ac43200300000000000000f4a64320f7
:102edc004000000000000000f3ac432001000000a3
:102eec000000000080a343205c00000000000000f4
:102efc00689b4320a401000000000000a4a843200c
:102f0c00280000000000000098994320d001000028
:102f1c000000000060184320281200000000000090
:102f2c000c9d432014010000000000008866432023
:102f3c008907000000000000f4ac432001000000f1
:102f4c0000000000f4a84320240000000000000052
:102f5c0088ab43200c00000000000000acb4432000
:102f6c001800000004000000000272420ad7a33dc2
:102f7c000002803f0006c842cdcccc3dc4b44320f7
:102f8c001800000001000000000048420ad7a33dd1
:102f9c009a99993f0000c8c200000000cdcccc3dee
:102fac00dcb4432018000000040000000002724250
:102fbc000ad7a33d9a99993f0006c842cdcccc3d87
:102fcc00f4b4432018000000040000000002484242
:102fdc00cdcccc3d0002803f0006c842cdcccc3dd0
:102fec000cb54320300000000100000000004842f6
:102ffc00cdcccc3d0000803f0000c8c200000000da
:10300c00cdcccc3d0000c842cdcccc3d0000803fa7
:10301c000000c8c200000000cdcccc3df5ac432074
:10302c00010000000000000044b243205c000000de
:10303c000400000000040103800c0002800ca00faf
:10304c003c0001010001a00fa00f320003a00fb83b
:10305c000b780001020001b80bb80b00340400011e
:10306c00a0b243205c000000040000000006a00f8a
:10307c000002f00aac0d3c0001010001ac0dac0dde
:10308c00320003ac0df00a280001020001f00af036
:10309c000a00340400010000389143206002000053
:1030ac000000000038a943202000000000000000b0
:1030bc0094ab43200800000000000000ecb3432058
:1030cc000400000004000000000260000100000089
:1030dc0074b84320040000000400000000027000db
:1030ec000100000060084020008000000200000089
:1030fc009cab432004000000000000009699432084
:10310c000200000000000000a0ab432004000000ff
:10311c00000000007ea3432002000000000000001d
:10312c00a4ab43201800000000000000d0b54320e1
:10313c000e00000004000000170001e803d007e8af
:10314c00036400010a00016400010000d0a94320bf
:10315c001c00000000000000bcab43200400000079
:10316c0000000000f6ac432002000000000000004c
:10317c00c0ab43200400000000000000b0aa4320b4
:10318c001200000000000000588e4320e0020000f6
:10319c0000000000c4ab432004000000000000004d
:1031ac0078b8432004000000010000006400000017
:1031bc00884643200008000000000000dca34320e8
:1031cc005c00000000000000209e43200001000075
:1031dc0000000000f8ac43200100000000000000db
:1031ec0058724320000400000000000038a4432063
:1031fc005c00000000000000c8ab4320040000008d
:10320c0000000000209f432000010000000000008f
:10321c00ccab43200c00000000000000f9ac4320b4
:10322c000100000000000000d8ab43200c0000009f
:10323c00000000007cb843200400000001000000e6
:10324c00efbeaddec0a143208000000000000000f6
:10325c00faac432001000000000000003cb5432004
:10326c001400000001000000187743002077430091
:10327c00307743003c77430048774300fbac432056
:10328c00020000000000000094a443205c00000039
:10329c0000000000acb3432020000000010000003f
:1032ac00f8764200007742001477420024774200ff
:1032bc0034774200447742005477420060774200f2
:1032cc0088b3432024000000010000006c7742000a
:1032dc00787742008477420094774200a4774200ca
:1032ec00b0774200bc774200c4774200d0774200ee
:1032fc00c2aa43200200000000000000883a4320cc
:10330c00000c000000000000884e43200008000064
:10331c0000000000e4ab43200400000000000000ab
:10332c00e8ab43200400000000000000fdac43208b
:10333c000100000000000000feac43200100000072
:10334c0000000000ecab43200c000000000000006b
:10335c00eca943201c0000000000000080b84320b2
:10336c001c00000001000000308343003483430044
:10337c00388343003c834300408343004483430031
:10338c0048834300f8ab4320080000000000000015
:10339c00989343200002000000000000146e4320ac
:1033ac004104000000000000f0b043209200000037
:1033bc0004000000434d2d455850000a43000701fe
:1033cc0000020b372c382c3132006ae80300040061
:1033dc00fcb243204a000000040000000004736f9c
:1033ec006d00017065726974656300016864340076
:1033fc0001736c6e00016c7370646874657201010a
:10340c00000573656e3173656e3273656e3373656b
:10341c006e3473656e356864340007010001010079
:10342c000200000034af4320ec0000000400000058
:10343c000001736f6c31736f6c32736f6c33736f1d
:10344c006c340005736c310001736c320001736cc9
:10345c00330001736c340001736c350001736c36ee
:10346c000001736c370001736c380001736c390008
:10347c0001736c3130736c3131736c3132736c316c
:10348c0033736c3134736c3135736c3136001163ba
:10349c006831316368313263683231636832326368
:1034ac0068333163683332636834316368343200b3
:1034bc000b7465633174656332746563337465636f
:1034cc003400096874310001687432000168743387
:1034dc0000016874340001687435000168743600aa
:1034ec0001687437000168743800124f4b000e00ed
:1034fc0020b04320cf00000004000000000e6c64dc
:10350c003100016c643200016c643300016c643472
:10351c0000016c643500016c643600016c6437008a
:10352c00016c643800016c643900016c6431306cde
:10353c006431316c6431326c6431336c6431346cb1
:10354c006431356c6431366c6431376c6431386c91
:10355c006431396c6432306c6432316c6432326c8c
:10356c006432336c64323400610000000cad4320d3
:10357c002701000004000000000f4f4b00066e7482
:10358c0063316e7463326e7463336e7463346e7451
:10359c0063356e7463366e7463376e746338ffff15
:1035ac00ffffffffffffffffffffffffffff736545
:1035bc006e3173656e3273656e3373656e3473651d
:1035cc006e35ffffffffffffffffffff7072730001
:1035dc000174656d70ffffffff6178000261790077
:1035ec0002617a00026778000267790002677a004c
:1035fc000274656d70ffffffffffffffffffffff12
:10360c00ffffff69660002687465726c7370647307
:10361c006f6d00016864340001736c6e0001746599
:10362c0063317465633274656333746563340c00a1
:10363c00010c00010c000105000105000105000151
:10364c00350001ffffffffffffffff696600026807
:10365c007465726c737064736f6d00016864340010
:10366c0001736c6e0001746563317465633274654b
:10367c00633374656334ffffffffffffffffffff42
:10368c00ffffffffffffffffffff49444c45000e0c
:10369c0000ac432004000000000000009897432079
:1036ac00fe0100000000000020a04320ff000000ed
:1036bc00000000001ca3432062000000000000007a
:1036cc00882a43200010000000000000cca84320f2
:1036dc00280000000000000004ac4320080000009b
:1036ec0000000000ffac43200200000000000000be
:1036fc0014b8432010000000010000002cb8432037
:10370c007600000050ab43207700000024b8432023
:10371c00080000000400000001000700e0b5432091
:10372c000c000000040000000100031f0007000053
:10373c00ecb543200c000000040000000300031053
:10374c0000070000f8b543200c0000000400000046
:10375c00030003070007000004b643200c00000020
:10376c0004000000010003100007000010b6432005
:10377c000c00000001000000040000000c00000020
:10378c00010000001cb643200c00000004000000e7
:10379c00040007010003000028b6432018000000b5
:1037ac0001000000010000000f00000001000000fb
:1037bc0001000000120000000100000040b6432090
:1037cc000c000000040000000400030500070000ca
:1037dc004cb643200c00000004000000050003045c
:1037ec000007000058b643200c0000000400000045
:1037fc00040003040007000064b643200c00000022
:10380c0004000000040003030007000070b643200e
:10381c000c0000000400000004000302000700007c
:10382c007cb643200c0000000400000004000306da
:10383c000007000088b643200c00000004000000c4
:10384c00050003030007000094b643200c000000a1
:10385c00040000000200030c0007000050ab4320e2
:10386c000800000000000000a0b643200c0000007f
:10387c00040000000300030b000700002cb84320d9
:10388c0008000000040000000100070034b84320c9
:10389c000800000004000000020007003cb84320b0
:1038ac00080000000400000002000700acb6432032
:1038bc000c000000010000000300000012000000da
:1038cc0001000000b8b643200c000000040000000a
:1038dc000100031e00070000c4b643200c000000ca
:1038ec0001000000030000001400000001000000b3
:1038fc00d0b643200c000000040000000400030daf
:10390c0000070000dcb643200c00000001000000a2
:10391c00030000001600000001000000e8b6432080
:10392c000c0000000400000003000301000700006d
:10393c00f4b643200c00000001000000040000005d
:10394c000b0000000100000000b743200c00000039
:10395c000400000003000302000700000cb7432022
:10396c000c0000000400000001000302000700002e
:10397c0018b743200c0000000400000003000313e0
:10398c000007000024b743200c00000004000000d6
:10399c00040003120007000030b743200c000000a5
:1039ac000400000005000305000700003cb743209d
:1039bc000c000000040000000100031700070000c9
:1039cc0048b743200c00000004000000010003165f
:1039dc000007000054b743200c0000000400000056
:1039ec00010003190007000060b743200c00000021
:1039fc000400000001000318000700006cb743200e
:103a0c000c00000001000000040000001300000086
:103a1c000100000044b84320080000000100000031
:103a2c003cb843206cb7432078b743200c0000000f
:103a3c000400000003000311000700004cb84320f1
:103a4c0008000000040000000200070084b74320b7
:103a5c000c00000001000000030000001c0000002e
:103a6c0001000000a0b54320100000000100000080
:103a7c0084b743204cb84320000000000000000035
:103a8c0090b743200c000000040000000300030961
:103a9c00000700009cb743200c000000040000004d
:103aac000300030a00070000a8b743200c00000025
:103abc00040000000100031c00070000b4b7432001
:103acc000c000000040000000100031d00070000b2
:103adc00c0b743200c0000000400000005000301e7
:103aec0000070000ccb743200c00000004000000cd
:103afc000400030e00070000d8b743200c000000a0
:103b0c00040000000400030900070000e4b7432090
:103b1c000c000000040000000400030a0007000071
:103b2c00f0b743200c000000040000000400030860
:103b3c000007000034a743204000000000000000f4
:103b4c0050b54320280000000100000024b8432099
:103b5c00f8b5432003000000000000000000000046
:103b6c0024b8432004b643200100000000000000ec
:103b7c0000000000b0b54320100000000100000060
:103b8c0024b84320e0b54320ecb5432000000000ee
:103b9c0008aa43201c0000000000000000ab4320da
:103bac0018000000000000000cac432004000000d2
:103bbc000000000054b84320080000000100000081
:103bcc002cb843206b00000078b54320280000007f
:103bdc000100000024b8432010b64320030000006d
:103bec00000000000000000024b843201cb6432055
:103bfc0028b6432034b643200000000010ac43200c
:103c0c00080000000000000001ad4320010000008e
:103c1c0000000000fcb74320180000000100000069
:103c2c002cb84320560000000000000034b843209c
:103c3c002000000000000000ccb343202000000056
:103c4c00010000000cb7432018b7432024b74320d1
:103c5c0030b743203cb7432048b7432054b74320e8
:103c6c0060b743205cb8432008000000010000004e
:103c7c002cb843204c000000f0b34320800000001f
:103c8c00010000003cb84320acb64320000000000b
:103c9c00b8b6432000000000000000000000000047
:103cac00000000003cb84320c4b6432000000000d4
:103cbc00d0b643200000000000000000000000000f
:103ccc00000000003cb84320dcb64320000000009c
:103cdc00e8b64320000000000000000000000000d7
:103cec00000000003cb84320f4b643200000000064
:103cfc0000b743200000000000000000000000009e
:103d0c0000000000c0b543201000000001000000be
:103d1c00f0b3432010b4432030b4432050b44320bc
:103d2c0018ac43200400000000000000587643202b
:103d3c00000800000000000088564320001000001e
:103d4c000000000034ae4320000100000100000020
:103d5c00001a0e40000000000000000000000000ef
:103d6c000000000000000000000000000000000047
:103d7c000000000000000000000000000000000037
:103d8c000000000000000000000000000000000027
:103d9c000000000000000000000000000000000017
:103dac000000000000000000000000000000000007
:103dbc000000000058764320587a4320000400008d
:103dcc0000040000000000000000000000000000e3
:103ddc0000080e4000000000000000000000000081
:103dec0000000000000000000000000000000000c7
:103dfc0000000000000000000000000000000000b7
:103e0c0000000000000000000000000000000000a6
:103e1c000000000000000000000000000000000096
:103e2c000000000000000000000000000000000086
:103e3c000000000088564320885e432000080000e4
:103e4c00000800000000000000000000000000005e
:103e5c00ecac432003000000000000001cac43202d
:103e6c000400000000000000d4aa43202000000041
:103e7c000000000020a14320a00000000000000072
:103e8c0058a94320200000000000000002ad432090
:103e9c000200000000000000126e4320020000002f
:103eac000000000004ad43200100000000000000f1
:103ebc0056724320020000000000000005ad4320b4
:103ecc0002000000000000009cb843200400000029
:103edc000200aaaa07ad4320010000000000000068
:103eec0020ac43200400000000000000608840204b
:103efc00009001000000000058ab432008000000b7
:103f0c000000000024ac432014000000000000005e
:103f1c0074a74320400000000000000038ac432090
:103f2c000400000000000000b8a243206400000060
:103f3c000000000024aa432028000000000000001c
:103f4c003cac432008000000000000004caa4320b9
:103f5c00280000000000000044ac432004000000d6
:103f6c000000000074aa43201400000000000000b0
:103f7c0048ac43202c00000000000000f0a44320bb
:103f8c005c00000000000000989543200002000037
:103f9c00000000004ca543205c0000000000000065
:103fac00587e4320000400000000000088aa432033
:103fbc00280000000000000074ac43201400000036
:103fcc000000000004a64320a00000000000000038
:103fdc0088ac43200c0000000000000058824320f5
:103fec000004000000000000a8a543205c000000b5
:103ffc000000000094ac43200c0000000000000006
:10400c0040a24320780000000000000048b3432089
:10401c004000000001000000387445000000000062
:10402c000000000095184500000000000000000092
:10403c000000000000000000000000000000000074
:10404c000000000000000000000000000000000064
:10405c000000000000000000a0ac432004000000a1
:10406c0000000000a0b843201c000000010000006c
:10407c000400000010270000e8030000010000000d
:10408c00fa0000000200000001000000a4ac432074
:10409c00100000000000000008ad432001000000eb
:1040ac0000000000b4ac432004000000000000003d
:1040bc0009ad43200100000000000000b8ac432013
:1040cc00040000000000000064b84320070000005a
:1040dc00010000000101000000000000bcac432006
:1040ec00040000000000000078a94320200000001c
:1040fc0000000000c0ac43200800000000000000dd
:10410c00bcb8432004000000010000004d6b4500ca
:10411c0060184220000001000000000060ab43204a
:10412c000800000000000000c8ac43200c00000098
:10413c00000000005886432000080000000000002a
:10414c0090b443201c00000001000000000000009f
:10415c000100000000000000000000005886432011
:10416c0000000000588a43206cb843200600000071
:10417c0001000000010100000000000068ab4320ba
:10418c000800000000000000d4ac43200800000030
:10419c00000000000aad43200100000000000000f8
:1041ac00dcac43200800000000000000a4a6432063
:1041bc005000000000000000e4ac432008000000a8
:1041cc000000000070b4432020000000010000003b
:1041dc0001000000030000000000000000000000cf
:1041ec0000000000000000000000000070ab432045
:1041fc0070ab43200800000000000000e4b1432035
:10420c00600000000100000001000000030000003d
:10421c000000000000000000000000000000000092
:10422c000000000095e644000000000000000000c3
:10423c00000000001b744500352345000000000001
:10424c000000000000000000000000000000000062
:10425c000000000000000000000000000000000052
:10426c000000000000000000000000000000000042
:10427c0066666666666666666666666666666666d2
:020000040000fa
:020000040042b8
:10428c005244502025703a204e6f20737061636544
:10429c0020666f72205244502068656164657220fc
:1042ac0028636d70290000005244502025703a207c
:1042bc0053656e6420434d5020532025753a20736e
:1042cc00796e2025752c2061636b2025752c20655b
:1042dc0061636b2025752c207273742025752c203e
:1042ec007365715f6e72202535752c2061636b5f71
:1042fc006e72202535752c207061636b65745f6c54
:10430c00656e202575202825752900005244502003
:10431c0025703a20494e544552464143452045525a
:10432c00524f523a206e6f7420706f737369626cc7
:10433c006520746f2073656e640000005244502039
:10434c0025703a2043616e6e6f74206465717565db
:10435c0075652066726f6d2072785f717565756515
:10436c0020696e2071756575652064656c6976656c
:10437c00720000005244502025703a20416464655c
:10438c0064204541434b206e7220257500000000cf
:10439c005244502025703a20436f6e6e20525820a4
:1043ac006275666665722066756c6c0052445020ae
:1043bc0025703a2052582051756575652064656cde
:1043cc0069766572206d61746368696e6720456cef
:1043dc00656d656e742c2073657120257500000069
:1043ec005244502025703a2044656c6976657220e1
:1043fc0073657120257500005244502025703a20b9
:10440c0043616e6e6f7420646571756575652066a9
:10441c00726f6d2072785f717565756520696e209d
:10442c00717565756520657869737473000000009b
:10443c005244502025703a205258205175657565ac
:10444c0020657869737473206d61746368696e6735
:10445c0020456c656d656e742c2073657120257517
:10446c00000000005244502025703a205765206807
:10447c006176652061206d61746368005244502040
:10448c0025703a2043616e6e6f742064657175659a
:10449c0075652066726f6d2074785f7175657565d2
:1044ac0020696e20666c757368204541434b000093
:1044bc005244502025703a204541434b20636f6d88
:1044cc007061726520656c656d656e742c20746905
:1044dc006d6520256c752c20736571202575000089
:1044ec005244502025703a20545820456c656d6517
:1044fc006e742025752066726565640052445020e8
:10450c0025703a204e756c6c20706f696e746572f4
:10451c002070617373656420746f20726470206600
:10452c006c75736820616c6c000000005244502064
:10453c0025703a20466c75736820545820456c657c
:10454c006d656e742c2074696d6520256c752c203e
:10455c0073657120257500005244502025703a2057
:10456c00466c75736820525820456c656d656e7489
:10457c002c2074696d6520256c752c207365712059
:10458c00257500005244502025703a20466f756ef8
:10459c00642061206c6f737420636f6e6e6563743e
:1045ac00696f6e20286e6f773a20256c752c2074fd
:1045bc00733a20256c752c20746f3a20256c752964
:1045cc002c20636c6f73696e67000000524450209e
:1045dc0025703a2043616e6e6f7420646571756549
:1045ec0075652066726f6d2074785f717565756581
:1045fc0020696e20636865636b2074696d656f75e7
:10460c00740000005244502025703a205458204524
:10461c006c656d656e7420467265652c2074696dd1
:10462c006520256c752c207365712025752c2075e3
:10463c006e612025750000005244502025703a20f0
:10464c00545820456c656d656e742074696d656495
:10465c00206f75742c2072657472616e736d697441
:10466c0074696e6720736571202575005244502063
:10467c0025703a2052657472616e736d697373693b
:10468c006f6e206661696c656400000052445020b6
:10469c0025703a2057616b65205478207461736bd8
:1046ac002028636865636b2074696d656f7574731e
:1046bc00290000005244502025703a205265636551
:1046cc006976656420696e20532025753a207379cc
:1046dc006e2025752c2061636b2025752c2065615f
:1046ec00636b2025752c207273742025752c207318
:1046fc0065715f6e72202535752c2061636b5f6e62
:10470c0072202535752c207061636b65745f6c6548
:10471c006e20257520282575290000005244502054
:10472c0025703a205253542072656365697665642e
:10473c0020696e20434c4f534544202d2069676ef1
:10474c006f726564000000005244502025703a20be
:10475c0052535420726563656976656420696e20d6
:10476c00434c4f53455f574149542c2061636b3a7e
:10477c00202564202d20636c6f73696e6700000028
:10478c005244502025703a20526563656976656401
:10479c002052535420696e2073657175656e636584
:1047ac002c206e6f206d6f726520646174612069be
:1047bc006e636f6d696e672c207265706c792077f3
:1047cc0069746820525354005244502025703a208a
:1047dc00525354206f7574206f6620736571756524
:1047ec006e63652c206b65657020636f6e6e656300
:1047fc0074696f6e206f70656e000000524450201b
:10480c0025703a204e6f742053594e2072656365a3
:10481c006976656420696e20434c4f534544207380
:10482c00746174652e2044697363617264696e6788
:10483c00207061636b6574005244502025703a20df
:10484c0053594e2d5265636569766564000000000e
:10485c005244502025703a2077696e646f7720732c
:10486c00697a6520256c752c20636f6e6e207469d7
:10487c006d656f757420256c752c207061636b658c
:10488c00742074696d656f757420256c752c2064ab
:10489c00656c617965642061636b733a20256c7576
:1048ac002c2061636b2074696d656f757420256ca9
:1048bc00752c2061636b206561636820256c752005
:1048cc007061636b657400005244502025703a206f
:1048dc004e503a20436f6e6e656374696f6e204f55
:1048ec0050454e005244502025703a2057616b655c
:1048fc00205478207461736b202861636b2900004d
:10490c005244502025703a2048616c662d6f7065ba
:10491c006e20636f6e6e656374696f6e20666f7563
:10492c006e642c2073656e642052535420616e6447
:10493c002077616b65205478207461736b000000e4
:10494c005244502025703a20496e76616c6964207f
:10495c007265706c7920746f2053594e207265719a
:10496c0075657374000000005244502025703a2085
:10497c00496e76616c69642053594e206f72206ebb
:10498c006f2041434b2c20726573657474696e679c
:10499c00210000005244502025703a2049676e6f68
:1049ac0072696e67206475706c69636174652053fd
:1049bc00594e207061636b65742100005244502085
:1049cc0025703a20496e76616c6964207365717547
:1049dc00656e6365206e756d62657221202575208c
:1049ec006e6f74206265747765656e202575206125
:1049fc006e6420256c7500005244502025703a20be
:104a0c00496e76616c69642041434b206e756d6212
:104a1c00657221202575206e6f7420626574776530
:104a2c00656e20256c7520616e6420257500000074
:104a3c005244502025703a2053594e2d524356441f
:104a4c003a2057726f6e672041434b206e756d6232
:104a5c00657200005244502025703a204e433a2093
:104a6c00436f6e6e656374696f6e204f50454e00d8
:104a7c005244502025703a204552524f5220736fa9
:104a8c00636b65742063616e6e6f74206163636524
:104a9c007074206d6f726520636f6e6e65637469e0
:104aac006f6e73005244502025703a204475706c20
:104abc0069636174652073657175656e6365206edd
:104acc00756d6265720000005244502025703a20ca
:104adc00496e76616c69642053594e206f72206e5a
:104aec006f2041434b20696e20434c4f53452d574b
:104afc00414954005244502025703a204552524f9f
:104b0c00522064656661756c7420737461746521e0
:104b1c00000000005244502025703a204163746913
:104b2c00766520636f6e6e6563742c20636f6e6e9a
:104b3c002073746174652025750000005244502068
:104b4c0025703a20436f6e6e656374696f6e2061d9
:104b5c006c7265616479206f70656e0052445020f0
:104b6c0025703a2041433a2053656e64696e672084
:104b7c0053594e005244502025703a2041433a205c
:104b8c0057616974696e6720666f722053594e2f96
:104b9c0041434b207265706c792e2e2e0000000064
:104bac005244502025703a2041433a20436f6e6e98
:104bbc00656374696f6e204f50454e00524450200f
:104bcc0025703a2048616c662d6f70656e20636f9e
:104bdc006e6e656374696f6e20646574656374656d
:104bec00642c205253542073656e742c206e6f7796
:104bfc00207265747279696e67000000524450200f
:104c0c0025703a20436f6e6e656374696f6e207306
:104c1c0074617965642068616c662d6f70656e2cab
:104c2c00206576656e20616674657220525354203f
:104c3c00616e6420726574727921000052445020b8
:104c4c0025703a2041433a20436f6e6e6563746958
:104c5c006f6e204661696c65640000005244502000
:104c6c0025703a204552524f522063616e6e6f741c
:104c7c002073656e642c20636f6e6e656374696f50
:104c8c006e206e6f74206f70656e2028256429006d
:104c9c005244502025703a2057616974696e672020
:104cac00666f722077696e646f77207570646174bb
:104cbc0065206265666f72652073656e64696e67e8
:104ccc0020736571202575005244502025703a20c0
:104cdc0054696d656f757420647572696e672073a5
:104cec00656e64005244502025703a204552524f54
:104cfc00522063616e6e6f742073656e642c20633a
:104d0c006f6e6e656374696f6e206e6f74206f705a
:104d1c00656e2028256429202d3e207265736574ec
:104d2c00000000005244502025703a204e6f207332
:104d3c007061636520666f72205244502068656113
:104d4c00646572202873656e6429000052445020fb
:104d5c0025703a204661696c656420746f20616c23
:104d6c006c6f63617465207061636b657420627530
:104d7c0066666572000000005244502025703a208f
:104d8c004e6f206d6f726520737061636520696e64
:104d9c00205244502072657472616e736d69742078
:104dac0071756575650000005244502025703a20dd
:104dbc0053656e64696e672020696e2053202575db
:104dcc003a2073796e2025752c2061636b20257534
:104ddc002c206561636b2025752c20727374202543
:104dec00752c207365715f6e72202535752c2061d2
:104dfc00636b5f6e72202535752c207061636b655b
:104e0c00745f6c656e2025752028257529000000bf
:104e1c005244502025703a204372656174696e6764
:104e2c0020524450207175657565730052445020b2
:104e3c0025703a204661696c656420746f20696e38
:104e4c00697469616c697a652073656d6170686fee
:104e5c00726500005244502025703a204661696cfe
:104e6c00656420746f2063726561746520545820ea
:104e7c00717565756520666f7220636f6e6e0000cc
:104e8c005244502025703a204661696c6564207448
:104e9c006f20637265617465205258207175657559
:104eac006520666f7220636f6e6e00002c20736538
:104ebc006e742052535400000000000052445020e5
:104ecc0025703a206373705f7264705f636c6f73ec
:104edc00652830782578292573202d3e20434c4faa
:104eec0053455f5741495400207573657273706167
:104efc00636500002070726f746f636f6c0000004c
:104f0c002074696d656f7574000000005244502068
:104f1c0025703a206373705f7264705f636c6f739b
:104f2c00652830782578292c2077616974696e673b
:104f3c0020666f723a2573257325730052445020f6
:104f4c0025703a206373705f7264705f636c6f736b
:104f5c0065283078257829202d3e20434c4f534529
:104f6c0044000000095244503a20533a256420284a
:104f7c00636c6f7365642062792030782578292cf6
:104f8c00207263762025752c20736e642025752c79
:0b4f9c002077696e20256c750d0a005f
:020000040000fa
:020000040042b8
:104fa80090034200980342009c0342000000000066
:104fb8000000000029a7420090034200c8034200f5
:104fc800d00342000000000000000000f9bd4200cc
:104fd800900342000404420008044200000000005c
:104fe80000000000713b4500900342002c04420081
:104ff8003c0442000100000000000000496a44002f
:105008006c044200740442007c0442000100000069
:1050180000000000095243006c044200b004420042
:10502800b8044200010000000000000031204300e5
:105038006c044200ec044200f80442000100000045
:1050480000000000852f44002c0542003405420072
:105058003c05420000000000000000005d22430003
:105068002c0542007005420078054200010000004e
:1050780000000000019844002c054200a4054200ed
:10508800ac0542000000000000000000ed6a44008a
:10509800d8054200e0054200f0054200000000008b
:1050a80000000000dd3c4400d80542002006420014
:1050b8002c0642000000000000000000e1904300c0
:1050c80060064200640642007006420001000000cb
:1050d800000000006d694300a4064200a8064200d3
:1050e800b4064200010000000000000085214400d1
:1050f800a4064200e8064200f4064200010000004f
:1051080000000000a9a14300a406420028074200ad
:10511800340742000000000000000000958d4400a4
:1051280068074200700742007c0742000100000047
:105138000000000015ba430068074200bc0742009f
:10514800c80742000100000000000000c5b242008c
:1051580010084200140842001c0842000100000028
:1051680000000000452d450010084200400842009c
:105178004c08420001000000000000007d2d4500a1
:1051880070084200740842008408420001000000d0
:10519800000000001561440070084200b408420095
:1051a800c40842000100000000000000c161440082
:1051b80070084200f8084200080942000100000097
:1051c80000000000294844007008420040094200dd
:1051d800540942000100000000000000fd84440062
:1051e8007008420094094200a8094200010000002a
:1051f8000000000091854400e8094200ec094200e3
:10520800f8094200010000000000000069bc4300ea
:105218002c0a4200340a4200440a420000000000fe
:1052280000000000a13b45002c0a4200680a420029
:10523800780a42000000000000000000d13b450051
:105248002c0a42009c0a4200ac0a420000000000fe
:1052580000000000111445002c0a4200d00a420048
:10526800e40a42000000000000000000013c450084
:105278002c0a4200080b42001c0b420000000000f0
:1052880000000000313c45002c0a4200400b42005f
:10529800540b4200000000000000000055144500b7
:1052a8002c0a4200800b4200900b420000000000d4
:1052b80000000000613c45002c0a4200b00b42008f
:1052c800c00b42000000000000000000913c4500b7
:1052d8002c0a4200e00b4200f00b420000000000e4
:1052e80000000000991445002c0a42000c0c4200f2
:1052f8001c0c42000000000000000000c13c4500fa
:105308002c0a42003c0c42004c0c420000000000f9
:1053180000000000f13c45002c0a42006c0c4200e1
:105328007c0c42000000000000000000dd14450075
:105338002c0a42009c0c4200b00c42000000000005
:1053480000000000213d45002c0a4200d40c420018
:10535800e80c42000000000000000000513d45003c
:105368002c0a42000c0d4200200d420000000000f3
:1053780000000000211545002c0a4200400d4200a3
:105388004c0d42000000000000000000813d450077
:105398002c0a4200680d4200780d4200000000000f
:1053a80000000000b13d45002c0a4200980d420063
:1053b800a80d42000000000000000000651545002f
:1053c8002c0a4200c40d4200d40d42000000000027
:1053d80000000000e13d45002c0a4200f40d4200a7
:1053e800080e42000000000000000000113e4500c9
:1053f8002c0a42002c0e4200400e42000000000021
:1054080000000000a91545002c0a4200600e420069
:10541800700e42000000000000000000413e450000
:105428002c0a4200980e4200a80e4200000000001c
:1054380000000000713e45002c0a4200d00e4200d8
:10544800e00e420000000000000000000dae430026
:10545800000f4200080f4200180f42000000000031
:105468000000000039504400000f4200480f42007d
:10547800580f420000000000000000007141440085
:10548800880f4200900f4200980f42000100000070
:10549800000000009d7b4400880f4200c80f4200b6
:1054a800d80f4200010000000000000061e944003c
:1054b800880f42000c1042001c104200000000003f
:1054c8000000000081f94400880f420044104200a7
:1054d800501042000100000000000000ade8430049
:1054e800781042007c104200881042000100000041
:1054f80000000000ad0c440078104200b4104200d7
:10550800bc104200010000000000000035f7430015
:1055180078104200e0104200e8104200010000004c
:1055280000000000d58344007810420004114200b6
:1055380010114200010000000000000069844400ce
:105548007810420038114200481142000100000062
:1055580000000000a1e74300741142007c114200e2
:10556800901142000100000000000000c56e4400d8
:1055780074114200bc114200cc114200010000002d
:1055880000000000357c440074114200f411420010
:10559800081242000100000000000000cd7c440019
:1055a80074114200341242004c1242000100000003
:1055b800000000008d67450074114200501242003f
:1055c800641242000100000000000000f150440095
:1055d800941242009c1242004c124200010000004a
:1055e8000000000009a54400a8124200ac124200c5
:1055f800b812420001000000000000007d0f4400c6
:10560800a8124200f01242000013420001000000fc
:10561800000000001d734400281342002c134200b0
:1056280038134200010000000000000089a4440073
:10563800281342006813420078134200010000005a
:1056480000000000dd88430028134200a813420030
:10565800b8134200010000000000000091d7430089
:1056680028134200e0134200ec134200010000003e
:1056780000000000cd26450028134200081442000f
:10568800141442000100000000000000e548440036
:10569800401442004814420058144200010000001f
:1056a8000000000001064400781442007c14420007
:1056b800881442000100000000000000a996420082
:1056c80078144200b0144200bc14420001000000eb
:1056d80000000000b5dc4400e4144200ec14420071
:1056e800f81442000100000000000000fd4d4500d4
:1056f800e414420010154200201542000100000089
:1057080000000000254e4500e41442003815420010
:1057180048154200010000000000000061524400ea
:10572800e41442006c1542007c15420001000000a0
:1057380000000000699f4400a4154200ac15420017
:10574800c01542000100000000000000ed454500c2
:10575800a4154200e0154200f415420001000000c3
:1057680000000000ed154500a4154200281642006f
:105778003c1642000100000000000000c76345001d
:10578800a415420068164200781642000100000085
:1057980000000000c1634400a4154200a4164200a2
:1057a800b4164200010000000000000069644400d3
:1057b800a4154200e4164200f81642000100000059
:1057c80000000000f5484300a415420024174200d9
:1057d80038174200010000000000000009d2430011
:1057e800a41542005417420060174200010000004f
:1057f8000000000011654400a41542008c17420007
:105808009017420001000000000000000927450031
:10581800bc174200c4174200d41742000100000020
:1058280000000000a5674500bc17420000184200b0
:10583800d41742000100000000000000bd674500c9
:10584800bc17420010184200d417420001000000a3
:1058580000000000a9514400bc1742001c18420077
:10586800d417420001000000000000008924430012
:10587800bc17420028184200d4174200010000005b
:1058880000000000ddcb4200341842003c18420002
:1058980050184200010000000000000039f84300e1
:1058a800341842008018420090184200010000009d
:1058b80000000000b9e9430034184200bc18420057
:1058c800cc18420001000000000000004dcb43004e
:1058d80034184200f818420008194200010000007c
:1058e8000000000091bd4300341842003419420002
:1058f800441942000100000000000000c5ea43000e
:10590800341842006819420074194200010000006e
:105918000000000045464500341842009419420032
:10592800a4194200010000000000000019464500cb
:1059380034184200c8194200d4194200010000007e
:10594800000000004527450034184200fc194200b9
:105958000c1a420001000000000000006910440019
:10596800341842003c1a4200501a4200010000005c
:105978000000000039b1440034184200701a420097
:10598800801a42000100000000000000b1b144008c
:10599800341842009c1a4200ac1a42000100000070
:1059a8000000000059e34400cc1a4200d81a420013
:1059b800e41a4200010000000000000001f043006a
:1059c800cc1a4200141b4200201b420001000000b8
:1059d8000000000061224400cc1a4200481b42002b
:1059e800541b4200010000000000000025c14400d3
:1059f800cc1a4200801b4200881b420001000000b4
:105a08000000000045d14400cc1a4200bc1b4200f3
:105a1800c41b42000100000000000000add144009a
:105a2800cc1a4200f81b4200041c4200010000008e
:105a380000000000910045002c1c4200301c420070
:105a4800041c420001000000000000005d674500e2
:105a58002c1c4200381c4200041c420001000000bb
:105a6800000000007567450000000000401c42006f
:105a7800441c4200000000000000000015674500bb
:105a880000000000541c4200581c420000000000a6
:105a9800000000002d67450000000000681c42005f
:105aa8006c1c420000000000000000004567450033
:105ab800000000007c1c4200841c42000000000022
:085ac80000000000837145009d
:020000040000fa
:020000040042b8
:105ad000f0b591b008aff860b9600023fb77b86803
:105ae0002ff0bafdb861bb69b3f803309bb218461a
:105af00030f0eefb03461a46bb69a3f80320bb69ee
:105b0000b3f801309bb2184630f0e2fb03461a4668
:105b1000bb69a3f801200223fb75724b5b79002b54
:105b20003ad0fa68fb681b7f9c46bb691b78c3f3bd
:105b3000c003dbb21946bb691b78c3f38003dbb239
:105b40001846bb691b78c3f34003dbb21c46bb6934
:105b50001b78c3f30003dbb21d46bb69b3f8013009
:105b60009bb21e46bb69b3f803309bb27b60bb6837
:105b70005b893b60bb685b89053b07933b68069389
:105b80007b68059304960395029401900091634607
:105b9000554905201cf0e4fdbb691b7803f00103a7
:105ba000dbb2002b6dd0bb691b7803f00403dbb2c2
:105bb000002b07d0bb69b3f803309ab2fb680132ff
:105bc00092b21a84fb681b7f002b11d1454b5b7985
:105bd000002b05d0fb681a46444905201cf0c0fd87
:105be000fb681b69002b14bf01230023fb77bae37a
:105bf000fb681b7f042b0fd13a4b5b79002b00f025
:105c00007c83fa68bb691b78c3f38003dbb2384935
:105c100005201cf0a5fd70e3bb69b3f801309bb211
:105c20001a46fb689b8c01339a421ed12d4b5b793f
:105c3000002b05d0fb681a462e4905201cf090fd6c
:105c4000fb6804221a77fc6831f027fb0346636186
:105c5000f868fb68db8b1a46fb689b8c0093134645
:105c60000a2200210af07efc52e31e4b5b79002bd6
:105c700000f06883fb681a461f4905201cf070fd80
